:100000000C94380C0C94620C0C94620C0C94620CE2
:100010000C94620C0C94620C0C94620C0C94620CA8
:100020000C94620C0C94620C0C94620C0C94620C98
:100030000C94620C0C94620C0C94620C0C94620C88
:100040000C94620C0C94620C0C94620C0C94620C78
:100050000C94620C0C94620C0C94620C0C94952A17
:100060000C94620C0C94092B0C94DF2A0C94620CF7
:100070000C94620C0C94620C0C94620C0C94620C48
:100080000C94620C0C94620C0C94620C0C94620C38
:100090000C94620C0C94620C0C94620C0C94620C28
:1000A0000C94620C0C94620C0C94620C0C94620C18
:1000B0000C94620C0C94620C0C94620C0C94620C08
:1000C0000C94620C0C94620C0C94620C0C94620CF8
:1000D0000C94620C0C94620C0C94620C0C94620CE8
:1000E0000C94620C617474656E74696F6E204F4677
:1000F0004600617474656E74696F6E204F4E000027
:10010000000000003E5B4F5B3E3E6B4F6B3E1C3E73
:100110007C3E1C183C7E3C181C577D571C1C5E7F87
:100120005E1C00183C1800FFE7C3E7FF0018241806
:1001300000FFE7DBE7FF30483A060E26297929263B
:10014000407F050507407F05253F5A3CE73C5A7F25
:100150003E1C1C08081C1C3E7F14227F22145F5F7B
:10016000005F5F06097F017F006689956A606060B5
:10017000606094A2FFA29408047E040810207E20F0
:100180001008082A1C08081C2A08081E1010101045
:100190000C1E0C1E0C30383E3830060E3E0E06008B
:1001A0000000000000005F00000007000700147F4F
:1001B000147F14242A7F2A122313086462364956B6
:1001C00020500008070300001C2241000041221CAF
:1001D000002A1C7F1C2A08083E0808008070300096
:1001E0000808080808000060600020100804023EAB
:1001F0005149453E00427F400072494949462141EC
:10020000494D331814127F1027454545393C4A495A
:100210004931412111090736494949364649492999
:100220001E000014000000403400000008142241A9
:100230001414141414004122140802015909063E32
:10024000415D594E7C1211127C7F494949363E412D
:100250004141227F4141413E7F494949417F09094E
:1002600009013E414151737F0808087F00417F41E9
:10027000002040413F017F081422417F4040404020
:100280007F021C027F7F0408107F3E4141413E7F78
:10029000090909063E4151215E7F0919294626496F
:1002A00049493203017F01033F4040403F1F204046
:1002B000201F3F4038403F63140814630304780450
:1002C000036159494D43007F414141020408102018
:1002D000004141417F04020102044040404040008F
:1002E0000307080020545478407F28444438384499
:1002F000444428384444287F385454541800087E15
:10030000090218A4A49C787F0804047800447D4066
:10031000002040403D007F1028440000417F400005
:100320007C047804787C080404783844444438FC1D
:100330001824241818242418FC7C080404084854A1
:1003400054542404043F44243C4040207C1C20405E
:10035000201C3C4030403C44281028444C90909055
:100360007C4464544C44000836410000007700008F
:10037000004136080002010204023C2623263C1EEE
:10038000A1A161123A4040207A3854545559215560
:10039000557941225454784221555478402054557F
:1003A00079400C1E527212395555555939545454CE
:1003B0005939555454580000457C410002457D424E
:1003C0000001457C407D1211127DF0282528F07C2B
:1003D000545545002054547C547C0A097F493249C5
:1003E0004949323A4444443A324A4848303A414111
:1003F000217A3A42402078009DA0A07D3D424242B1
:100400003D3D4040403D3C24FF2424487E49436616
:100410002B2FFC2F2BFF0929F620C0887E090320F3
:10042000545479410000447D413048484A323840B4
:1004300040227A007A0A0A727D0D19317D26292917
:100440002F28262929292630484D40203808080819
:100450000808080808382F10C8ACBA2F102834FA3A
:1004600000007B000008142A142222142A140855C4
:1004700000550055AA55AA55AAFF55FF55FF000083
:1004800000FF00101010FF00141414FF001010FFE4
:1004900000FF1010F010F0141414FC001414F700F6
:1004A000FF0000FF00FF1414F404FC141417101FC5
:1004B00010101F101F1414141F00101010F0000053
:1004C00000001F101010101F10101010F01000006E
:1004D00000FF101010101010101010FF100000007E
:1004E000FF140000FF00FF00001F10170000FC04B5
:1004F000F414141710171414F404F40000FF00F798
:1005000014141414141414F700F7141414171410FA
:10051000101F101F141414F4141010F010F0000029
:100520001F101F0000001F14000000FC140000F04A
:1005300010F01010FF10FF141414FF141010101FEF
:1005400000000000F010FFFFFFFFFFF0F0F0F0F000
:10055000FFFFFF0000000000FFFF0F0F0F0F0F381D
:1005600044443844FC4A4A4A347E02020606027E6B
:10057000027E0263554941633844443C04407E2076
:100580001E2006027E020299A5E7A5991C2A492A87
:100590001C4C7201724C304A4D4D30304878483016
:1005A000BC625A463D3E494949007E0101017E2A0E
:1005B0002A2A2A2A44445F444440514A4440404441
:1005C0004A51400000FF0103E080FF000008086B73
:1005D0006B083612362436060F090F06000018186D
:1005E0000000001010003040FF0101001F01011E3B
:1005F00000191D1712003C3C3C3C000000000000AC
:10060000002200250028002B002E003100340002BB
:10061000010000050108010B010000210024002752
:10062000002A002D00300033000101000004010702
:10063000010A0111007F96290001007F9628003AE7
:100640000155C0021010C10141C50400228040368E
:100650000168B00100B102B011B40102B603020298
:100660003BB701C63A0155F704A9512C82B701C620
:10067000E808408A00002919A533C0020D0DC10207
:100680004300C20100C50400480048B40100B6039D
:1006900002023BE00F0F211C0B0E0849983809118C
:1006A00003141000E10F0F2F2B0C0E0647763707AF
:1006B0001104231E00B00100B30402000000B401C5
:1006C00000D003074218D103000710D2020102D361
:1006D000020102D4020102C005123B000211C10353
:1006E000101088C50103C60102C80C003236450649
:1006F00016377577540C00CC0100F603010100CFCA
:1007000003008130ED0464031281E803851078CB87
:1007100005392C003402F70120EA020000B0010084
:10072000B102001BB40100C00121C10111C5023F8B
:100730003CC701B5360148F20100260101E00F0F68
:1007400026240B0E0954A8460C17090F0700E10FC9
:1007500000191B0410072A473903060630380F36E4
:100760000100B80101C0010EB00100C10410100267
:1007700002C006003500000102C50104D2020104D6
:10078000CA0100EA0180B903FF83577F967F96B6BE
:100790000125C0065050013C1E08B4070240002A43
:1007A0002A0D787F01F20B161603080808081004BA
:1007B0001616FD03110235B2050C0C003333B701D8
:1007C00035BB012BC00104C20201FFC30111C401EA
:1007D00020C6010FD002A4A1E00ED000050E150D19
:1007E0003743470915121619E10ED000050D0C0606
:1007F0002D44400E1C1816193A01557F0A060007B1
:1008000000B1020012B40102B60400202700CA01A0
:1008100001CB0103C001137F14C501CCC60100C781
:100820000104C80103CC0106CD011CF9021515F322
:10083000030A020AF603011000FA00FB00E2031E9D
:100840000254E001017F0AE001037F0A01007F6496
:10085000E60303FFFFB0072400031F01DF00B40815
:1008600003A0002E30000F00B607020D001010008C
:1008700008BA010FB8020701F001007F012800113A
:10088000007F642900BE0606F001F00000D0010DD3
:10089000B00103E2013FC00122E20100B00100C04B
:1008A000010AB0010000000000000000000000008C
:1008B0000000000000FFFF0F0000040062080008B5
:1008C000080003000C01030B5A0203060903031777
:1008D0001004030023050300170603096307030937
:1008E0000C08030C1009033222100016001100013D
:1008F0000112000000130001000001300301013764
:10090000020301000D800200610201B0C1FFFF324D
:100910000001000001020000010300301009000185
:10092000000C000000900000800F0000001002008A
:10093000001102EF001202000013028F01000500F7
:10094000000105000002055F00010401000404002D
:1009500000FFFF320007000001FFFF32000002002D
:100960000001020000000000000000000000000084
:100970000000000100A4000100FFFF0A0060000069
:10098000270800080830001402310015373200042F
:10099000063300160E34001122350000153600070C
:1009A0008537000714380003143900200090001523
:1009B000001000100411003702290046002A0046EA
:1009C00000070000001200890113000011FFFF96CC
:1009D000001200B901010000010200000203003012
:1009E00010090001000A0000000D0000000E003098
:1009F00000610001006A000000800000008100002A
:100A00000082005F009200000193000107FFFF5089
:100A10000007000001E500F078010000010200007D
:100A20000203003010040000000500000008000769
:100A300002090000000A0000000C0000000D000088
:100A4000000F00000010000000110007001200005D
:100A5000001300000007000100FFFFC80010009015
:100A60001611002702FFFF320012000D00FFFF32B7
:100A7000001300001229000A002B000D00FFFF32B6
:100A800000200000002100000030000000310004C0
:100A9000043200030035000504360008083700075B
:100AA0000438000303390007073C0004053D000833
:100AB0000860000027610001006A0000008000005B
:100AC000008100000082000000830000008400001C
:100AD0000085000000900010009200000007003325
:100AE00001E500008000000100010000010200009B
:100AF0000703003010040000000800020209000093
:100B0000000A0000000C0000000D0000000F0000B3
:100B10000010000000110007001200000013000088
:100B200000FFFF32001000B01711000700FFFF0A9E
:100B30000012003A01FFFF0A001300001A29000CFE
:100B400000FFFF0A003000000031000505320004FC
:100B5000003500060036000707370005013800029F
:100B600000390007073C0004073D0007086000004B
:100B7000A7610001006A00000021000000200000C1
:100B8000008000000081000000820000008300005F
:100B9000008400000085000000900010009200001A
:100BA00000930003009500100197000000980000DA
:100BB0000007007301FFFF32000100000102000086
:100BC000070300301008000203090000000A0008B3
:100BD00000100000001100050012000000130000CA
:100BE00000FFFF64001000B012FFFF320011000789
:100BF00000FFFF320012008C0013000017290020B4
:100C000000FFFF3200300000003100060132000119
:100C100001350006013600030237000000380007E6
:100C200007390004023C0006013D0003016000009A
:100C3000A7610001009000300007003301FFFF3280
:100C400000150030009A001000110020001000284C
:100C5000341200020013003810FFFF2800120012A7
:100C600000FFFF28001000203413004530FFFF462E
:100C7000003000000031000204320007033300049A
:100C8000033400040035000104360007073700056F
:100C900003380010063900100601000001020000B0
:100CA0000303003010080008080A00080060000074
:100CB000276100010090003E0192000001930000B6
:100CC00001A0000030A30010000700010007002170
:100CD0000007002300070033000700330111001A4A
:100CE000001200213113006C001400494210000072
:100CF00008FFFF0A0011001A01FFFF0A0011001A85
:100D000003FFFF0A0011001A07FFFF0A0011001A73
:100D10000FFFFF0A0011003A0FFFFF1E000100281D
:100D20000102000001030030100700121008000348
:100D3000030B0000110C0000000F0001181500202B
:100D40000050000101510003065200080453000046
:100D5000005400050655000604560003035700031F
:100D600003580010005900001007001200FFFF2870
:100D70000007001300070017003F002C20007061DF
:100D80006E656C2072656164792C20647269766589
:100D9000722030780053657420464F5243455F44BB
:100DA00052495645525F494420696E20706C617407
:100DB000666F726D696F2E696E69202D207472796D
:100DC000203078383335372C203078393438312C8E
:100DD000203078393438362E00206973206E6F74D5
:100DE00020737570706F727465643B2070616E65FE
:100DF0006C20776173206E6576657220696E697408
:100E000069616C697365642E004552524F523A20F5
:100E10006472697665722030780070616E656C204E
:100E200063616E6E6F74207265706F727420697486
:100E3000732049443B20666F7263696E6720307887
:100E40003934383100726561644944202D3E2030C8
:100E50007800636C617564652D75736167652D6DD0
:100E600065746572206669726D776172652076318E
:100E70002E302E3000000020002300260029002CF8
:100E8000002F0032000001000003010601090105E6
:100E9000050505070508080808020202020A0A08F3
:100EA0000804040404010101010101010103030319
:100EB0000303030303040707070C0C0C0C0C0C0CB6
:100EC0000C0202020206060606060606060B0B0BBD
:100ED0000B0B0B0B0B0102102020080810204010F8
:100EE00020408002010201080402010102040810EE
:100EF000204080804020100804020180040201800C
:100F00004020100804020108040201010204081034
:100F1000204080010204081020408000000A0B02DB
:100F2000090C0D0E0807030401000000000000007A
:100F300000000000000000000000000000000000B1
:100F4000000000000000001211100000000000006E
:100F50000000000000000000000000000000000091
:100F6000003F003F00000000000FE0000000000014
:100F7000000000000000000000001FF8000000005A
:100F800000000000000000000000003FFC00000026
:100F90000180000000000000000000003FFC000095
:100FA0000007E0000000000000000000007FFE00DD
:100FB00000000FF000000000000000000000FFFE35
:100FC0000000001FF000000000000000000000FF13
:100FD000FF0000001FF800000000000000000001FA
:100FE000FFFF0000003FFC000000000000000000C8
:100FF00000FFFF8000003FFC000000000000000038
:101000000000FFFF8000007FF800000000000000EB
:10101000000000FFFF8000007FF8000000000000DB
:1010200000000000FFFFC000007FF800000000008B
:1010300000000000007FFFC000007FF800000000FB
:101040000000000000007FFFE000007FF8000000CB
:10105000000000000000007FFFE000007FF80000BB
:1010600000000000000000003FFFF00000FFF8005B
:10107000001FC00000000000001FFFF000007FF014
:1010800000003FE00000000000001FFFF80000FF2C
:10109000F000007FE00000000000000FFFF80000FB
:1010A000FFF00000FFF00000000000000FFFF8005C
:1010B00000FFF00001FFF800000000000007FFFC47
:1010C0000000FFF00003FFF800000000000003FF35
:1010D000FC0000FFF00007FFFC0000000000000320
:1010E000FFFE0000FFE0000FFFFC0000000000001A
:1010F00001FFFE0000FFE0001FFFF80000000000FD
:101100000001FFFF0000FFE0003FFFF800000002C9
:10111000800000FFFF0000FFE0007FFFF8000000FC
:1011200007F80000FFFF8000FFE000FFFFF800006D
:10113000000FFC00007FFF8001FFC000FFFFF000F8
:1011400000001FFF00003FFFC001FFC001FFFFF0D4
:101150000000001FFF80003FFFC001FFC003FFFF32
:10116000E00000003FFFC0001FFFE001FFC007FFDD
:10117000FFC00000001FFFE0001FFFE001FF800F25
:10118000FFFFC00000001FFFF8000FFFF001FF800D
:101190000FFFFF800000001FFFFC000FFFF001FFAA
:1011A000801FFFFF000000001FFFFE0007FFF80187
:1011B000FF803FFFFE000000001FFFFF8003FFF8DD
:1011C00001FF807FFFFC000000000FFFFFC003FF56
:1011D000FC03FF00FFFFFC0000000007FFFFE00131
:1011E000FFFC03FF00FFFFF80000000003FFFFF813
:1011F00001FFFE03FF01FFFFF00000000001FFFF01
:10120000FC00FFFE03FF03FFFFE000000000007F83
:10121000FFFE00FFFF03FF07FFFFE00000000000EC
:101220003FFFFF807FFF03FE0FFFFFC000000000B5
:10123000000FFFFFC07FFF83FE0FFFFF8000000055
:10124000000007FFFFE03FFFC3FE1FFFFF0000009D
:1012500000000001FFFFF83FFFC3FE3FFFFE00005C
:101260000000000000FFFFFC1FFFE3FE7FFFFE0009
:101270000000000000007FFFFE1FFFE3FE7FFFFC79
:10128000000000000000001FFFFF0FFFE7FCFFFF52
:10129000F8000000000000000FFFFFC7FFF7FFFF8E
:1012A000FFF00000000000000003FFFFE7FFF7FF72
:1012B000FFFFF00000000000000001FFFFFFFFF74C
:1012C000FFFFFFE000000000000000007FFFFFFFC5
:1012D000F7FFFFFFC000000000000000003FFFFF1D
:1012E000FFFFFFFFFFC000000000000000000FFF35
:1012F000FFFFFFFFFFFF800000000000000000076D
:10130000FFFFFFFFFFFFFF0000001FF800000000CD
:1013100001FFFFFFFFFFFFFF000003FFFE000000D3
:101320000000FFFFFFFFFFFFFE0000FFFFFE0000C9
:101330000000003FFFFFFFFFFFFE001FFFFFFE005A
:10134000000000001FFFFFFFFFFFFC03FFFFFFFE89
:10135000000000000007FFFFFFFFFFFC3FFFFFFF53
:10136000FE000000000003FFFFFFFFFFFFFFFFFF85
:10137000FFFC000000000000FFFFFFFFFFFFFFFF7A
:10138000FFFFFC0000000000007FFFFFFFFFFFFFEA
:10139000FFFFFFF83FF4000000001FFFFFFFFFFF0B
:1013A000FFFFFFFFC0FFFFFFFC00000FFFFFFFFF7D
:1013B000FFFFFFFFF800FFFFFFFFFFC003FFFFFF7E
:1013C000FFFFFFFFFF8000FFFFFFFFFFFFC3FFFFE7
:1013D000FFFFFFFFFFF00000FFFFFFFFFFFFFFFF2A
:1013E000FFFFFFFFFFFF0000007FFFFFFFFFFFFF8A
:1013F000FFFFFFFFFFFFE00000003FFFFFFFFFFFD9
:10140000FFFFFFFFFFFFFE000000001FFFFFFFFFC9
:10141000FFFFFFFFFFFFFFC00000000000FFFFFF16
:10142000FFFFFFFFFFFFFFFC0000000000000000C7
:10143000BFFFFFFFFFFFFFFFC00000000000000034
:10144000000000003FFFFFFFFFFF40000000000022
:10145000000000000003FFFFFFFFFFFFFFFD000093
:1014600000000000000007FFFFFFFFFFFFFFFFFF7E
:10147000800000000000000FFFFFFFFFFFFFFFFFE5
:10148000FFE00000000000003FFFFFFFFFFFFFFF45
:10149000FFFFF0000000000000FFFFFFFFFFFFFF65
:1014A000FFFFFFFC000000000003FFFFFFFFFF87BE
:1014B000FFFFFFFFFC00000000000FFFFFFFFFFF2A
:1014C000C07FFFFFFFFE00000000003FFFFFFFFFA7
:1014D000FFE007FFFFFFFF00000000007FFFCFFFDE
:1014E000FFFFF0007FFFFFFF0000000001FFFF9FF4
:1014F000FFFFFFF80007FFFFFF0000000007FFFEEF
:101500003FFFFFFFFC00007FFFFE000000001FFF09
:10151000FC7FFFFFFFFE000003FFFC000000003F18
:10152000FFF0FFFFFFFFFF8000003FE00000000032
:10153000FFFFE1FFDFFFFFFFC0000003C00000006E
:1015400003FFFF81FF9FFFFFFFE00000000000009E
:10155000000FFFFF03FF9FFFFFFFF00000000000F0
:1015600000001FFFFC07FF1FFFFFFFF80000000047
:101570000000007FFFF80FFE3FDFFFFFFC000000D0
:1015800000000000FFFFE01FFC3FCFFFBFFE000098
:101590000000000003FFFFC01FFC3FCFFFCFFF0094
:1015A000000000000007FFFF003FF83FC7FFC7FF34
:1015B0008000000000001FFFFE007FF03FC3FFE33C
:1015C000FFC000000000003FFFF800FFF03FC3FF36
:1015D000F1FFF00000000000FFFFE000FFE07FC12E
:1015E000FFF0FFF80000000001FFFFC001FFC07F17
:1015F000C1FFF83FFC0000000001FFFF0003FF8077
:101600007F80FFFC1FFE0000000003FFFE0007FFBD
:10161000807FC0FFFC0FFF0000000003FFF8000701
:10162000FF007F807FFE07FF8000000003FFF000C7
:101630000FFE007F803FFF03FFC000000003FFC0DC
:10164000001FFE00FF803FFF01FFE000000001FFE0
:1016500080003FFC00FF801FFF807FF00000000043
:10166000FC00007FF800FF800FFFC03FF800000083
:10167000000000007FF000FF800FFFC01FFC000093
:101680000000000000FFF000FF8007FFE00FFF00F8
:10169000000000000001FFE001FF8003FFF003FFF6
:1016A00080000000000003FFC001FF8003FFF00185
:1016B000FF80000000000003FF8001FF8001FFF8B1
:1016C000007F80000000000007FF8001FF0000FF96
:1016D000FC003FC000000000000FFF0001FF000001
:1016E000FFFC001FC000000000001FFE0003FF0001
:1016F000007FFE000F8000000000003FFC0003FFA1
:1017000000003FFF00030000000000003FFC00035A
:10171000FF00003FFF00000000000000007FF80015
:1017200003FF00001FFF8000000000000000FFF02A
:101730000003FF00000FFF8000000000000001FF19
:10174000E00007FF000007FF80000000000000012C
:10175000FFC00007FF000007FF800000000000003E
:1017600003FF800007FE000003FF80000000000070
:101770000003FF000007FE000001FFC000000000A2
:10178000000003FE000007FE000001FF80000000D3
:1017900000000003FC00000FFE000000FF800000BE
:1017A0000000000001F800000FFE0000007F0000B4
:1017B0000000000000006000000FFE0000001C00A0
:1017C000000000000000000000000FFE000000000C
:1017D00000000000000000000000001FFE000000EC
:1017E0000000000000000000000000001FFE0000DC
:1017F000000000000000000000000000001FFE00CC
:1018000000000000000000000000000000000FFECB
:101810000000000000000000000000000000000FB9
:10182000FE000000000000000000000000000000BA
:1018300007FC0000000000000000000000000000A5
:101840000007F80000000000000000000000000099
:10185000000001F000000000000000000000000097
:1018600000000000C00000000000000000003F2B4E
:1018700011241FBECFEFD1E2DEBFCDBF26E0AAEC20
:10188000B3E001C01D92A43CB207E1F713E0A0E071
:10189000B2E0E0E7F4E700E00BBF02C007900D9272
:1018A000AA3CB107D9F71CE0C8E3DCE004C02197EB
:1018B000FE010E94F936C733D107C9F70E94922B67
:1018C0000C94363A0C94000008953FB7F894809138
:1018D000EB059091EC05A091ED05B091EE0526B5D4
:1018E000A89B05C02F3F19F00196A11DB11D3FBF58
:1018F000BA2FA92F982F8827BC01CD01620F711D27
:10190000811D911D42E0660F771F881F991F4A9520
:10191000D1F708958F929F92AF92BF92CF92DF92AC
:10192000EF92FF926B017C010E94650C4B015C0100
:10193000C114D104E104F104B9F00E94650C6819E6
:1019400079098A099B09683E73408105910580F3F6
:1019500021E0C21AD108E108F10888EE880E83E080
:10196000981EA11CB11CE4CFFF90EF90DF90CF90A8
:10197000BF90AF909F908F9008952FB7F89460918B
:10198000E7057091E8058091E9059091EA052FBF80
:101990000895AF92BF92CF92DF92EF92FF920F9392
:1019A0001F93CF93DF936C017B018B01040F151FF5
:1019B000EB015E01AE18BF08C017D10759F069915D
:1019C000D601ED91FC910190F081E02DC6010995C1
:1019D000892B79F7C501DF91CF911F910F91FF906E
:1019E000EF90DF90CF90BF90AF900895FC01538DA2
:1019F000448D252F30E0842F90E0821B930B5417E9
:101A000010F0CF96089501970895FC01918D828D75
:101A1000981761F0A28DAE0FBF2FB11D5D968C910E
:101A2000928D9F5F9F73928F90E008958FEF9FEF4D
:101A30000895FC01918D828D981731F0828DE80F09
:101A4000F11D858D90E008958FEF9FEF0895FC01C3
:101A5000918D228D892F90E0805C9F4F821B910990
:101A60008F739927089580EF95E00E94270D21E05C
:101A7000892B09F420E0822F0895FC01A48DA80F82
:101A8000B92FB11DA35ABF4F2C91848D90E00196C0
:101A90008F739927848FA689B7892C93A089B189E0
:101AA0008C91837080648C93938D848D981306C081
:101AB0000288F389E02D80818F7D80830895EF92E5
:101AC000FF920F931F93CF93DF93EC0181E0888FF8
:101AD0009B8D8C8D98131AC0E889F989808185FFC8
:101AE00015C09FB7F894EE89FF896083E889F9896A
:101AF00080818370806480839FBF81E090E0DF916C
:101B0000CF911F910F91FF90EF900895F62E0B8DBE
:101B100010E00F5F1F4F0F731127E02E8C8D8E1179
:101B20000CC00FB607FCFACFE889F989808185FFE0
:101B3000F5CFCE010E943D0DF1CFEB8DEC0FFD2FC7
:101B4000F11DE35AFF4FF0829FB7F8940B8FEA899B
:101B5000FB8980818062CFCF0F931F93CF93DF9358
:101B60008C01D0E0C0E0F801EC0FFD1F649166230A
:101B700041F080EF95E00E945F0D892B11F02196D6
:101B8000F2CFCE01DF91CF911F910F910895CF93A6
:101B9000DF93EC01888D8823B9F0AA89BB89E88995
:101BA000F9898C9185FD03C0808186FD0DC00FB63B
:101BB00007FCF7CF8C9185FFF2CF808185FFEDCFB9
:101BC000CE010E943D0DE9CFDF91CF91089580E0D5
:101BD00090E0892B29F00E94330D81110E940000B2
:101BE00080E090E0892B49F080E090E0892B29F09B
:101BF0000E94000081110E94000080E090E0892B8B
:101C000049F080E090E0892B29F00E9400008111CA
:101C10000E94000080E090E0892B49F080E090E095
:101C2000892B29F00E94000081110C940000089576
:101C30000F931F93CF93DF93EC018B01FE018491EF
:101C40003196649122968F3799F470E090E080E0AD
:101C50000E948A0C60E070E06E5F7F4F061B170BDE
:101C6000101611065CF3DF91CF911F910F9108952B
:101C70008B988A9890910201977890930201A59889
:101C80009EB1977C9EB94091020190E09C0155E085
:101C9000220F331F5A95E1F72076242B209302015F
:101CA0004EB19C01220F331F220F331F2073242BB0
:101CB0002EB944B39C01220F331F2072242B24BB66
:101CC0004EB19C0135952795359527952870242B85
:101CD0002EB920910201A3E095958795AA95E1F789
:101CE0008871822B809302018998899A50E040E0A4
:101CF000461708F045C0FE01E40FF51FE4918A9AEB
:101D000080910201877880930201A5988EB1877C2B
:101D10008EB9709102018E2F90E09C01E5E0220FB8
:101D2000331FEA95E1F72076272B209302017EB13D
:101D30009C01220F331F220F331F2073272B2EB934
:101D400074B39C01220F331F2072272B24BB7EB15A
:101D50009C0135952795359527952870272B2EB909
:101D6000E091020123E0959587952A95E1F7887126
:101D70008E2B809302018998899A4F5F5F4FB8CF6D
:101D8000C60FD11D8B9A67CF8B988A98209102013C
:101D9000277820930201A5982EB1277C2EB9709147
:101DA0000201292F30E0F901A5E0EE0FFF1FAA95EF
:101DB000E1F7E076E72BE09302017EB1F901EE0F47
:101DC000FF1FEE0FFF1FE073E72BEEB974B3F901AD
:101DD000EE0FFF1FE072E72BE4BB7EB1F901F59532
:101DE000E795F595E795E870E72BEEB9709102015C
:101DF000E3E035952795EA95E1F72871272B2093A5
:101E000002018998899A2091020127782093020182
:101E1000A5982EB1277C2EB9709102019C01F5E0A6
:101E2000880F991FFA95E1F78076872B809302013E
:101E30007EB1C901880F991F880F991F8073872B66
:101E40008EB974B3C901880F991F8072872B84BB28
:101E50007EB1C90195958795959587958870872B53
:101E60008EB980910201F3E035952795FA95E1F757
:101E70002871282B209302018998899A8A9AFA015D
:101E8000615008F43EC0819190910201977890933F
:101E90000201A5989EB1977C9EB94091020190E005
:101EA0009C0155E0220F331F5A95E1F72076242B31
:101EB000209302014EB19C01220F331F220F331FCA
:101EC0002073242B2EB944B39C01220F331F2072A0
:101ED000242B24BB4EB19C0135952795359527952C
:101EE0002870242B2EB92091020133E09595879517
:101EF0003A95E1F78871822B809302018998899A3B
:101F0000BFCF8B9A08958B988A98E2E0F1E0208108
:101F100027782083A5982EB1277C2EB9A081292F60
:101F200030E0A901B5E0440F551FBA95E1F74076BE
:101F30004A2B4083AEB1A901440F551F440F551FD2
:101F400040734A2B4EB9A4B3A901440F551F4072E8
:101F50004A2B44BBAEB1A901559547955595479578
:101F600048704A2B4EB9408153E0359527955A95D4
:101F7000E1F72871242B20838998899A208127787A
:101F80002083A5982EB1277C2EB940819C01A5E025
:101F9000880F991FAA95E1F78076842B80834EB134
:101FA000C901880F991F880F991F8073842B8EB9E0
:101FB00044B3C901880F991F8072842B84BB4EB132
:101FC000C90195958795959587958870842B8EB9CD
:101FD0008081B3E035952795BA95E1F72871282BD4
:101FE00020838998899A8A9A808187788083A598A6
:101FF0008EB1877C8EB94081872F90E09C0155E09F
:10200000220F331F5A95E1F72076242B20834EB1FF
:102010009C01220F331F220F331F2073242B2EB954
:1020200044B39C01220F331F2072242B24BB4EB1DA
:102030009C0135952795359527952870242B2EB929
:102040002081A3E095958795AA95E1F78871822B69
:1020500080838998899A808187788083A5988EB1BA
:10206000877C8EB94081CB019B01B5E0220F331FE5
:10207000BA95E1F72076242B20834EB19B01220FE5
:10208000331F220F331F2073242B2EB944B39B011F
:10209000220F331F2072242B24BB4EB19C01359597
:1020A0002795359527952870242B2EB92081A3E0FC
:1020B00095958795AA95E1F78871822B80838998F9
:1020C000899A8B9A089581E08093EF05E1E0F1E031
:1020D0008081886780839D9A8DB188638DB9809A4D
:1020E000819A829A839A849A8B9A889A899A8C9AEE
:1020F00062E370E080E090E00E948A0C8C9864E6D5
:1021000070E080E090E00E948A0C8C9A64E670E0B7
:1021100080E090E00E948A0C70E060E080EB90E04C
:102120000C94830FEF92FF920F931F93CF93DF9343
:10213000EC01E62E8091EF05811102C00E94631030
:102140008B988A9880910201877880930201A598E4
:102150008EB1877C8EB980910201809302018EB18D
:102160008EB984B384BB8EB18EB980910201809305
:1021700002018998899A80910201877880930201EF
:10218000A5988EB1877C8EB920910201CE0115E011
:10219000880F991F1A95E1F78076822B80930201B0
:1021A0002EB1CE01880F991F880F991F8073822B43
:1021B0008EB924B3CE01880F991F8072822B84BB05
:1021C0002EB1CE0195958795959587958870822B30
:1021D0008EB98091020153E0D595C7955A95E1F7E4
:1021E000C871C82BC09302018998899A8A9A8091F4
:1021F00001018778809301019D988DB1877C8DB90D
:1022000061E070E080E090E00E948A0C61E070E0A4
:1022100080E090E00E948A0C889A88988898889834
:10222000D09100011CB102B3CCB1F0900001889AAA
:1022300061E070E080E090E00E948A0C889A8898C3
:1022400088988898409100015CB1E2B39CB1F0910C
:102250000001889AEA946FEFE612D8CF889A8B9A99
:10226000809101018867809301019D9A8DB18863F7
:102270008DB984E0C89F900111242072332788E033
:10228000F89EB0011124607C7727262B602F70E028
:102290007595679560717727262B612F70E075958E
:1022A0006795759567956C707727262B6D2F70E075
:1022B000B5E075956795BA95E1F763707727262B9A
:1022C00064E0969FC0011124807298E0F99FB001EC
:1022D0001124607C862BE695E0718E2B56955695E1
:1022E0005C70852B50E0C5E055954795CA95E1F7A0
:1022F0004370842B922FDF91CF911F910F91FF900C
:10230000EF9008950F931F93CF93DF938C0160E0BC
:102310000E949210EC0161E0C8010E9492108C01B1
:10232000BE0190E080E0CB017727662730E020E017
:10233000602B712B822B932BDF91CF911F910F91EB
:102340000895FF920F931F93CF93DF938C0160E06A
:102350000E949210EC0161E0C8010E949210F82ED8
:1023600062E0C8010E949210AE0170E060E0742F3C
:1023700066275527442700E030E020E0402B5F2906
:10238000622B732B292F30E0C901B0E0A0E08A0155
:102390009B01082B192B2A2B3B2BC901B801DF917C
:1023A000CF911F910F91FF9008950F931F93CF939B
:1023B000DF93EC018B01FE0185919491FE01329631
:1023C0002496659174918F3F980771F490E080E0B6
:1023D0000E948A0C045011091016110664F3DF9153
:1023E000CF911F910F9108950E94830FF3CFFC01AD
:1023F000262F358D868D82958170982F9627692F8F
:1024000070E072A361A330FF0CC0821307C080E2AA
:1024100090E050E040E060E00C94C40E81E290E077
:10242000F8CF878D90A1833927E7920741F058F4C0
:10243000843521E0920791F080329445C1F46260C6
:1024400081E094E012C0863223E99207C1F389301B
:1024500025EB9207A1F38532924949F4660F771F65
:10246000660F771F636187E090E00C94830F81E62D
:1024700090E0FBCF8F929F92AF92BF92CF92DF926C
:10248000EF92FF920F931F93CF93DF9300D000D072
:10249000CDB7DEB77C014B015A016901FC01878D84
:1024A00090A18632954151F4F701868980FF06C0DC
:1024B000C801841B950B81F50F5F1F4FF701858DB8
:1024C00080FF31C085A599828A82DB82CC82AE01F1
:1024D0004F5F5F4F64E090E00E94C40EF70181A956
:1024E000B982AA821B830C83AE014F5F5F4F64E009
:1024F00090E00E94C40E0F900F900F900F90DF910C
:10250000CF911F910F91FF90EF90DF90CF90BF90F0
:10251000AF909F908F9008952617370779F6C80ED1
:10252000D91E8A01CBCFB40187A190A50E94830F49
:10253000B501F70181A592A50E94830FC814D904A3
:1025400019F40A151B05B9F2F701858D85FF08C03E
:10255000868980FF1EC0102F0027A02AB12A85017E
:10256000B401F70185A596A50E94830FB501F70177
:1025700081A992A90E94830FB601F70187A590A9AE
:102580000E94830FB801F70183A994A90E94830FC9
:10259000B2CFDC2CCC248C289D286401E1CF2F9273
:1025A0003F924F925F926F927F928F929F92AF92E3
:1025B000BF92CF92DF92EF92FF920F931F93CF9330
:1025C000DF9300D000D01F92CDB7DEB79D838C8300
:1025D00080917F04882349F0C701880F991F8E736B
:1025E0009927E1ECEE22E82AF92A37FF05C0620FAD
:1025F000731F319521953109260F371F77FF02C0D0
:1026000070E060E0EC81FD818085918528173907B5
:102610000CF4C9016C01C61AD70A17FF05C0400F98
:10262000511F119501951109040F151F57FF02C085
:1026300050E040E0EC81FD812285338502171307CD
:102640000CF498015901A41AB50A89010150110925
:102650009C01215031098C819D810E943A128B98F6
:102660008A98EC81FD8153A544A580910201877869
:1026700080930201A5988EB1877C8EB9609102018A
:10268000842F90E09C01A5E0220F331FAA95E1F76B
:102690002076262B209302016EB19C01220F331F5E
:1026A000220F331F2073262B2EB964B39C01220FF7
:1026B000331F2072262B24BB6EB19C0135952795C4
:1026C000359527952870262B2EB92091020133E0ED
:1026D000959587953A95E1F78871822B8093020151
:1026E0008998899A80910201877880930201A59840
:1026F0008EB1877C8EB960910201852F942F9C0149
:1027000045E0220F331F4A95E1F72076262B2093D0
:1027100002014EB19C01220F331F220F331F207381
:10272000242B2EB944B39C01220F331F2072242B7B
:1027300024BB4EB19C01359527953595279528707A
:10274000242B2EB920910201E3E095958795EA9517
:10275000E1F78871822B809302018998899A8A9A7D
:10276000CA14DB042CF09A2D8B2D5601C92ED82EBD
:102770002F2D30E0890185E0000F111F8A95E1F7C8
:102780000076C901880F991F880F991F182F1073A1
:10279000C901880F991FB82FB072C9019595879507
:1027A00095958795982F987073E0359527957A952C
:1027B000E1F7822F8871A701E5E0440F551FEA95E4
:1027C000E1F740769701220F331F220F331F522F5C
:1027D0005073B701660F771F607297013595279583
:1027E00035952795722F78709701E3E035952795F9
:1027F000EA95E1F7A22FA8712F2D287F30E049013B
:10280000880C991C880C991CF82DF073F9834901E8
:10281000880C991CE82DE072EA834901959487940D
:1028200095948794F82DF870FB83E3E03595279510
:10283000EA95E1F7E22FE8712E2E9701F3E0369545
:102840002795FA95E1F72C7F30E04901880C991C17
:10285000880C991CF82DF0733F2E2901440C551C4F
:10286000E42DE0724E2E49019594879495948794B7
:10287000F82DF8705F2EF3E035952795FA95E1F77E
:10288000E22FE8716E2EEE0CEE0CEE0CF12C97019F
:10289000220F331F220F331FF22FF0737F2E970169
:1028A000220F331F2072F701F595E795F595E7950F
:1028B000E870F3E0F594E794FA95E1F73E2D38716E
:1028C000E32E1C141D040CF0ABC0309180044501B4
:1028D000332309F463C03091020137783093020149
:1028E000A5983EB1377C3EB9309102013093020188
:1028F0003EB1F9813F2B3EB934B3FA813F2B34BB53
:102900003EB1FB813F2B3EB9309102013229309319
:1029100002018998899A3091020137783093020137
:10292000A5983EB1377C3EB9309102013093020147
:102930003EB133293EB934B3342934BB3EB13529D5
:102940003EB9309102013629309302018998899A63
:1029500030910201377830930201A5983EB1377C5F
:102960003EB930910201309302013EB137293EB9A0
:1029700034B3322B34BB3EB13E2B3EB93091020111
:102980003E29309302018998899A31E0831A91088F
:1029900009F0A1CFF1E0CF1AD10893CF3091020115
:1029A000377830930201A5983EB1377C3EB930911B
:1029B0000201302B309302013EB1312B3EB934B3CA
:1029C0003B2B34BB3EB1392B3EB930910201382B41
:1029D000309302018998899A3091020137783093B7
:1029E0000201A5983EB1377C3EB930910201342BEB
:1029F000309302013EB1352B3EB934B3362B34BB94
:102A00003EB1372B3EB9309102013A2B309302018F
:102A10008998899AF1E08F1A910809F0BFCFBACF4F
:102A20008B9AEC81FD81858D80FF0AC0878D90A1F6
:102A300086329541B1F4EC81FD81868980FF11C019
:102A4000EC81FD81028513850150110920853185B6
:102A50002150310950E040E070E060E0CF010E9479
:102A60003A120F900F900F900F900F90DF91CF912F
:102A70001F910F91FF90EF90DF90CF90BF90AF909C
:102A80009F908F907F906F905F904F903F902F908E
:102A90000895EF92FF920F931F93CF93DF937C01E2
:102AA000E90177FD4DC157FD4BC1FC018085918542
:102AB000681779070CF044C1828593854817590738
:102AC0000CF03EC180917F04882341F0C901880F3A
:102AD000991F8E739927C17CC82BD92B8A019B0122
:102AE000C7010E943A1280918004882309F42FC103
:102AF0008B988A98F70143A554A5809102018778A5
:102B000080930201A5988EB1877C8EB960910201F5
:102B1000852F90E09C0175E0220F331F7A95E1F735
:102B20002076262B209302016EB19C01220F331FC9
:102B3000220F331F2073262B2EB964B39C01220F62
:102B4000331F2072262B24BB6EB19C01359527952F
:102B5000359527952870262B2EB920910201B3E0D8
:102B600095958795BA95E1F78871822B809302013C
:102B70008998899A80910201877880930201A598AB
:102B80008EB1877C8EB960910201CA019C0115E06B
:102B9000220F331F1A95E1F72076262B209302018E
:102BA0004EB19C01220F331F220F331F2073242BA1
:102BB0002EB944B39C01220F331F2072242B24BB57
:102BC0004EB19C0135952795359527952870242B76
:102BD0002EB92091020173E0959587957A95E1F7DA
:102BE0008871822B809302018998899A8A9A8091B0
:102BF0000201877880930201A5988EB1877C8EB9F7
:102C0000209102018D2F887F90E0209302014EB128
:102C10009C01220F331F220F331F2073242B2EB948
:102C200044B39C01220F331F2072242B24BB4EB1CE
:102C30009C0135952795359527952870242B2EB91D
:102C400020910201B3E095958795BA95E1F78871D7
:102C5000822B809302018998899A8091020187785A
:102C600080930201A5988EB1877C8EB920910201D4
:102C7000CE01D3E096958795DA95E1F78C7F90E0C9
:102C8000209302014EB19C01220F331F220F331FEC
:102C90002073242B2EB944B39C01220F331F2072C2
:102CA000242B24BB4EB19C0135952795359527954E
:102CB0002870242B2EB92091020163E09595879509
:102CC0006A95E1F78871822B809302018998899A2D
:102CD00080910201877880930201A5988EB1877C4C
:102CE0008EB980910201CC0FCC0FCC0FD0E0809335
:102CF00002012EB1CE01880F991F880F991F807392
:102D0000822B8EB924B3CE01880F991F8072822B3B
:102D100084BB2EB1CE019595879595958795887042
:102D2000822B8EB980910201A3E0D595C795AA9513
:102D3000E1F7C871C82BC09302018998899A8B9AD0
:102D4000DF91CF911F910F91FF90EF900895BE01F9
:102D5000F70183A594A5DF91CF911F910F91FF906B
:102D6000EF900C94830FEF92FF920F931F93CF93EA
:102D7000DF93CDB7DEB72A970FB6F894DEBF0FBE4C
:102D8000CDBF7C01862F8370F701868B962F9170C3
:102D900060FFE3C026813781F701318720879923BF
:102DA00009F4DEC024813581F70133872287823020
:102DB00009F4DBC0833009F4DAC0813009F4D3C0F0
:102DC00088E48A87F701858D968D90FF03C02A8558
:102DD00020582A8791FF04C02A8530E423272A87B8
:102DE00093FF04C02A8538E023272A87F701278D1F
:102DF00030A180FF00C12431F8E63F0709F0B9C0D7
:102E00009A85892F88728A871F82892F8595807479
:102E1000282F2260892F90E09595879580729927B9
:102E2000822B88878BE38987AE01495F5F4F63E020
:102E300086EB90E00E94C40E2AE230E0F70130A752
:102E400027A38BE290E092A781A74CE250E054A721
:102E500043A736A725A730AB27A792AB81AB94AB8E
:102E600083ABAE01465F5F4F61E086E390E00E9476
:102E7000C40E8A8590E0F70194A383A3F7018689A5
:102E800080FF1CC0858D968D92FD18C087A190A5EE
:102E900021A532A530A727A392A781A785A596A52E
:102EA00021A932A936A725A792AB81AB87A590A906
:102EB00023A934A930AB27A794AB83ABF7010285D4
:102EC000138501501109208531852150310950E0C9
:102ED00040E070E060E0C7010E943A12F7016681AD
:102EE0007781878D90A120E08732F3E99F0709F46D
:102EF00020E2F701358D30FF39C119821A827B83B8
:102F00006C831D822E83AE014F5F5F4F66E083E3CB
:102F100090E00E94C40E19821A82AE014F5F5F4F8B
:102F200062E087E390E00E94C40EF701858D80FF88
:102F300007C050E040E060E083E190E00E94C40EF2
:102F40002A960FB6F894DEBF0FBECDBFDF91CF91AA
:102F50001F910F91FF90EF900895248135811CCF30
:102F60002681378121CF88E22CCF88E92ACF88EFCC
:102F700028CF273243E9340789F41F8281E3888709
:102F80008A85859585958595859588708987AE0113
:102F9000495F5F4F63E080EC90E04CCF233689E1DE
:102FA000380749F02138E4E93E0729F02131F5E1FD
:102FB0003F0709F041CF8A8587FF02C081608A8779
:102FC0008A8586FF02C082608A878A858F7323364E
:102FD00049E1340731F0213884E9380721F48A8542
:102FE0008F728A8729CF2131354109F025CF8A8513
:102FF0008F7E806CF6CF6A85862F062E000C990B8B
:103000002339F7E73F0751F0A8F52435E1E03E0703
:1030100009F45CC02032F4E53F07A1F540E052E03E
:10302000F70150A747A341E052E052A741A742E071
:1030300052E054A743A740E152E056A745A741E11B
:1030400052E050AB47A742E152E052AB41AB43E103
:1030500052E054AB43AB882790782632F3E93F0720
:1030600021F02032344509F071C067FD846060E0D2
:1030700071E36EC0263243E9340781F22930E5EB73
:103080003E0761F220E230E0F70130A727A321E2FA
:1030900030E032A721A722E230E034A723A720E5C1
:1030A00030E036A725A721E530E030AB27A722E5A1
:1030B00030E032AB21AB23E530E034AB23ABBC01D5
:1030C00066277078776280E690E046C027E330E0BC
:1030D000F70136A725A726E330E030AB27A729E381
:1030E00030E032AB21AB28E330E034AB23AB20E25D
:1030F00030E030A727A321E230E032A721A722E267
:1031000030E034A723A7F4E06F9FB00111246627B5
:103110007170882792708862682B792B81E090E02B
:103120000E94830F8A85682F70E075956795759565
:1031300067956870772783FD70616063F70174A3FA
:1031400063A383E090E00E94830F98CE60E072E674
:10315000682B792B80E094E00E94830F6A85F4E06D
:103160006F9FB001112466277170D8CF8339F7E7BC
:103170009F07D9F1F0F4803244E59407B1F1833828
:10318000E7E79E0731F184359140F1F46150710910
:1031900081E390E00E94830F70E060E082E390E0C2
:1031A0000E94830F70E060E083E390E00E94830F51
:1031B000C7CE863223E99207C1F0893045EB9407E8
:1031C000A1F08532924911F3F70161A172A1626009
:1031D00003C0F70161A172A181E690E00E94830F14
:1031E00070E060E08AE690E0E1CFF70161A172A1B2
:1031F000626081E094E00E94830F70E060E084E010
:1032000094E0D4CF0895FC016370668B848195812E
:1032100026813781613039F0633029F091878087CA
:10322000338722870895318720879387828708957F
:103230002F923F924F925F926F927F928F929F92C6
:10324000AF92BF92CF92DF92EF92FF920F931F93B4
:10325000CF93DF93CDB7DEB76A970FB6F894DEBF92
:103260000FBECDBF9A8F898F7A8369834A01D22E90
:1032700018870F833701BC2CDC0159962D913C91A6
:103280005A972115310509F015C118968D919C9119
:103290001997681779070CF0D7C11A968D919C91F0
:1032A000481759070CF0D0C14C2C512CB6E0CB9EDE
:1032B000600D711D11247C876B87161617060CF0A4
:1032C000C3C1EA2DF0E0FA87E98793E0EE0FFF1F14
:1032D0009A95E1F7F88BEF87CF01840F951F1816A9
:1032E00019060CF0B1C1A98DBA8D58968C91811137
:1032F00004C0BFEABD1508F4D394A98DBA8DED9131
:10330000FC9111970284F385E02DCD010995B5E07C
:10331000DB9EC0011124E981FA81FC83EB83312C0F
:10332000212C9C0121503F4F388F2F8B4A2D50E08C
:103330005E8B4D8BEF89F88DE20DF31D44919E82DB
:103340008D82D12CC12C69817A81620D731D7A8B9B
:10335000698B842F90E09C8B8B8BE98DFA8DA081FB
:10336000B18140FF82C0F1E0BF126FC0AF126DC0EB
:103370001C96ED91FC912F813885A4014C0D5D1DAB
:1033800069897A89898D9A8D0995EB89FC89F595EA
:10339000E7954E2F5FEFC51AD50A6D817E818D8925
:1033A0009E89680F791F7E836D8398E0C916D104CA
:1033B00081F6AFEF2A1A3A0AEB81FC81E40DF51D84
:1033C000FC83EB83F5E02F16310409F0B3CF2F8196
:1033D000388526153705B9F0A98DBA8DED91FC9188
:1033E000B1E0BB1257C0AB1255C069817A816B5FE7
:1033F0007F4F0088F189E02D830128E030E0A401AF
:10340000898D9A8D0995A98DBA8DED91FC911197B1
:103410000688F789E02DCD016A960FB6F894DEBFD5
:103420000FBECDBFDF91CF911F910F91FF90EF9015
:10343000DF90CF90BF90AF909F908F907F906F90D4
:103440005F904F903F902F9009941E96ED91FC91C4
:10345000EF80F88409851A8592014D815E816B8128
:103460007C81898D9A8D099590CF2F81388526157D
:10347000370509F48ACF31E0B31207C0A31205C0A3
:103480001C96ED91FC91930178CF1E96ED91FC91E5
:103490007301E0CF6B857C85641975090684F78517
:1034A000E02D73010F8518899201A401898D9A8DF1
:1034B0000995A9CFF9013496949132974591549189
:1034C000D91AB7E0DB9E400D511D1124F901259159
:1034D00034913C8B2B8BFA0125903490FA01329673
:1034E000749031963491398B329664903196449031
:1034F00041E04C1518F04A1508F07FC0662D062CE7
:10350000000C770B7C836B83842D042C000C990BAF
:103510009E838D83A98DBA8DED91FC9111970284C4
:10352000F385E02DCD010995512CD12CC12CEA2D2C
:10353000F0E0FA87E9872B2D30E03C872B87A40148
:10354000440D511D47FC5A95588F4F8B69817A81E4
:10355000660D711D67FC7A957E876D877989C71620
:1035600008F051CF2C2D30E04D815E81420F531F6A
:10357000A985BA854A9FC0014B9F900D5A9F900D17
:103580001124FC01E80DF91DF88BEF87852D612CC6
:103590004F89588D420F531F5E8B4D8B671408F077
:1035A00050C044244394480E877041F4C1010196F1
:1035B000EB89FC89E20DF31DD4901C01D7FE19C0E4
:1035C000A98DBA8DED91FC91662D70E0B1E0BB1232
:1035D00019C0AB1217C02D853E85620F731F04847E
:1035E000F585E02D2F8138854D895E89898D9A8DED
:1035F0000995DD0C6394842DD1CF1E821D821C821F
:103600001B8288CF4B815C81640F751FAB85BC85A5
:103610006A9FC0016B9F900D7A9F900D1124698164
:103620007A81680F791F0684F785E02DEF80F88492
:1036300009851A859D014F855889898D9A8D09952F
:10364000D8CF570CC3948ACF6A960FB6F894DEBFD2
:103650000FBECDBFDF91CF911F910F91FF90EF90E3
:10366000DF90CF90BF90AF909F908F907F906F90A2
:103670005F904F903F902F9008958F929F92AF92BE
:10368000CF92EF92FF920F931F93CF93DF93EC01B2
:10369000262F898D9A8D009709F051C06A30D1F498
:1036A0001D861C868D8948E0849F900111248E859B
:1036B0009F85820F931F9F878E8781E090E0DF9127
:1036C000CF911F910F91FF90EF90CF90AF909F906F
:1036D0008F9008956D3089F3CC88AD888F898823C9
:1036E000C1F08C859D8536E0C39E800D911D11240F
:1036F000488559854817590764F44E855F851D86AE
:103700001C8638E0A39EC0011124840F951F9F875B
:103710008E87EA88FB88088919894E855F856C85C4
:103720007D85CE010E9418192C898C859D8546E0E7
:10373000249F800D911D11249D878C87BECF6A30F8
:1037400069F41D861C86FC013896E4912D898E85CE
:103750009F85E29F800D911D1124ADCF6D3009F43E
:10376000ACCFFC0134963491631708F4A6CF32969F
:10377000E491E61708F4A1CFFC013296859094906D
:10378000462F431B342F47E0349F800C911C11249B
:10379000F401329634913196E4913323A9F1EE236A
:1037A00099F1CC88F4013596E491AD884F89442392
:1037B00001F10E2E000CFF0BE30FF11DCE9EA001B8
:1037C000CF9E500D11246C857D85460F571F68854F
:1037D0007985641775076CF44E855F851D861C8698
:1037E000FC013896E491AE9E400D511D11245F8777
:1037F0004E87EA88FB88088919894E855F856C8524
:103800007D85CE010E941819F4013496E4912C892B
:103810008C859D85E29F800D911D11248DCF6F9227
:103820007F928F929F92AF92BF92CF92DF92EF9250
:10383000FF920F931F93CF93DF93EC016B015A011B
:1038400039014801E881F9810284F385E02D099569
:10385000E881F9810288F389E02D87019301A501B0
:10386000B601CE010995A501480D591D41505109D8
:10387000E881F9810288F389E02D9301B601CE0138
:103880000995E881F9810088F189E02D9401A5016D
:10389000B601CE010995C60CD71CB601615071095D
:1038A000E881F9810088F189E02D9401A501CE011C
:1038B0000995E881F9810688F789E02DCE01DF912D
:1038C000CF911F910F91FF90EF90DF90CF90BF901D
:1038D000AF909F908F907F906F9009946F927F929E
:1038E0008F929F92AF92BF92CF92DF92EF92FF9210
:1038F0000F931F93CF93DF935C01EB016A014901A2
:1039000038018701DC01ED91FC916217730719F50D
:10391000641675062CF0962D872D3A01C92ED82EE7
:103920009601261937092F5F3F4F048CF58DE02D46
:10393000A301BE01C5010995DF91CF911F910F91A0
:10394000FF90EF90DF90CF90BF90AF909F908F90BF
:103950007F906F9008954615570591F42617370705
:1039600024F0892D4B01C22FD82F9E012819390927
:103970002F5F3F4F068CF78DE02DA601B401DACF03
:103980000284F385E02D0995D501ED91FC91048821
:10399000F589E02D83019401A601BE01C5010995B9
:1039A000D501ED91FC910688F789E02DC501DF91E5
:1039B000CF911F910F91FF90EF90DF90CF90BF902C
:1039C000AF909F908F907F906F900994EF92FF92AD
:1039D0000F931F93DC011A960D911C911B9718965B
:1039E0002D913C911997ED91FC9100A0F1A1E02D52
:1039F0007B0150E040E070E060E009951F910F917D
:103A0000FF90EF9008954F925F926F927F928F9206
:103A10009F92AF92BF92CF92DF92EF92FF920F935D
:103A20001F93CF93DF936C012B015A013901480199
:103A3000DC01ED91FC910284F385E02D0995E20112
:103A4000640C751CD601ED91FC91C615D7055CF48C
:103A50000088F189E02D87019401A501BE01C6010E
:103A600009952196EFCF0688F789E02DC601DF91F1
:103A7000CF911F910F91FF90EF90DF90CF90BF906B
:103A8000AF909F908F907F906F905F904F90099430
:103A90008F929F92AF92BF92CF92DF92EF92FF925E
:103AA0000F931F93CF93DF93EC015B014A016901F0
:103AB000E881F9810284F385E02D099595012C0DAB
:103AC0003D1D21503109E881F9810488F589E02DF7
:103AD00078018401A401B501CE010995E881F9813D
:103AE0000688F789E02DCE01DF91CF911F910F91CC
:103AF000FF90EF90DF90CF90BF90AF909F908F900E
:103B000009948F929F92AF92BF92CF92DF92EF92E1
:103B1000FF920F931F93CF93DF93EC015B014A0158
:103B200069017801E881F9810284F385E02D099526
:103B3000C80CD91C860101501109E881F98104885B
:103B4000F589E02D9501A401B501CE010995E88123
:103B5000F9810688F789E02DCE01DF91CF911F9181
:103B60000F91FF90EF90DF90CF90BF90AF909F901C
:103B70008F900994EF92FF920F931F93DC01ED91C8
:103B8000FC9100A0F1A1E02D09951F910F91FF90EC
:103B9000EF9008950F931F93DC01ED91FC91068C3B
:103BA000F78DE02D09951F910F9108950F931F93A5
:103BB000DC01ED91FC91048CF58DE02D09951F91B0
:103BC0000F9108952F923F924F925F926F927F9242
:103BD0008F929F92AF92BF92CF92DF92EF92FF921D
:103BE0000F931F93CF93DF93CDB7DEB728970FB610
:103BF000F894DEBF0FBECDBF3C017E836D83588736
:103C00004F8369019A01220F331F2F5F3F4FAB0192
:103C10008F819885481B590B8601B3018DE896E08A
:103C20000E94D61D81E090E02C012F813885421A38
:103C3000530AC9019195819591099C01220F331F67
:103C40003C832B832F80388481E090E09A838983A2
:103C5000F12CE12C57FC0DC08F8198850197988736
:103C60008F832B813C812E5F3F4F3C832B83420E01
:103C7000531E3FEFE31AF30A89819A8102969A83D1
:103C80008983480E591E2F8138852E153F050CF467
:103C900066C04901880C991C3FEF831A930A86017C
:103CA0009401AD80BE808F819885A81AB90AA501BC
:103CB000B3016E0D7F1D8DE896E00E94D61D940124
:103CC000A501B3016E197F098DE896E00E94D61D0B
:103CD0002F8138852215330519F1AA24A394B12C1C
:103CE000AE18BF088D819E81A80EB91EB301620D6A
:103CF000731D860189809A8092E0891A9108940147
:103D0000A5018DE896E00E94D61DB30162197309E2
:103D10009401A5018DE896E00E94D61D2F8038847D
:103D20002F813885E216F3060CF494CF28960FB64F
:103D3000F894DEBF0FBECDBFDF91CF911F910F91E1
:103D4000FF90EF90DF90CF90BF90AF909F908F90BB
:103D50007F906F905F904F903F902F9008952F81AC
:103D600038852215330509F0B8CFE0CFDC01ED919D
:103D7000FC910084F185E02D09942F923F924F929F
:103D80005F926F927F928F929F92AF92BF92CF92EB
:103D9000DF92EF92FF920F931F93CF93DF9300D0A8
:103DA00000D000D0CDB7DEB73C016A013E832D8341
:103DB000FC82EB825801A41AB50AB7FE03C0B19485
:103DC000A194B1088D809E80861A970A97FE03C041
:103DD0009194819491088A149B045CF0902F812F18
:103DE0000D811E819D838E839C2D8D2D6B01692FEE
:103DF000782F0C151D055CF09D818E817E836D836F
:103E0000692F782F902F812F8601C92ED82E160169
:103E1000201A310A2B012D813E81421A530A57FE86
:103E200003C0519441945108710137FE03C03FEF24
:103E3000E31AF30AF594E7948D819E81861797071C
:103E40005CF5A1E0B0E0BA83A983C016D1064CF1BD
:103E5000D301ED91FC910484F585E02D2B813C810B
:103E6000A8016D817E818A149B041CF04D815E81C6
:103E7000B801C3010995E418F508F7FE0AC02D81C1
:103E80003E8189819A81280F391F3E832D83E20C60
:103E9000F31C0F5F1F4FD9CF2FEF3FEF3A832983DA
:103EA000D4CF26960FB6F894DEBF0FBECDBFDF91FC
:103EB000CF911F910F91FF90EF90DF90CF90BF9027
:103EC000AF909F908F907F906F905F904F903F90BA
:103ED0002F900895089590E080E00895EF92FF926A
:103EE0000F931F93DC011A960D911C911B97189646
:103EF0002D913C911997ED91FC9100A0F1A1E02D3D
:103F00007B0150E040E070E060E009951F910F9167
:103F1000FF90EF900895EF92FF920F931F93DC01B3
:103F2000ED91FC9100A0F1A1E02D780101E010E0FD
:103F300009951F910F91FF90EF9008958F929F9296
:103F4000AF92BF92CF92DF92EF92FF920F931F93A7
:103F5000CF93DF935C016B01F12CE12C90E8892E6B
:103F6000912C6FEF7FEFD0E0C0E0C838D10509F4A5
:103F70004CC0FE0183E0F595E7958A95E1F7EE0DDB
:103F8000FF1DEB59F04FE491CE0187709927940102
:103F900002C0359527958A95E2F7C901F0E0E22342
:103FA000F923EF2B01F16F3F760709F4BE0121964B
:103FB000C938D105D1F62FEFC21AD20A31E1E30E8A
:103FC000F11C88E0E81689E0F80659F6DF91CF91F8
:103FD0001F910F91FF90EF90DF90CF90BF90AF9027
:103FE0009F908F9008956F3F760709F39E01261BDF
:103FF000370B6A0D7B1D0AEA1BEDA6018DE896E0E2
:104000000E948B1F6FEF7FEFD2CF6F3F760771F764
:10401000D2CFEF92FF920F931F93DC01ED91FC91B1
:1040200000A0F1A1E02D7801890121E030E009959F
:104030001F910F91FF90EF9008952F923F924F9212
:104040005F926F927F928F929F92AF92BF92CF9228
:10405000DF92EF92FF920F931F93CF93DF9300D0E5
:104060001F92CDB7DEB79B838A834B012A013901AA
:10407000302E19839E2D8F2D76012A2C292F382F33
:104080002536310510F024E630E0D2010E940237D7
:1040900024E630E040E050E00E94DA365901890120
:1040A0002220A9F08301A4016A817B818DE896E03A
:1040B0000E94CF1294E2E92E91E2F92E92012A1980
:1040C0003B09A4016A817B816A0D7B1D1EC0232DE3
:1040D00039812536310510F024E630E0D2010E9406
:1040E000023724E630E040E050E00E94DA36201744
:1040F00031070CF05CC0C501821B930B6A817B8188
:10410000620F731F83019C01A4018DE896E00E9459
:10411000CF122BE430E0D2010E94023724E630E0D7
:1041200040E050E00E94DA366A817B81620F731FA3
:104130008A819B81A80EB91EA616B70644F400E139
:1041400014E89301A4018DE896E00E9409202AE575
:1041500030E0D2010E94023724E630E040E050E037
:104160000E94DA366A817B81620F731FA616B7063A
:1041700044F400E114E89301A4018DE896E00E9464
:1041800009200F900F900F90DF91CF911F910F9109
:10419000FF90EF90DF90CF90BF90AF909F908F9067
:1041A0007F906F905F904F903F902F9008950217EF
:1041B00013073CF72A193B0984E2E82E81E2F82E26
:1041C00083017FCF482FE92F9B01603187E2780779
:1041D00038F1CB0168EE73E00E949036CB016AE0C3
:1041E00070E00E9490369F938F93C90160E177E25F
:1041F0000E9490367F936F938DE592E09F938F930B
:104200001F928AE08F93EF934F930E9452378DB79E
:104210009EB70A960FB6F8949EBF0FBE8DBF089545
:10422000CB016AE070E00E9490369F938F937F935A
:104230006F9385E692E09F938F931F928AE08F930E
:10424000EF934F930E9452378DB79EB70A960FB6E1
:10425000F8949EBF0FBE8DBF08950E941837FB01D2
:1042600001900020E9F73197AF01461B570BDC01A5
:10427000ED91FC910280F381E02D0994CF93DF93BF
:104280000E94AC0DEC016CE672E080EF95E00E94BC
:104290002F218C0F9D1FDF91CF9108958F929F92B8
:1042A000AF92BF920F931F93CF93DF93CDB7DEB73B
:1042B000A1970FB6F894DEBF0FBECDBF19A2423052
:1042C00008F44AE08E010F5D1F4F842E912CB12C13
:1042D000A12CA50194010E94B836E62FB901CA01AC
:1042E000EA3004F5E05DD801EE938D01232B242BF9
:1042F000252B79F790E080E0109729F0BD0180EF41
:1043000095E00E942F21A1960FB6F894DEBF0FBE54
:10431000CDBFDF91CF911F910F91BF90AF909F9034
:104320008F900895E95CDFCFCF92DF92EF92FF92FA
:10433000CF93DF936B017C016DE280EF95E00E94EB
:104340005F0DEC0166277727CB016C197D098E097B
:104350009F094AE00E944E218C0F9D1FDF91CF9153
:10436000FF90EF90DF90CF9008950F931F933093BD
:10437000A00620939F0630939E0620939D064093AF
:10438000A1064093A20690939A0680939906709393
:104390009C0660939B060115110539F0B8018DE864
:1043A00096E01F910F910C942F211F910F9108956A
:1043B000CF92DF92EF92FF920F931F93CF93DF93F1
:1043C000EC019B016A0182EAE82E80E1F82E0AE204
:1043D00010E042E051E0BE018DE896E00E94CF126D
:1043E000860120E134E841E067E071E0CE01089603
:1043F0000E94B521DF91CF911F910F91FF90EF9017
:10440000DF90CF900895AF92BF92CF92DF92EF925C
:10441000FF920F931F93CF93DF936A01E9010896F0
:104420005C019B012051310982EAE82E80E1F82EDF
:1044300000E110E045E151E0B5018DE896E00E9411
:10444000CF1286019E0142E065E171E0C5010E9444
:10445000B521DF91CF911F910F91FF90EF90DF90E9
:10446000CF90BF90AF9008950F931F93CF93DF939A
:10447000F90101900020E9F73197E21BF30B76E098
:104480007E9FE0017F9FD00D11246C9FD0016D9F16
:10449000B00D1124E0EEF1E0EA1BFB0BF7FD3196C5
:1044A00089019A01462FBC01CF01959587950E94FD
:1044B000B521DF91CF911F910F9108950F931F9315
:1044C000F80101900020E9F73197E01BF10B56E06D
:1044D0005E9FD0015F9FB00D11244A9FF0014B9F5A
:1044E000F00D11248E1B9F0B0E94B5211F910F917F
:1044F00008952F923F924F925F926F927F928F9288
:104500009F92AF92BF92CF92DF92EF92FF920F9362
:104510001F93CF93DF93CDB7DEB760970FB6F894B4
:10452000DEBF0FBECDBF9C878B87488B0D87EE8685
:10453000CF864B0129013C0124E0620E711CB12C95
:10454000CE0101961C019889B91609F495C0EF8532
:10455000E11119C0FD85BF16B0F4F4019785F20191
:104560008785981310C0F40120893189F201808970
:1045700091892817390739F4B201C4010E943337F1
:10458000892B09F46EC0F12CE12C00E110E020E74A
:1045900030E0A3016CE070E08DE896E00E94CF125D
:1045A00084012FEF3FEF42E0B3018CE090E00E94E6
:1045B000B521F401E784F12CAA24A394CC24CA9455
:1045C00085E0D82E10E000E020E130E04AEB50E03A
:1045D000B30180E890E00E941D20F12CE12C00E165
:1045E00010E024E530E0A30162E471E08DE896E09C
:1045F0000E94CF12F40160897189C1010E94E220FA
:1046000081012FEF3FEF42E0B30186E991E00E9484
:104610005E2200E110E026E330E0A3016EE971E0E4
:104620008DE896E00E94CF12F40187851F928F9348
:104630002FE632E03F932F931F929AE09F933F9291
:104640002F920E945237810120E134E842E0B30109
:1046500084ED91E00E945E220FB6F894DEBF0FBE9B
:10466000CDBFB394F2E18F0E911C22E1420E511C9A
:104670003CE1630E711C67CF8E85B81600F59F85EF
:10468000911103C0ED85BE16D1F02E852B19330B89
:10469000C9012CE1289F8001299F100D11244B8511
:1046A0005C85B29E400D511D1124F12CE12C28ECAB
:1046B00031E06CE070E08DE896E00E94CF126096E9
:1046C0000FB6F894DEBF0FBECDBFDF91CF911F9123
:1046D0000F91FF90EF90DF90CF90BF90AF909F90A1
:1046E0008F907F906F905F904F903F902F900895A4
:1046F000EF92FF920F931F93CF93DF938091530517
:10470000882309F46BC0C091DF05CC2321F0809190
:104710003005811165C083EE98E17C0100E210E074
:1047200020EE31E050E040E070E060E08DE896E09F
:104730000E94CF120CE812E02FEF35E042E069E072
:1047400070E08AE090E00E94B52103E912E02FEFCB
:104750003FEF42E069E070E08EE590E00E94B52115
:10476000CC2309F441C080913005C0E0D0EC88230F
:1047700011F0CFEFDFEF04E712E09E0145E050E0DB
:1047800060E170E08EEE90E00E94E21D9E0142E04A
:1047900069E070E08CEF90E00E94B5218091E50522
:1047A000882331F08091D50505ED15E0811102C017
:1047B00006E812E02FEF3FEF42E069E070E086ED9F
:1047C00091E00E945E228091E50580936B04DF9169
:1047D000CF911F910F91FF90EF900895C0E09BCF74
:1047E000C82F80E090EC99CF8091E505C0E1D4E836
:1047F0000EE712E0882309F280915105E82FF0E0DE
:10480000EE0FFF1FE55FFD4F008111819DEF980FB7
:10481000C6EAD9EF923008F4B0CFC0E2DDEF8230C3
:1048200009F4ABCFC0E1D4E8813009F0A6CFC8EEDF
:10483000DFE2A3CF8F929F92AF92BF92CF92DF928F
:10484000EF92FF920F931F93CF93DF93CDB7DEB715
:1048500028970FB6F894DEBF0FBECDBF182FC090BB
:104860000002D09001028FEFC816D80609F10E940D
:10487000BD0C80906D0490906E04A0906F04B09079
:104880007004681979098A099B0920E63AEE40E02C
:1048900050E00E94B836CA01B9016C0D7D1D811D22
:1048A000911D20EA35E040E050E00E94B8366B01EF
:1048B000112341F170E060E08DE896E00E946E1FE8
:1048C00064E170E08CEA90E00E949E1F8091710488
:1048D000882349F021E734E040E154E862E08AEFC0
:1048E00090E00E94342229E932E044E251E261E0A2
:1048F00084E291E00E9434228FEF9FEF90930302B5
:104900008093020280910202909103028C159D0512
:1049100031F1D0920302C0920202F12CE12C00E3AB
:1049200010E020EF30E04AEB50E068E770E08DE8FF
:1049300096E00E94CF128E010F5F1F4F9FEFC916A6
:10494000D90601F566E872E0C8010E943C3798017B
:104950004FEF5FEF66E08AEB90E00E9434222896EA
:104960000FB6F894DEBF0FBECDBFDF91CF911F9180
:104970000F91FF90EF90DF90CF90BF90AF909F90FE
:104980008F900895C6016CE370E00E9490369F936B
:104990008F937F936F938FEA92E09F938F931F92F1
:1049A00088E08F931F930F930E9452370FB6F894AD
:1049B000DEBF0FBECDBFCBCF77FF04C069E872E08A
:1049C0000C943C379C016C337105ECF0CB016CE32B
:1049D00070E00E94A4369F938F937F936F9389EB2F
:1049E00092E09F938F931F928AE08F933F932F9330
:1049F0000E9452378DB79EB70A960FB6F8949EBFA5
:104A00000FBE8DBF08957F936F9382EC92E09F93CA
:104A10008F931F928AE08F933F932F930E94523778
:104A20008DB79EB708960FB6F8949EBF0FBE8DBF88
:104A300008952F923F924F925F926F927F928F9242
:104A40009F92AF92BF92CF92DF92EF92FF920F931D
:104A50001F93CF93DF93CDB7DEB7AE970FB6F89421
:104A6000DEBF0FBECDBF3C014B012A01B22EFB01C0
:104A70002081318196EAC92E99EFD92E2A35310548
:104A800058F448EEC42E4FE2D42E2B34310520F0DA
:104A900080E2C82E8DEFD82EB11063C0F201808164
:104AA000918146EA59EF8A35910538F440E25DEF8D
:104AB0008B34910510F448EE5FE2AA24A394C41647
:104AC000D50609F4A12C2817390709F04BC0F401C9
:104AD000E080F180F2010081118122E130E048ECB8
:104AE00051E0B3016A5D7F4F8CE090E00E941D2091
:104AF000B1106FC0F40122813381F2018281938170
:104B00002817390709F065C0F40124813581F201C5
:104B1000848195812817390709F05BC0F40126814B
:104B20003781F201868197812817390709F098C0EB
:104B3000AE960FB6F894DEBF0FBECDBFDF91CF911A
:104B40001F910F91FF90EF90DF90CF90BF90AF90AB
:104B50009F908F907F906F905F904F903F902F909D
:104B60000895AB2C1301F2E02F0E311CF12CE12C37
:104B700000E210E02CE830E0A10168E471E08DE88B
:104B800096E00E94CF12F40180819181883EF3E08B
:104B90009F0710F087EE93E09F938F938FE692E04C
:104BA0009F938F931F928AE18F938E010F5F1F4F08
:104BB0001F930F930E945237960144E0B10184ED98
:104BC00091E00E945E220FB6F894DEBF0FBECDBF0B
:104BD0007ECFF12CE12C0AE010E020EF30E0A301C1
:104BE000455C5F4F6CE070E08DE896E00E94CF126C
:104BF000F401628173816E01FBE1CF0ED11CC6010D
:104C00000E94E220F401648175811E01F5E22F0EFD
:104C1000311CC1010E94E2203F922F92DF92CF927D
:104C200086EC92E09F938F931F928AE18F938E017F
:104C30000F5F1F4F1F930F930E94523720E134E8FC
:104C400041E0B301645C7F4F8CE090E00E94B521AD
:104C50000FB6F894DEBF0FBECDBFBB2009F45ECF08
:104C6000A301455C5F4FF12CE12C0AE010E020E845
:104C700030E064E571E08DE896E00E94CF12F40127
:104C8000668177816E01FBE1CF0ED11CC6010E94C7
:104C9000DC24DF92CF928FEC92E09F938F931F9250
:104CA0008AE18F938E010F5F1F4F1F930F930E9416
:104CB0005237B301645C7F4F20E134E841E084ED7A
:104CC00091E00E945E220FB6F894DEBF0FBECDBF0A
:104CD0002FCFCF92DF92EF92FF920F931F93CF933C
:104CE000DF93CDB7DEB76E970FB6F894DEBF0FBE79
:104CF000CDBFD0900502D110D6C180916C04811136
:104D0000D6C0DD24D3940E947823ECC0809127057F
:104D100081116CC001E013E020E134E842E06CE274
:104D200070E08CE090E00E94B52108E013E020E103
:104D300034E842E066E770E08CE090E00E94B52144
:104D400001E113E020E134E842E060EC70E08CE047
:104D500090E00E94B5214CE153E064E970E08CE002
:104D600090E00E94D82146E253E064E970E088EACE
:104D700090E00E94D82140E353E060E970E084E4D1
:104D800091E00E94D8218091270524E231E281112F
:104D900002C02FEF35E044E050E067E371E086EEBB
:104DA00090E00E94E21D8091270524E231E28130EB
:104DB00011F42FEF35E044E050E067E371E08AEF53
:104DC00090E00E94E21D8091270503EE12E0811120
:104DD00002C00CED12E020E134E841E063E371E051
:104DE0008CE090E00E94B521DF2C8DCF0CE313E026
:104DF00020E134E842E068E270E08CE090E00E945C
:104E0000B52160913F05709140058E010B5E1F4FEB
:104E1000C8010E94E2201F930F9385E493E09F93C3
:104E20008F931F9284E18F93045111091F930F9365
:104E30000E94523720E134E841E06EE270E084EDF8
:104E400091E00E945E2204E211E228EC31E04CE3A2
:104E500050E06CE070E08DE896E00E948B1F03E567
:104E600013E020E134E842E06AEB70E08CE090E08F
:104E70000E94B5210EE513E020E134E841E060EC4A
:104E800070E084ED91E00E945E2204E211E228ECE1
:104E900031E04EEC50E06CE070E08DE896E00E946E
:104EA0008B1F0FB6F894DEBF0FBECDBF6CCF9091B5
:104EB000510580919D04981326CF909153058091C0
:104EC0009F04981320CF9091E50580916B0498136F
:104ED0001ACF61E275E085ED95E00E943337892BAA
:104EE00009F011CF8091DF05882309F454C0809127
:104EF00027058111AFC01D2DD11008C011E0909180
:104F000054058091A004981301C010E0212F41E8BE
:104F100054E065E375E084E290E00E941925212FBA
:104F200049E854E06DE375E08EE690E00E941925B3
:104F3000212F41E954E065E475E088EB90E00E94A0
:104F4000192560914D0570914E05D11037C08091A3
:104F5000990490919A046817790781F520914F057B
:104F60003091500580919B0490919C04281739073B
:104F7000E9F59091520580919E04981355C086EAF8
:104F8000E5E3F5E0A1E8B4E001900D928A95E1F740
:104F900081E080936C0410920502109204026E96D8
:104FA0000FB6F894DEBF0FBECDBFDF91CF911F913A
:104FB0000F91FF90EF90DF90CF900895CE01019672
:104FC0000E94E22065E773E0CE0101960E941D3742
:104FD0002FEF35E0AE014F5F5F4F64E970E08CE08A
:104FE00090E00E940322DD2009F4B8CF60914F05C4
:104FF00070915005CE0101960E94DC2480914F05EE
:10500000909150052FEF3FEF4E9710F426EA39EFBD
:10501000AE014F5F5F4F64E970E088EA90E00E9464
:105020000322DD2009F4A5CFE091520520E23DEFF7
:10503000E33010F028EE3FE2F0E0EE0FFF1FEB5EF2
:10504000FD4F4081518160E970E084E491E00E946D
:10505000032295CF80916C040091A104811101C0BD
:1050600000E0CD2C94E0E92E23EA34E04091550590
:1050700067E575E082E490E00E94792280916C04FB
:105080000091A204811101C000E0CD2C83E0E82E44
:105090002BEE34E0409156056FE975E084ED90E029
:1050A0000E9479226CCF0E947823F12CE12C00E23F
:1050B00011E020EE31E040E250E070E060E08DE889
:1050C00096E00E94CF12F090DF05F1101FCE0DEE9A
:1050D00012E020E134E842E066E970E088E790E021
:1050E0000E94B52110CE8F929F92AF92BF92CF9225
:1050F000DF92EF92FF920F931F93CF93DF936B0199
:10510000EA01822E188268E773E00E9448367C012B
:1051100082E1982EE114F10409F44FC088818815CA
:1051200008F04BC06CE270E0C7010E9428378C0188
:105130000097D9F15C012FEFA21AB20A6CE270E07D
:10514000C5010E942837009781F1F8011082FC0107
:1051500011928F0188814EE050E0B7019601899D40
:10516000200D311D1124C9010E9443378881F601A9
:10517000899DE00DF11D11241686C5010E9403369C
:105180009881F601999DE00DF11D11248787C801D2
:105190000E9421362881F601299DE00DF11D112480
:1051A000718B608B88818F5F888368E773E090E004
:1051B00080E00E9448367C01ADCFDF91CF911F91F6
:1051C0000F91FF90EF90DF90CF90BF90AF909F90A6
:1051D0008F900895AF92BF92DF92EF92FF920F935C
:1051E0001F93CF93DF93CDB7DEB7C454D1090FB669
:1051F000F894DEBF0FBECDBF11E00AE08CE3F82EBD
:1052000080EF95E00E94270D892B09F47DC180EF86
:1052100095E00E94050DE0916A048A3019F08D3006
:1052200009F066C1EE2361F3F0E0E653FC4F108213
:105230008091CA03882309F4E1C09091CB039C3785
:1052400009F0DCC0E090DF05873409F0DAC068E7D8
:1052500073E08CEC93E00E9448369E012F5F3F4F35
:105260005901D12C009799F031E1D31699F0D394DC
:105270000E942136F50161937193819391935F01AF
:1052800068E773E090E080E00E944836EBCFF1E100
:10529000DF1292C089819A819093360580933505FB
:1052A0008D819E81909338058093370589859A85F5
:1052B00090933A05809339058D859E8590933C05A2
:1052C00080933B0589899A8990933E0580933D059B
:1052D0008D899E899093400580933F05898D9A8D95
:1052E00090934205809341058D8D9E8D909344054A
:1052F0008093430529A13AA13093460520934505A3
:105300002DA13EA1309348052093470529A53AA534
:1053100030934A052093490590934C0580934B05A3
:105320008DA59EA590934E0580934D0589A99AA9B8
:105330009093500580934F058DA99EA9AFA9B8AD54
:1053400085309105A105B1051CF080E090E0DC01FD
:105350008093510589AD9AADABADBCAD853091055B
:10536000A105B1051CF080E090E0DC0180935205BE
:105370009091530521964CAD5DAD6EAD7FAD2197FB
:1053800081E0411551056105710509F480E08093C4
:105390005305891751F082EF90E0452B462B472BA0
:1053A00011F484EE90E00E943E2122968FAD229768
:1053B000809354051093DF050E94BD0C6093E105B6
:1053C0007093E2058093E3059093E4051093040243
:1053D0008091E005882321F01092E00510930502EA
:1053E0008091E505882331F0E11008C08091DF0548
:1053F000882321F01093E5051093050210926A04AA
:10540000FFCE24E045E555E067E575E08D3439F0E1
:10541000803551F423E046E555E06FE975E08CEC0A
:1054200093E00E947328C8CF843541F76CE770E0A1
:105430008CEC93E00E942837009759F0FC01119200
:10544000BF014DE050E081E794E00E9443371092A5
:105450007E0445E050E06CEC73E085ED95E00E9441
:1054600043371092DA058091CC03882309F4A4CF46
:105470009091CE039A3309F09FCF082E000C990B20
:10548000C097089F9001099F300D11248091CD0392
:10549000082E000C990BC097820F931FF89EA00155
:1054A000F99E500D11242091CF03022E000C330BD6
:1054B00020533109029FB001039F700D1124809188
:1054C000D003082E000C990BC097860F971F840FEE
:1054D000951F90930102809300020E94BD0C60937F
:1054E0006D0470936E0480936F049093700464CF86
:1054F000EF3908F085CE91E09E0F90936A04F0E0BA
:10550000E653FC4F80837CCECC5BDF4F0FB6F89424
:10551000DEBF0FBECDBFDF91CF911F910F91FF90E6
:10552000EF90DF90BF90AF9008951F920F920FB64B
:105530000F9211242F933F938F939F93AF93BF9319
:105540008091E7059091E805A091E905B091EA0501
:105550003091E60523E0230F2D3758F50196A11D64
:10556000B11D2093E6058093E7059093E805A0938D
:10557000E905B093EA058091EB059091EC05A091C7
:10558000ED05B091EE050196A11DB11D8093EB05CF
:105590009093EC05A093ED05B093EE05BF91AF910C
:1055A0009F918F913F912F910F900FBE0F901F9061
:1055B000189526E8230F0296A11DB11DD2CF1F9288
:1055C0000F920FB60F9211240BB60F922F933F93A9
:1055D0004F935F936F937F938F939F93AF93BF93FB
:1055E000EF93FF9380EF95E00E943D0DFF91EF91C7
:1055F000BF91AF919F918F917F916F915F914F91EB
:105600003F912F910F900BBE0F900FBE0F901F90E8
:1056100018951F920F920FB60F9211240BB60F928E
:105620002F938F939F93EF93FF93E0910006F09158
:1056300001068081E0910606F091070682FD1DC0FB
:105640009081809109068F5F8F7320910A068217DF
:1056500041F0E0910906F0E0E051FA4F958F809318
:105660000906FF91EF919F918F912F910F900BBEA3
:105670000F900FBE0F901F9018958081F2CFE0EF32
:10568000F5E01382128288EE93E0A0E0B0E084831C
:105690009583A683B78383E292E09183808385EC30
:1056A00090E09587848784EC90E09787868780ECEC
:1056B00090E0918B808B81EC90E0938B828B82ECDD
:1056C00090E0958B848B86EC90E0978B868B118E87
:1056D000128E138E148EEDE8F6E01382128220EF04
:1056E00030E03583248380E491E09783868331879B
:1056F000208793878287168A1586148617861686D2
:1057000081E0858B848B2FEF3FEF338B228B318BA6
:10571000208B878B108E128E118E85E392E0918301
:1057200080830895CF93DF9300D01F92CDB7DEB76B
:10573000789484B5826084BD84B5816084BD85B56C
:10574000826085BD85B5816085BD80916E00816078
:1057500080936E001092810080918100826080931E
:105760008100809181008160809381008091800020
:105770008160809380008091B10084608093B1004B
:105780008091B00081608093B00080919100826030
:10579000809391008091910081608093910080912D
:1057A00090008160809390008091A100826080933E
:1057B000A1008091A10081608093A1008091A00050
:1057C00081608093A00080912101826080932101FB
:1057D000809121018160809321018091200181606D
:1057E0008093200180917A00846080937A00809178
:1057F0007A00826080937A0080917A008160809341
:105800007A0080917A00806880937A001092C100BB
:10581000E0910006F091010682E08083E091FC05B2
:10582000F091FD051082E091FE05F091FF0580E109
:10583000808310920806E0910406F091050686E048
:105840008083E0910206F09103068081806180836D
:10585000E0910206F0910306808188608083E091E8
:105860000206F0910306808180688083E091020641
:10587000F091030680818F7D808382E59EE00E9407
:105880003E21F7EEAF2EFEE0BF2EF5012491A1EAF6
:105890008A2EAEE09A2EF40184918823C9F090E01C
:1058A000880F991FFC01E75EF94FA591B491FC01A7
:1058B000E150FA4F459154919FB7F8943C91822F53
:1058C000809583238C93FA018081282B20839FBFAE
:1058D00060E090E080E00E9492107C018830F4E566
:1058E0009F0769F1803224E5920749F18938994888
:1058F00009F45EC160E087E690E00E949210873470
:10590000974409F45AC18FEE90E00E94A1117B01E7
:1059100067327349A1F081EA90E00E94821103E6A8
:10592000E02E09E1F02E613081E6780741F06F3F0B
:10593000760709F062C076E2E72E75E1F72E85E47E
:105940009EE00E94AC0DB70190E080E040E10E9433
:105950004E216CE672E080EF95E00E942F21C70196
:1059600001978E3F9F4F60F434E0E316F30641F059
:1059700043EDE416F40621F053EDE516F10441F48D
:105980008AE19EE00E943E2171E8E72E74E9F72E3D
:105990000E9463101092A9061092A806F092AD061C
:1059A000E092AC0681E3E81680E8F80609F4DCC56D
:1059B00008F0E3C1A3E5EA16A0E2FA0609F42AC654
:1059C00008F06CC1F1E1EF16F5E1FF0609F4BFC282
:1059D00008F01EC139E9E316F10409F4D4C508F052
:1059E00000C180E091E151E0E516F10409F407C13E
:1059F0001092920610929106A7C26115AFEF7A0736
:105A000029F460E2E62E65E1F62E99CF11EAE12E47
:105A100015E0F12E6115704F09F491CF8FEB90E0F6
:105A20000E94A1117B016735F3E87F0709F487CF56
:105A3000613824E9720709F482CF613135E17307D7
:105A400009F47DCF603245E17407D9F266327541C1
:105A500009F471CF81E8E81685E1F80609F46FCF03
:105A6000E11494E1F90609F4ADC084ED90E00E94E0
:105A700082117B016031734509F461CF87ED90E0BD
:105A80000E9482117B016133704809F458CF8EEF78
:105A900090E00E948211672F782F892F99277B0130
:105AA0006335704209F44BCF84E090E00E9482118C
:105AB0007B01833E31F4672B59F5E12CA3EEFA2EDE
:105AC0003ECF811125C06115704811F58091080203
:105AD00090910902A0910A0289839A83AB83AE0157
