:100000000C9491080C94BB080C94BB080C94BB088E
:100010000C94BB080C94BB080C94BB080C94BB0854
:100020000C94BB080C94BB080C94BB080C94BB0844
:100030000C94BB080C94BB080C94BB080C94BB0834
:100040000C94BB080C94BB080C94BB080C94BB0824
:100050000C94BB080C94BB080C94BB080C94942122
:100060000C94BB080C9408220C94DE210C94BB0861
:100070000C94BB080C94BB080C94BB080C94BB08F4
:100080000C94BB080C94BB080C94BB080C94BB08E4
:100090000C94BB080C94BB080C94BB080C94BB08D4
:1000A0000C94BB080C94BB080C94BB080C94BB08C4
:1000B0000C94BB080C94BB080C94BB080C94BB08B4
:1000C0000C94BB080C94BB080C94BB080C94BB08A4
:1000D0000C94BB080C94BB080C94BB080C94BB0894
:1000E0000C94BB08617474656E74696F6E204F4622
:1000F0004600617474656E74696F6E204F4E000027
:10010000000000003E5B4F5B3E3E6B4F6B3E1C3E73
:100110007C3E1C183C7E3C181C577D571C1C5E7F87
:100120005E1C00183C1800FFE7C3E7FF0018241806
:1001300000FFE7DBE7FF30483A060E26297929263B
:10014000407F050507407F05253F5A3CE73C5A7F25
:100150003E1C1C08081C1C3E7F14227F22145F5F7B
:10016000005F5F06097F017F006689956A606060B5
:10017000606094A2FFA29408047E040810207E20F0
:100180001008082A1C08081C2A08081E1010101045
:100190000C1E0C1E0C30383E3830060E3E0E06008B
:1001A0000000000000005F00000007000700147F4F
:1001B000147F14242A7F2A122313086462364956B6
:1001C00020500008070300001C2241000041221CAF
:1001D000002A1C7F1C2A08083E0808008070300096
:1001E0000808080808000060600020100804023EAB
:1001F0005149453E00427F400072494949462141EC
:10020000494D331814127F1027454545393C4A495A
:100210004931412111090736494949364649492999
:100220001E000014000000403400000008142241A9
:100230001414141414004122140802015909063E32
:10024000415D594E7C1211127C7F494949363E412D
:100250004141227F4141413E7F494949417F09094E
:1002600009013E414151737F0808087F00417F41E9
:10027000002040413F017F081422417F4040404020
:100280007F021C027F7F0408107F3E4141413E7F78
:10029000090909063E4151215E7F0919294626496F
:1002A00049493203017F01033F4040403F1F204046
:1002B000201F3F4038403F63140814630304780450
:1002C000036159494D43007F414141020408102018
:1002D000004141417F04020102044040404040008F
:1002E0000307080020545478407F28444438384499
:1002F000444428384444287F385454541800087E15
:10030000090218A4A49C787F0804047800447D4066
:10031000002040403D007F1028440000417F400005
:100320007C047804787C080404783844444438FC1D
:100330001824241818242418FC7C080404084854A1
:1003400054542404043F44243C4040207C1C20405E
:10035000201C3C4030403C44281028444C90909055
:100360007C4464544C44000836410000007700008F
:10037000004136080002010204023C2623263C1EEE
:10038000A1A161123A4040207A3854545559215560
:10039000557941225454784221555478402054557F
:1003A00079400C1E527212395555555939545454CE
:1003B0005939555454580000457C410002457D424E
:1003C0000001457C407D1211127DF0282528F07C2B
:1003D000545545002054547C547C0A097F493249C5
:1003E0004949323A4444443A324A4848303A414111
:1003F000217A3A42402078009DA0A07D3D424242B1
:100400003D3D4040403D3C24FF2424487E49436616
:100410002B2FFC2F2BFF0929F620C0887E090320F3
:10042000545479410000447D413048484A323840B4
:1004300040227A007A0A0A727D0D19317D26292917
:100440002F28262929292630484D40203808080819
:100450000808080808382F10C8ACBA2F102834FA3A
:1004600000007B000008142A142222142A140855C4
:1004700000550055AA55AA55AAFF55FF55FF000083
:1004800000FF00101010FF00141414FF001010FFE4
:1004900000FF1010F010F0141414FC001414F700F6
:1004A000FF0000FF00FF1414F404FC141417101FC5
:1004B00010101F101F1414141F00101010F0000053
:1004C00000001F101010101F10101010F01000006E
:1004D00000FF101010101010101010FF100000007E
:1004E000FF140000FF00FF00001F10170000FC04B5
:1004F000F414141710171414F404F40000FF00F798
:1005000014141414141414F700F7141414171410FA
:10051000101F101F141414F4141010F010F0000029
:100520001F101F0000001F14000000FC140000F04A
:1005300010F01010FF10FF141414FF141010101FEF
:1005400000000000F010FFFFFFFFFFF0F0F0F0F000
:10055000FFFFFF0000000000FFFF0F0F0F0F0F381D
:1005600044443844FC4A4A4A347E02020606027E6B
:10057000027E0263554941633844443C04407E2076
:100580001E2006027E020299A5E7A5991C2A492A87
:100590001C4C7201724C304A4D4D30304878483016
:1005A000BC625A463D3E494949007E0101017E2A0E
:1005B0002A2A2A2A44445F444440514A4440404441
:1005C0004A51400000FF0103E080FF000008086B73
:1005D0006B083612362436060F090F06000018186D
:1005E0000000001010003040FF0101001F01011E3B
:1005F00000191D1712003C3C3C3C000000000000AC
:10060000002200250028002B002E003100340002BB
:10061000010000050108010B010000210024002752
:10062000002A002D00300033000101000004010702
:10063000010A0111007F96290001007F9628003AE7
:1006400001557F013F002C200070616E656C2072A7
:10065000656164792C206472697665722030780057
:1006600053657420464F5243455F445249564552A4
:100670005F494420696E20706C6174666F726D69A9
:100680006F2E696E69202D2074727920307838338E
:1006900035372C203078393438312C2030783934C3
:1006A00038362E00206973206E6F74207375707059
:1006B0006F727465643B2070616E656C2077617346
:1006C000206E6576657220696E697469616C697304
:1006D00065642E004552524F523A20647269766525
:1006E0007220307800666F7263696E672064726989
:1006F00076657220307800726561644944202D3E31
:1007000020307800636C617564652D757361676571
:100710002D6D65746572206669726D7761726520F2
:1007200076312E302E3000000020002300260029D4
:10073000002C002F00320000010000030106010917
:100740000105050505070508080808020202020A56
:100750000A08080404040401010101010101010364
:1007600003030303030303040707070C0C0C0C0C1F
:100770000C0C0C0202020206060606060606060B12
:100780000B0B0B0B0B0B0B01021020200808102089
:10079000401020408002010201080402010102040D
:1007A00008102040808040201008040201800402CC
:1007B0000180402010080402010804020101020423
:1007C0000810204080010204081020408000000A28
:1007D0000B02090C0D0E08070304010000000000C5
:1007E0000000000000000000000000000000000009
:1007F00000000000000000000012111000000000C6
:1008000000000000000000000000000000000000E8
:100810000000003F003F00000000000FE00000006B
:100820000000000000000000000000001FF80000B1
:10083000000000000000000000000000003FFC007D
:1008400000000180000000000000000000003FFCEC
:1008500000000007E0000000000000000000007F32
:10086000FE0000000FF0000000000000000000008B
:10087000FFFE0000001FF00000000000000000006C
:1008800000FFFF0000001FF8000000000000000053
:100890000001FFFF0000003FFC000000000000001E
:1008A000000000FFFF8000003FFC0000000000008F
:1008B00000000000FFFF8000007FF8000000000043
:1008C0000000000000FFFF8000007FF80000000033
:1008D000000000000000FFFFC000007FF8000000E3
:1008E000000000000000007FFFC000007FF8000053
:1008F00000000000000000007FFFE000007FF80023
:100900000000000000000000007FFFE000007FF812
:10091000000000000000000000003FFFF00000FFAA
:10092000F800001FC00000000000001FFFF00000E2
:100930007FF000003FE00000000000001FFFF80013
:1009400000FFF000007FE00000000000000FFFF853
:100950000000FFF00000FFF00000000000000FFFAB
:10096000F80000FFF00001FFF800000000000007A1
:10097000FFFC0000FFF00003FFF800000000000093
:1009800003FFFC0000FFF00007FFFC000000000078
:100990000003FFFE0000FFE0000FFFFC000000006E
:1009A000000001FFFE0000FFE0001FFFF800000054
:1009B00000000001FFFF0000FFE0003FFFF8000023
:1009C0000002800000FFFF0000FFE0007FFFF80052
:1009D000000007F80000FFFF8000FFE000FFFFF8C5
:1009E0000000000FFC00007FFF8001FFC000FFFF40
:1009F000F00000001FFF00003FFFC001FFC001FF2B
:100A0000FFF00000001FFF80003FFFC001FFC00398
:100A1000FFFFE00000003FFFC0001FFFE001FFC03C
:100A200007FFFFC00000001FFFE0001FFFE001FF05
:100A3000800FFFFFC00000001FFFF8000FFFF00154
:100A4000FF800FFFFF800000001FFFFC000FFFF082
:100A500001FF801FFFFF000000001FFFFE0007FFD7
:100A6000F801FF803FFFFE000000001FFFFF800332
:100A7000FFF801FF807FFFFC000000000FFFFFC0B8
:100A800003FFFC03FF00FFFFFC0000000007FFFF67
:100A9000E001FFFC03FF00FFFFF80000000003FF80
:100AA000FFF801FFFE03FF01FFFFF000000000015F
:100AB000FFFFFC00FFFE03FF03FFFFE0000000005C
:100AC000007FFFFE00FFFF03FF07FFFFE0000000C5
:100AD00000003FFFFF807FFF03FE0FFFFFC000000D
:100AE0000000000FFFFFC07FFF83FE0FFFFF8000AD
:100AF0000000000007FFFFE03FFFC3FE1FFFFF00F5
:100B0000000000000001FFFFF83FFFC3FE3FFFFEB3
:100B100000000000000000FFFFFC1FFFE3FE7FFF5E
:100B2000FE000000000000007FFFFE1FFFE3FE7FCD
:100B3000FFFC000000000000001FFFFF0FFFE7FCAC
:100B4000FFFFF8000000000000000FFFFFC7FFF7E5
:100B5000FFFFFFF00000000000000003FFFFE7FFC1
:100B6000F7FFFFFFF00000000000000001FFFFFFA3
:100B7000FFF7FFFFFFE000000000000000007FFF24
:100B8000FFFFF7FFFFFFC000000000000000003F74
:100B9000FFFFFFFFFFFFFFC000000000000000009C
:100BA0000FFFFFFFFFFFFFFF8000000000000000BD
:100BB0000007FFFFFFFFFFFFFF0000001FF800001E
:100BC000000001FFFFFFFFFFFFFF000003FFFE002B
:100BD00000000000FFFFFFFFFFFFFE0000FFFFFE21
:100BE00000000000003FFFFFFFFFFFFE001FFFFFB0
:100BF000FE00000000001FFFFFFFFFFFFC03FFFFE0
:100C0000FFFE000000000007FFFFFFFFFFFC3FFFAB
:100C1000FFFFFE000000000003FFFFFFFFFFFFFFDC
:100C2000FFFFFFFC000000000000FFFFFFFFFFFFD1
:100C3000FFFFFFFFFC0000000000007FFFFFFFFF41
:100C4000FFFFFFFFFFF83FF4000000001FFFFFFF62
:100C5000FFFFFFFFFFFFC0FFFFFFFC00000FFFFFD4
:100C6000FFFFFFFFFFFFF800FFFFFFFFFFC003FFD5
:100C7000FFFFFFFFFFFFFF8000FFFFFFFFFFFFC33E
:100C8000FFFFFFFFFFFFFFF00000FFFFFFFFFFFF81
:100C9000FFFFFFFFFFFFFFFF0000007FFFFFFFFFE1
:100CA000FFFFFFFFFFFFFFFFE00000003FFFFFFF30
:100CB000FFFFFFFFFFFFFFFFFE000000001FFFFF21
:100CC000FFFFFFFFFFFFFFFFFFC00000000000FF6E
:100CD000FFFFFFFFFFFFFFFFFFFC00000000000021
:100CE0000000BFFFFFFFFFFFFFFFC000000000008C
:100CF0000000000000003FFFFFFFFFFF400000007A
:100D00000000000000000003FFFFFFFFFFFFFFFDEA
:100D1000000000000000000007FFFFFFFFFFFFFFD3
:100D2000FFFF800000000000000FFFFFFFFFFFFF3C
:100D3000FFFFFFE00000000000003FFFFFFFFFFF9C
:100D4000FFFFFFFFF0000000000000FFFFFFFFFFBC
:100D5000FFFFFFFFFFFC000000000003FFFFFFFF9D
:100D6000FF87FFFFFFFFFC00000000000FFFFFFFF9
:100D7000FFFFC07FFFFFFFFE00000000003FFFFFFE
:100D8000FFFFFFE007FFFFFFFF00000000007FFF05
:100D9000CFFFFFFFF0007FFFFFFF0000000001FF1B
:100DA000FF9FFFFFFFF80007FFFFFF0000000007A5
:100DB000FFFE3FFFFFFFFC00007FFFFE0000000082
:100DC0001FFFFC7FFFFFFFFE000003FFFC00000091
:100DD000003FFFF0FFFFFFFFFF8000003FE000004B
:100DE0000000FFFFE1FFDFFFFFFFC0000003C000C6
:100DF000000003FFFF81FF9FFFFFFFE000000000F6
:100E00000000000FFFFF03FF9FFFFFFFF000000047
:100E1000000000001FFFFC07FF1FFFFFFFF800009E
:100E200000000000007FFFF80FFE3FDFFFFFFC0027
:100E3000000000000000FFFFE01FFC3FCFFFBFFEEF
:100E400000000000000003FFFFC01FFC3FCFFFCFEA
:100E5000FF00000000000007FFFF003FF83FC7FF52
:100E6000C7FF8000000000001FFFFE007FF03FC3AF
:100E7000FFE3FFC000000000003FFFF800FFF03F6D
:100E8000C3FFF1FFF00000000000FFFFE000FFE003
:100E90007FC1FFF0FFF80000000001FFFFC001FF6D
:100EA000C07FC1FFF83FFC0000000001FFFF00030E
:100EB000FF807F80FFFC1FFE0000000003FFFE009C
:100EC00007FF807FC0FFFC0FFF0000000003FFF85A
:100ED0000007FF007F807FFE07FF8000000003FF08
:100EE000F0000FFE007F803FFF03FFC00000000303
:100EF000FFC0001FFE00FF803FFF01FFE000000079
:100F000001FF80003FFC00FF801FFF807FF000009A
:100F10000000FC00007FF800FF800FFFC03FF800DA
:100F20000000000000007FF000FF800FFFC01FFCEA
:100F300000000000000000FFF000FF8007FFE00F4E
:100F4000FF00000000000001FFE001FF8003FFF050
:100F500003FF80000000000003FFC001FF8003FFCB
:100F6000F001FF80000000000003FF8001FF80010E
:100F7000FFF8007F80000000000007FF8001FF00F5
:100F800000FFFC003FC000000000000FFF0001FF59
:100F90000000FFFC001FC000000000001FFE000357
:100FA000FF00007FFE000F8000000000003FFC00FB
:100FB00003FF00003FFF00030000000000003FFCB3
:100FC0000003FF00003FFF00000000000000007F62
:100FD000F80003FF00001FFF800000000000000079
:100FE000FFF00003FF00000FFF8000000000000082
:100FF00001FFE00007FF000007FF80000000000085
:101000000001FFC00007FF000007FF800000000094
:10101000000003FF800007FE000003FF80000000C7
:1010200000000003FF000007FE000001FFC00000F9
:101030000000000003FE000007FE000001FF80002A
:10104000000000000003FC00000FFE000000FF8015
:1010500000000000000001F800000FFE0000007F0B
:1010600000000000000000006000000FFE00000013
:101070001C00000000000000000000000FFE000047
:10108000000000000000000000000000001FFE0043
:1010900000000000000000000000000000001FFE33
:1010A0000000000000000000000000000000001F21
:1010B000FE00000000000000000000000000000032
:1010C0000FFE000000000000000000000000000013
:1010D000000FFE0000000000000000000000000003
:1010E000000007FC000000000000000000000000FD
:1010F00000000007F80000000000000000000000F1
:101100000000000001F000000000000000000000EE
:10111000000000000000C00000000000000000000F
:101120003E2211241FBECFEFD1E2DEBFCDBF26E0AD
:10113000AAECB3E001C01D92A33CB207E1F713E0B3
:10114000A0E0B2E0EAE7FAE500E00BBF02C00790DA
:101150000D92AA3CB107D9F718E0C1E9D8E004C064
:101160002197FE010E94FE29C039D107C9F70E94CC
:1011700091220C943B2D0C94000008953FB7F894F5
:101180008091EA059091EB05A091EC05B091ED05F9
:1011900026B5A89B05C02F3F19F00196A11DB11DD2
:1011A0003FBFBA2FA92F982F8827BC01CD01620F0E
:1011B000711D811D911D42E0660F771F881F991FC9
:1011C0004A95D1F708958F929F92AF92BF92CF9296
:1011D000DF92EF92FF926B017C010E94BE084B01EF
:1011E0005C01C114D104E104F104B9F00E94BE080D
:1011F000681979098A099B09683E73408105910540
:1012000080F321E0C21AD108E108F10888EE880EC7
:1012100083E0981EA11CB11CE4CFFF90EF90DF90FB
:10122000CF90BF90AF909F908F9008952FB7F89474
:101230006091E6057091E7058091E8059091E905D8
:101240002FBF0895AF92BF92CF92DF92EF92FF929D
:101250000F931F93CF93DF936C017B018B01040FDE
:10126000151FEB015E01AE18BF08C017D10759F07A
:101270006991D601ED91FC910190F081E02DC601BC
:101280000995892B79F7C501DF91CF911F910F91B6
:10129000FF90EF90DF90CF90BF90AF900895FC014A
:1012A000538D448D252F30E0842F90E0821B930BCB
:1012B000541710F0CF96089501970895FC01918D71
:1012C000828D981761F0A28DAE0FBF2FB11D5D9674
:1012D0008C91928D9F5F9F73928F90E008958FEF16
:1012E0009FEF0895FC01918D828D981731F0828DCA
:1012F000E80FF11D858D90E008958FEF9FEF089521
:10130000FC01918D228D892F90E0805C9F4F821B84
:1013100091098F73992708958FEE95E00E948009B7
:1013200021E0892B09F420E0822F0895FC01A48D8F
:10133000A80FB92FB11DA35ABF4F2C91848D90E0F7
:1013400001968F739927848FA689B7892C93A089DA
:10135000B1898C91837080648C93938D848D981364
:1013600006C00288F389E02D80818F7D80830895F7
:10137000EF92FF920F931F93CF93DF93EC0181E0E5
:10138000888F9B8D8C8D98131AC0E889F98980818C
:1013900085FF15C09FB7F894EE89FF896083E889BF
:1013A000F98980818370806480839FBF81E090E0B1
:1013B000DF91CF911F910F91FF90EF900895F62E3E
:1013C0000B8D10E00F5F1F4F0F731127E02E8C8DD8
:1013D0008E110CC00FB607FCFACFE889F98980811D
:1013E00085FFF5CFCE010E949609F1CFEB8DEC0F72
:1013F000FD2FF11DE35AFF4FF0829FB7F8940B8F3A
:10140000EA89FB8980818062CFCF0F931F93CF93AE
:10141000DF938C01D0E0C0E0F801EC0FFD1F649178
:10142000662341F08FEE95E00E94B809892B11F0F8
:101430002196F2CFCE01DF91CF911F910F910895A8
:10144000CF93DF93EC01888D8823B9F0AA89BB89FB
:10145000E889F9898C9185FD03C0808186FD0DC0E6
:101460000FB607FCF7CF8C9185FFF2CF808185FF07
:10147000EDCFCE010E949609E9CFDF91CF9108957B
:1014800080E090E0892B29F00E948C0981110E9454
:10149000000080E090E0892B49F080E090E0892B0B
:1014A00029F00E94000081110E94000080E090E07D
:1014B000892B49F080E090E0892B29F00E94000000
:1014C00081110E94000080E090E0892B49F080E0CB
:1014D00090E0892B29F00E94000081110C940000FB
:1014E00008950F931F93CF93DF93EC018B01FE01BF
:1014F00084913196649122968F3799F470E090E050
:1015000080E00E94E30860E0E62FF0E032960E1BD8
:101510001F0B101611065CF3DF91CF911F910F91F5
:101520000895A1985F9812B888B9A298A298A29A33
:1015300090E080E0861760F4FE01E80FF91FE49167
:101540005F9A12B8E8B9A298A298A29A0196F2CF2F
:10155000C60FD11DA19AD8CFA1985F9892B988B92A
:10156000A298A298A29A5F9AFA01615038F08191EC
:1015700012B888B9A298A298A29AF7CFA19A089512
:10158000A1985F9892B988B9A298A298A29A5F9AF6
:1015900072B968B9A298A298A29AA19A089581E016
:1015A0008093EE058FEF87B981B9EAE0F1E08081A1
:1015B000806480839A9A579A999A989AA19AEBE0B4
:1015C000F1E0808180648083A29AA09A62E370E057
:1015D00080E090E00E94E308A09864E670E080E07C
:1015E00090E00E94E308A09A64E670E080E090E05A
:1015F0000E94E30870E060E080EB90E00C94C00A89
:101600001F93CF93DF93C82F162F8091EE05811182
:1016100002C00E94CF0AA1985F9812B8C8B9A298D8
:10162000A298A29A5F9A17B811B861E070E080E0C2
:1016300090E00E94E30880910B01806480930B018D
:1016400080910B018F7B80930B0180910B018F7B2D
:1016500080930B0180910B018F7B80930B01C0B1B4
:1016600086B1DC2FC82F80910B01806480930B0121
:10167000CF3FD10509F020F561E070E080E090E017
:101680000E94E30880910B01806480930B0180919C
:101690000B018F7B80930B0180910B018F7B8093DB
:1016A0000B0180910B018F7B80930B0180B196B170
:1016B00080910B01806480930B01292F3C2FE9015D
:1016C000115008F0B8CF80910B01806480930B011A
:1016D000A19A17B911B9CE01DF91CF911F91089549
:1016E0000F931F93CF93DF938C0160E00E94000B58
:1016F000EC0161E0C8010E94000B8C01BE0190E08A
:1017000080E0CB017727662730E020E0602B712B4B
:10171000822B932BDF91CF911F910F910895FF9210
:101720000F931F93CF93DF938C0160E00E94000B17
:10173000EC0161E0C8010E94000BF82E62E0C801D4
:101740000E94000BAE0170E060E0742F6627552701
:10175000442700E030E020E0402B5F29622B732B10
:10176000292F30E0C901B0E0A0E08A019B01082BDD
:10177000192B2A2B3B2BC901B801DF91CF911F9167
:101780000F91FF9008950F931F93CF93DF93EC0178
:101790008B01FE0185919491FE013296249665910C
:1017A00074918F3F980771F490E080E00E94E30805
:1017B000045011091016110664F3DF91CF911F91A7
:1017C0000F9108950E94C00AF3CFFC01262F358D9A
:1017D000868D82958170982F9627692F70E072A36D
:1017E00061A330FF0CC0821307C080E290E050E09C
:1017F00040E060E00C94AC0A81E290E0F8CF878D85
:1018000090A1833927E7920741F058F4843521E00D
:10181000920791F080329445C1F4626081E094E0D7
:1018200012C0863223E99207C1F3893025EB920773
:10183000A1F38532924949F4660F771F660F771F2F
:10184000636187E090E00C94C00A81E690E0FBCFF2
:101850008F929F92AF92BF92CF92DF92EF92FF92C0
:101860000F931F93CF93DF9300D000D0CDB7DEB797
:101870007C014B015A016901FC01878D90A18632E0
:10188000954151F4F701868980FF06C0C801841B89
:10189000950B81F50F5F1F4FF701858D80FF31C0DC
:1018A00085A599828A82DB82CC82AE014F5F5F4F31
:1018B00064E090E00E94AC0AF70181A9B982AA8293
:1018C0001B830C83AE014F5F5F4F64E090E00E948A
:1018D000AC0A0F900F900F900F90DF91CF911F9156
:1018E0000F91FF90EF90DF90CF90BF90AF909F90BF
:1018F0008F9008952617370779F6C80ED91E8A01EA
:10190000CBCFB40187A190A50E94C00AB501F70111
:1019100081A592A50E94C00AC814D90419F40A1519
:101920001B05B9F2F701858D85FF08C0868980FF08
:101930001EC0102F0027A02AB12A8501B401F7018B
:1019400085A596A50E94C00AB501F70181A992A9B3
:101950000E94C00AB601F70187A590A90E94C00A9B
:10196000B801F70183A994A90E94C00AB2CFDC2C68
:10197000CC248C289D286401E1CFAF92BF92CF92F6
:10198000DF92EF92FF920F931F93CF93DF93EC01BF
:1019900080917F04882349F0C701880F991F8E73B7
:1019A0009927E1ECEE22E82AF92A37FF05C0620FF9
:1019B000731F319521953109260F371F77FF02C01C
:1019C00070E060E088859985281739070CF4C90113
:1019D0006C01C61AD70A17FF05C0400F511F119599
:1019E00001951109040F151F57FF02C050E040E098
:1019F0002A853B85021713070CF498015901A41A94
:101A0000B50A8901015011099C0121503109CE010B
:101A10000E94280CA1985F988CA582B98BA588B9E3
:101A2000A298A298A29A5F9ACA14DB042CF09A2D6D
:101A30008B2D5601C92ED82E3F2DC50123E095953B
:101A400087952A95E1F71C141D045CF532B9E8B8B6
:101A50009A2D97708823D9F0282FA298A298A29A3D
:101A6000A298A298A29AA298A298A29AA298A298A2
:101A7000A29AA298A298A29AA298A298A29AA29890
:101A8000A298A29AA298A298A29A215031F79150B6
:101A900020F421E0C21AD108D6CFA298A298A29A27
:101AA000F6CFA19A8D8D80FF08C08F8D98A18632C8
:101AB000954191F48E8980FF0FC00A851B850150E6
:101AC0001109288539852150310950E040E070E046
:101AD00060E0CE010E94280CDF91CF911F910F9101
:101AE000FF90EF90DF90CF90BF90AF900895EF926E
:101AF000FF920F931F93CF93DF937C01E90177FD52
:101B00002AC057FD28C0FC01808591856817790798
:101B100014F58285938548175907ECF480917F046A
:101B2000882341F0C901880F991F8E739927C17CC2
:101B3000C82BD92B8A019B01C7010E94280CBE012A
:101B4000F70183A594A5DF91CF911F910F91FF908D
:101B5000EF900C94C00ADF91CF911F910F91FF90ED
:101B6000EF900895EF92FF920F931F93CF93DF931F
:101B7000CDB7DEB72A970FB6F894DEBF0FBECDBF44
:101B80007C01862F8370F701868B962F917060FF02
:101B9000E3C026813781F70131872087992309F433
:101BA000DEC024813581F70133872287823009F432
:101BB000DBC0833009F4DAC0813009F4D3C088E493
:101BC0008A87F701858D968D90FF03C02A8520585E
:101BD0002A8791FF04C02A8530E423272A8793FFB0
:101BE00004C02A8538E023272A87F701278D30A1F2
:101BF00080FF00C12431F8E63F0709F0B9C09A859B
:101C0000892F88728A871F82892F85958074282F53
:101C10002260892F90E09595879580729927822B75
:101C200088878BE38987AE01495F5F4F63E086EB6E
:101C300090E00E94AC0A2AE230E0F70130A727A327
:101C40008BE290E092A781A74CE250E054A743A713
:101C500036A725A730AB27A792AB81AB94AB83AB5C
:101C6000AE01465F5F4F61E086E390E00E94AC0A00
:101C70008A8590E0F70194A383A3F701868980FF0A
:101C80001CC0858D968D92FD18C087A190A521A5B9
:101C900032A530A727A392A781A785A596A521A93C
:101CA00032A936A725A792AB81AB87A590A923A916
:101CB00034A930AB27A794AB83ABF701028513851A
:101CC00001501109208531852150310950E040E053
:101CD00070E060E0C7010E94280CF70166817781FF
:101CE000878D90A120E08732F3E99F0709F420E275
:101CF000F701358D30FF39C119821A827B836C83DD
:101D00001D822E83AE014F5F5F4F66E083E390E05C
:101D10000E94AC0A19821A82AE014F5F5F4F62E0E7
:101D200087E390E00E94AC0AF701858D80FF07C031
:101D300050E040E060E083E190E00E94AC0A2A9627
:101D40000FB6F894DEBF0FBECDBFDF91CF911F91CC
:101D50000F91FF90EF900895248135811CCF26814B
:101D6000378121CF88E22CCF88E92ACF88EF28CF8E
:101D7000273243E9340789F41F8281E388878A8503
:101D8000859585958595859588708987AE01495F8C
:101D90005F4F63E080EC90E04CCF233689E1380759
:101DA00049F02138E4E93E0729F02131F5E13F0708
:101DB00009F041CF8A8587FF02C081608A878A85C2
:101DC00086FF02C082608A878A858F73233649E145
:101DD000340731F0213884E9380721F48A858F727D
:101DE0008A8729CF2131354109F025CF8A858F7E19
:101DF000806CF6CF6A85862F062E000C990B23394E
:101E0000F7E73F0751F0A8F52435E1E03E0709F474
:101E10005CC02032F4E53F07A1F540E052E0F70155
:101E200050A747A341E052E052A741A742E052E049
:101E300054A743A740E152E056A745A741E152E02D
:101E400050AB47A742E152E052AB41AB43E152E015
:101E500054AB43AB882790782632F3E93F0721F053
:101E60002032344509F071C067FD846060E071E3A1
:101E70006EC0263243E9340781F22930E5EB3E0794
:101E800061F220E230E0F70130A727A321E230E041
:101E900032A721A722E230E034A723A720E530E0D3
:101EA00036A725A721E530E030AB27A722E530E0B3
:101EB00032AB21AB23E530E034AB23ABBC0166276A
:101EC0007078776280E690E046C027E330E0F70163
:101ED00036A725A726E330E030AB27A729E330E07B
:101EE00032AB21AB28E330E034AB23AB20E230E06F
:101EF00030A727A321E230E032A721A722E230E079
:101F000034A723A7F4E06F9FB001112466277170F6
:101F1000882792708862682B792B81E090E00E947C
:101F2000C00A8A85682F70E07595679575956795E5
:101F30006870772783FD70616063F70174A363A302
:101F400083E090E00E94C00A98CE60E072E6682BC1
:101F5000792B80E094E00E94C00A6A85F4E06F9FCC
:101F6000B001112466277170D8CF8339F7E79F0736
:101F7000D9F1F0F4803244E59407B1F18338E7E712
:101F80009E0731F184359140F1F46150710981E38C
:101F900090E00E94C00A70E060E082E390E00E945E
:101FA000C00A70E060E083E390E00E94C00AC7CE00
:101FB000863223E99207C1F0893045EB9407A1F0FE
:101FC0008532924911F3F70161A172A1626003C0E9
:101FD000F70161A172A181E690E00E94C00A70E061
:101FE00060E08AE690E0E1CFF70161A172A1626052
:101FF00081E094E00E94C00A70E060E084E094E038
:10200000D4CF0895FC016370668B8481958126810D
:102010003781613039F0633029F0918780873387C9
:1020200022870895318720879387828708952F928A
:102030003F924F925F926F927F928F929F92AF9258
:10204000BF92CF92DF92EF92FF920F931F93CF93A5
:10205000DF93CDB7DEB76A970FB6F894DEBF0FBE39
:10206000CDBF9A8F898F7A8369834A01D22E1887D0
:102070000F833701BC2CDC0159962D913C915A9766
:102080002115310509F015C118968D919C9119976C
:10209000681779070CF0D7C11A968D919C91481753
:1020A00059070CF0D0C14C2C512CB6E0CB9E600DE2
:1020B000711D11247C876B87161617060CF0C3C19F
:1020C000EA2DF0E0FA87E98793E0EE0FFF1F9A957B
:1020D000E1F7F88BEF87CF01840F951F18161906CB
:1020E0000CF0B1C1A98DBA8D58968C91811104C0A4
:1020F000BFEABD1508F4D394A98DBA8DED91FC917A
:1021000011970284F385E02DCD010995B5E0DB9EA2
:10211000C0011124E981FA81FC83EB83312C212C4D
:102120009C0121503F4F388F2F8B4A2D50E05E8B02
:102130004D8BEF89F88DE20DF31D44919E828D82C7
:10214000D12CC12C69817A81620D731D7A8B698BC8
:10215000842F90E09C8B8B8BE98DFA8DA081B181CF
:1021600040FF82C0F1E0BF126FC0AF126DC01C967D
:10217000ED91FC912F813885A4014C0D5D1D69897D
:102180007A89898D9A8D0995EB89FC89F595E79572
:102190004E2F5FEFC51AD50A6D817E818D899E898C
:1021A000680F791F7E836D8398E0C916D10481F68C
:1021B000AFEF2A1A3A0AEB81FC81E40DF51DFC838E
:1021C000EB83F5E02F16310409F0B3CF2F8138856A
:1021D00026153705B9F0A98DBA8DED91FC91B1E0C6
:1021E000BB1257C0AB1255C069817A816B5F7F4FBC
:1021F0000088F189E02D830128E030E0A401898D79
:102200009A8D0995A98DBA8DED91FC91119706884B
:10221000F789E02DCD016A960FB6F894DEBF0FBEA8
:10222000CDBFDF91CF911F910F91FF90EF90DF9085
:10223000CF90BF90AF909F908F907F906F905F9066
:102240004F903F902F9009941E96ED91FC91EF8056
:10225000F88409851A8592014D815E816B817C81AC
:10226000898D9A8D099590CF2F8138852615370550
:1022700009F48ACF31E0B31207C0A31205C01C963F
:10228000ED91FC91930178CF1E96ED91FC91730135
:10229000E0CF6B857C85641975090684F785E02D90
:1022A00073010F8518899201A401898D9A8D099572
:1022B000A9CFF90134969491329745915491D91A46
:1022C000B7E0DB9E400D511D1124F9012591349199
:1022D0003C8B2B8BFA0125903490FA013296749046
:1022E00031963491398B329664903196449041E026
:1022F0004C1518F04A1508F07FC0662D062C000C0E
:10230000770B7C836B83842D042C000C990B9E83AC
:102310008D83A98DBA8DED91FC9111970284F3857F
:10232000E02DCD010995512CD12CC12CEA2DF0E0E6
:10233000FA87E9872B2D30E03C872B87A401440DD9
:10234000511D47FC5A95588F4F8B69817A81660DD4
:10235000711D67FC7A957E876D877989C71608F0AD
:1023600051CF2C2D30E04D815E81420F531FA98546
:10237000BA854A9FC0014B9F900D5A9F900D112422
:10238000FC01E80DF91DF88BEF87852D612C4F8935
:10239000588D420F531F5E8B4D8B671408F050C051
:1023A00044244394480E877041F4C1010196EB899F
:1023B000FC89E20DF31DD4901C01D7FE19C0A98D34
:1023C000BA8DED91FC91662D70E0B1E0BB1219C0A1
:1023D000AB1217C02D853E85620F731F0484F585EF
:1023E000E02D2F8138854D895E89898D9A8D0995DB
:1023F000DD0C6394842DD1CF1E821D821C821B8232
:1024000088CF4B815C81640F751FAB85BC856A9F4B
:10241000C0016B9F900D7A9F900D112469817A8184
:10242000680F791F0684F785E02DEF80F884098511
:102430001A859D014F855889898D9A8D0995D8CF28
:10244000570CC3948ACF6A960FB6F894DEBF0FBEBE
:10245000CDBFDF91CF911F910F91FF90EF90DF9053
:10246000CF90BF90AF909F908F907F906F905F9034
:102470004F903F902F9008958F929F92AF92CF925E
:10248000EF92FF920F931F93CF93DF93EC01262FD0
:10249000898D9A8D009709F051C06A30D1F41D865C
:1024A0001C868D8948E0849F900111248E859F852C
:1024B000820F931F9F878E8781E090E0DF91CF91FD
:1024C0001F910F91FF90EF90CF90AF909F908F90C2
:1024D00008956D3089F3CC88AD888F898823C1F049
:1024E0008C859D8536E0C39E800D911D1124488505
:1024F00059854817590764F44E855F851D861C86EB
:1025000038E0A39EC0011124840F951F9F878E87FA
:10251000EA88FB88088919894E855F856C857D85E9
:10252000CE010E9417102C898C859D8546E0249F42
:10253000800D911D11249D878C87BECF6A3069F470
:102540001D861C86FC013896E4912D898E859F8519
:10255000E29F800D911D1124ADCF6D3009F4ACCFF9
:10256000FC0134963491631708F4A6CF3296E491B7
:10257000E61708F4A1CFFC01329685909490462F7F
:10258000431B342F47E0349F800C911C1124F4012D
:10259000329634913196E4913323A9F1EE2399F1E7
:1025A000CC88F4013596E491AD884F89442301F13C
:1025B0000E2E000CFF0BE30FF11DCE9EA001CF9E4F
:1025C000500D11246C857D85460F571F68857985D0
:1025D000641775076CF44E855F851D861C86FC01AB
:1025E0003896E491AE9E400D511D11245F874E87B1
:1025F000EA88FB88088919894E855F856C857D8509
:10260000CE010E941710F4013496E4912C898C8538
:102610009D85E29F800D911D11248DCF6F927F9239
:102620008F929F92AF92BF92CF92DF92EF92FF92E2
:102630000F931F93CF93DF93EC016B015A01390184
:102640004801E881F9810284F385E02D0995E8814C
:10265000F9810288F389E02D87019301A501B60174
:10266000CE010995A501480D591D41505109E88138
:10267000F9810288F389E02D9301B601CE01099515
:10268000E881F9810088F189E02D9401A501B60166
:10269000CE010995C60CD71CB60161507109E881BD
:1026A000F9810088F189E02D9401A501CE010995F9
:1026B000E881F9810688F789E02DCE01DF91CF917D
:1026C0001F910F91FF90EF90DF90CF90BF90AF9050
:1026D0009F908F907F906F9009946F927F928F92CE
:1026E0009F92AF92BF92CF92DF92EF92FF920F93A1
:1026F0001F93CF93DF935C01EB016A01490138011D
:102700008701DC01ED91FC916217730719F56416DE
:1027100075062CF0962D872D3A01C92ED82E9601DC
:10272000261937092F5F3F4F048CF58DE02DA3014B
:10273000BE01C5010995DF91CF911F910F91FF90C7
:10274000EF90DF90CF90BF90AF909F908F907F9051
:102750006F9008954615570591F42617370724F012
:10276000892D4B01C22FD82F9E01281939092F5FBF
:102770003F4F068CF78DE02DA601B401DACF02841D
:10278000F385E02D0995D501ED91FC910488F5893B
:10279000E02D83019401A601BE01C5010995D50173
:1027A000ED91FC910688F789E02DC501DF91CF916D
:1027B0001F910F91FF90EF90DF90CF90BF90AF905F
:1027C0009F908F907F906F900994EF92FF920F935C
:1027D0001F93DC011A960D911C911B9718962D9151
:1027E0003C911997ED91FC9100A0F1A1E02D7B01A6
:1027F00050E040E070E060E009951F910F91FF907C
:10280000EF9008954F925F926F927F928F929F9276
:10281000AF92BF92CF92DF92EF92FF920F931F93EE
:10282000CF93DF936C012B015A0139014801DC0180
:10283000ED91FC910284F385E02D0995E201640C91
:10284000751CD601ED91FC91C615D7055CF4008886
:10285000F189E02D87019401A501BE01C60109950A
:102860002196EFCF0688F789E02DC601DF91CF9141
:102870001F910F91FF90EF90DF90CF90BF90AF909E
:102880009F908F907F906F905F904F9009948F9260
:102890009F92AF92BF92CF92DF92EF92FF920F93EF
:1028A0001F93CF93DF93EC015B014A016901E8813B
:1028B000F9810284F385E02D099595012C0D3D1DCC
:1028C00021503109E881F9810488F589E02D7801EA
:1028D0008401A401B501CE010995E881F98106883A
:1028E000F789E02DCE01DF91CF911F910F91FF90DD
:1028F000EF90DF90CF90BF90AF909F908F90099412
:102900008F929F92AF92BF92CF92DF92EF92FF92FF
:102910000F931F93CF93DF93EC015B014A01690191
:102920007801E881F9810284F385E02D0995C80CCE
:10293000D91C860101501109E881F9810488F589C3
:10294000E02D9501A401B501CE010995E881F98139
:102950000688F789E02DCE01DF91CF911F910F916D
:10296000FF90EF90DF90CF90BF90AF909F908F90AF
:102970000994EF92FF920F931F93DC01ED91FC916C
:1029800000A0F1A1E02D09951F910F91FF90EF900C
:1029900008950F931F93DC01ED91FC91068CF78D48
:1029A000E02D09951F910F9108950F931F93DC015E
:1029B000ED91FC91048CF58DE02D09951F910F91FF
:1029C00008952F923F924F925F926F927F928F92D3
:1029D0009F92AF92BF92CF92DF92EF92FF920F93AE
:1029E0001F93CF93DF93CDB7DEB728970FB6F89438
:1029F000DEBF0FBECDBF3C017E836D8358874F8302
:102A000069019A01220F331F2F5F3F4FAB018F8166
:102A10009885481B590B8601B3018CE896E00E940B
:102A2000D51481E090E02C012F813885421A530A99
:102A3000C9019195819591099C01220F331F3C8317
:102A40002B832F80388481E090E09A838983F12C56
:102A5000E12C57FC0DC08F819885019798878F8353
:102A60002B813C812E5F3F4F3C832B83420E531EB4
:102A70003FEFE31AF30A89819A8102969A83898348
:102A8000480E591E2F8138852E153F050CF466C05F
:102A90004901880C991C3FEF831A930A860194011F
:102AA000AD80BE808F819885A81AB90AA501B301AF
:102AB0006E0D7F1D8CE896E00E94D5149401A5014F
:102AC000B3016E197F098CE896E00E94D5142F811E
:102AD00038852215330519F1AA24A394B12CAE1818
:102AE000BF088D819E81A80EB91EB301620D731DB2
:102AF000860189809A8092E0891A91089401A50143
:102B00008CE896E00E94D514B30162197309940110
:102B1000A5018CE896E00E94D5142F8038842F817F
:102B20003885E216F3060CF494CF28960FB6F89485
:102B3000DEBF0FBECDBFDF91CF911F910F91FF90F0
:102B4000EF90DF90CF90BF90AF909F908F907F904D
:102B50006F905F904F903F902F9008952F81388510
:102B60002215330509F0B8CFE0CFDC01ED91FC91DF
:102B70000084F185E02D09942F923F924F925F924D
:102B80006F927F928F929F92AF92BF92CF92DF927D
:102B9000EF92FF920F931F93CF93DF9300D000D05B
:102BA00000D0CDB7DEB73C016A013E832D83FC82A5
:102BB000EB825801A41AB50AB7FE03C0B194A194E0
:102BC000B1088D809E80861A970A97FE03C0919463
:102BD000819491088A149B045CF0902F812F0D81C1
:102BE0001E819D838E839C2D8D2D6B01692F782FE7
:102BF0000C151D055CF09D818E817E836D83692F90
:102C0000782F902F812F8601C92ED82E1601201AD9
:102C1000310A2B012D813E81421A530A57FE03C00F
:102C2000519441945108710137FE03C03FEFE31AFC
:102C3000F30AF594E7948D819E81861797075CF5DA
:102C4000A1E0B0E0BA83A983C016D1064CF1D3014C
:102C5000ED91FC910484F585E02D2B813C81A80148
:102C60006D817E818A149B041CF04D815E81B801C8
:102C7000C3010995E418F508F7FE0AC02D813E81CD
:102C800089819A81280F391F3E832D83E20CF31C22
:102C90000F5F1F4FD9CF2FEF3FEF3A832983D4CF58
:102CA00026960FB6F894DEBF0FBECDBFDF91CF9151
:102CB0001F910F91FF90EF90DF90CF90BF90AF905A
:102CC0009F908F907F906F905F904F903F902F904C
:102CD0000895089590E080E00895EF92FF920F9399
:102CE0001F93DC011A960D911C911B9718962D913C
:102CF0003C911997ED91FC9100A0F1A1E02D7B0191
:102D000050E040E070E060E009951F910F91FF9066
:102D1000EF900895EF92FF920F931F93DC01ED91D6
:102D2000FC9100A0F1A1E02D780101E010E00995EF
:102D30001F910F91FF90EF9008958F929F92AF9205
:102D4000BF92CF92DF92EF92FF920F931F93CF9398
:102D5000DF935C016B01F12CE12C90E8892E912C22
:102D60006FEF7FEFD0E0C0E0C838D10509F44CC068
:102D7000FE0183E0F595E7958A95E1F7EE0DFF1DDD
:102D8000E95EF74FE491CE0187709927940102C064
:102D9000359527958A95E2F7C901F0E0E223F923FA
:102DA000EF2B01F16F3F760709F4BE012196C93878
:102DB000D105D1F62FEFC21AD20A31E1E30EF11C90
:102DC00088E0E81689E0F80659F6DF91CF911F9167
:102DD0000F91FF90EF90DF90CF90BF90AF909F90BA
:102DE0008F9008956F3F760709F39E01261B370BDE
:102DF0006A0D7B1D0AEA1BEDA6018CE896E00E9495
:102E00008A166FEF7FEFD2CF6F3F760771F7D2CF81
:102E1000EF92FF920F931F93DC01ED91FC9100A0C4
:102E2000F1A1E02D7801890121E030E009951F91A1
:102E30000F91FF90EF9008952F923F924F925F92E3
:102E40006F927F928F929F92AF92BF92CF92DF92BA
:102E5000EF92FF920F931F93CF93DF9300D01F92B7
:102E6000CDB7DEB79B838A834B012A013901302E0F
:102E700019839E2D8F2D76012A2C292F382F253648
:102E8000310510F024E630E0D2010E94072A24E642
:102E900030E040E050E00E94DF2959018901222002
:102EA000A9F08301A4016A817B818CE896E00E94ED
:102EB000BD0C94E2E92E91E2F92E92012A193B0908
:102EC000A4016A817B816A0D7B1D1EC0232D39817F
:102ED0002536310510F024E630E0D2010E94072AA1
:102EE00024E630E040E050E00E94DF29201731075F
:102EF0000CF05CC0C501821B930B6A817B81620F61
:102F0000731F83019C01A4018CE896E00E94BD0C14
:102F10002BE430E0D2010E94072A24E630E040E0B2
:102F200050E00E94DF296A817B81620F731F8A81D2
:102F30009B81A80EB91EA616B70644F400E114E85A
:102F40009301A4018CE896E00E9408172AE530E07E
:102F5000D2010E94072A24E630E040E050E00E94BF
:102F6000DF296A817B81620F731FA616B70644F4BE
:102F700000E114E89301A4018CE896E00E94081790
:102F80000F900F900F90DF91CF911F910F91FF90B5
:102F9000EF90DF90CF90BF90AF909F908F907F90F9
:102FA0006F905F904F903F902F90089502171307F6
:102FB0003CF72A193B0984E2E82E81E2F82E8301CE
:102FC0007FCF482FE92F9B01603187E2780738F1E6
:102FD000CB0168EE73E00E949529CB016AE070E0B6
:102FE0000E9495299F938F93C90160E177E20E9427
:102FF00095297F936F938DE592E09F938F931F9216
:103000008AE08F93EF934F930E94572A8DB79EB714
:103010000A960FB6F8949EBF0FBE8DBF0895CB01E0
:103020006AE070E00E9495299F938F937F936F933E
:1030300085E692E09F938F931F928AE08F93EF93A0
:103040004F930E94572A8DB79EB70A960FB6F894F1
:103050009EBF0FBE8DBF08950E941D2AFB010190E7
:103060000020E9F73197AF01461B570BDC01ED91CA
:10307000FC910280F381E02D0994CF93DF930E94AD
:10308000050AEC016CE672E08FEE95E00E942E18C6
:103090008C0F9D1FDF91CF9108958F929F92AF92D9
:1030A000BF920F931F93CF93DF93CDB7DEB7A19756
:1030B0000FB6F894DEBF0FBECDBF19A2423008F4A0
:1030C0004AE08E010F5D1F4F842E912CB12CA12C54
:1030D000A50194010E94BD29E62FB901CA01EA3079
:1030E00004F5E05DD801EE938D01232B242B252BD5
:1030F00079F790E080E0109729F0BD018FEE95E020
:103100000E942E18A1960FB6F894DEBF0FBECDBF59
:10311000DF91CF911F910F91BF90AF909F908F90B3
:103120000895E95CDFCFCF92DF92EF92FF92CF93C9
:10313000DF936B017C016DE28FEE95E00E94B80990
:10314000EC0166277727CB016C197D098E099F0951
:103150004AE00E944D188C0F9D1FDF91CF91FF9088
:10316000EF90DF90CF9008950F931F9330939F06B9
:1031700020939E0630939D0620939C064093A006C4
:103180004093A106909399068093980670939B06AE
:1031900060939A060115110539F0B8018CE896E0A4
:1031A0001F910F910C942E181F910F910895CF929B
:1031B000DF92EF92FF920F931F93CF93DF93EC0177
:1031C0009B016A0182EAE82E80E1F82E0AE210E013
:1031D00042E051E0BE018CE896E00E94BD0C860101
:1031E00020E134E841E067E071E0CE0108960E94FA
:1031F000B418DF91CF911F910F91FF90EF90DF9066
:10320000CF900895AF92BF92CF92DF92EF92FF924C
:103210000F931F93CF93DF936A01E90108965C0136
:103220009B012051310982EAE82E80E1F82E00E16D
:1032300010E045E151E0B5018CE896E00E94BD0C3C
:1032400086019E0142E065E171E0C5010E94B4186B
:10325000DF91CF911F910F91FF90EF90DF90CF9072
:10326000BF90AF9008950F931F93CF93DF93F90111
:1032700001900020E9F73197E21BF30B76E07E9F87
:10328000E0017F9FD00D11246C9FD0016D9FB00D88
:103290001124E0EEF1E0EA1BFB0BF7FD319689010A
:1032A0009A01462FBC01CF01959587950E94B418CD
:1032B000DF91CF911F910F9108950F931F93F80104
:1032C00001900020E9F73197E01BF10B56E05E9F7B
:1032D000D0015F9FB00D11244A9FF0014B9FF00D6C
:1032E00011248E1B9F0B0E94B4181F910F910895FB
:1032F0002F923F924F925F926F927F928F929F9206
:10330000AF92BF92CF92DF92EF92FF920F931F93F3
:10331000CF93DF93CDB7DEB760970FB6F894DEBFDB
:103320000FBECDBF9C878B87488B0D87EE86CF86DF
:103330004B0129013C0124E0620E711CB12CCE012D
:1033400001961C019889B91609F495C0EF85E11121
:1033500019C0FD85BF16B0F4F4019785F201878589
:10336000981310C0F40120893189F2018089918974
:103370002817390739F4B201C4010E94382A892B71
:1033800009F46EC0F12CE12C00E110E020E730E000
:10339000A3016CE070E08CE896E00E94BD0C840113
:1033A0002FEF3FEF42E0B3018CE090E00E94B418B1
:1033B000F401E784F12CAA24A394CC24CA9485E0D8
:1033C000D82E10E000E020E130E04AEB50E0B301FD
:1033D00080E890E00E941C17F12CE12C00E110E045
:1033E00024E530E0A30162E471E08CE896E00E94FD
:1033F000BD0CF40160897189C1010E94E11781014E
:103400002FEF3FEF42E0B30186E991E00E945D19A2
:1034100000E110E026E330E0A3016EE971E08CE802
:1034200096E00E94BD0CF40187851F928F932FE6D2
:1034300032E03F932F931F929AE09F933F922F92F7
:103440000E94572A810120E134E842E0B30184ED73
:1034500091E00E945D190FB6F894DEBF0FBECDBF9C
:10346000B394F2E18F0E911C22E1420E511C3CE11B
:10347000630E711C67CF8E85B81600F59F8591117C
:1034800003C0ED85BE16D1F02E852B19330BC90173
:103490002CE1289F8001299F100D11244B855C850C
:1034A000B29E400D511D1124F12CE12C28EC31E08D
:1034B0006CE070E08CE896E00E94BD0C60960FB660
:1034C000F894DEBF0FBECDBFDF91CF911F910F915A
:1034D000FF90EF90DF90CF90BF90AF909F908F9034
:1034E0007F906F905F904F903F902F900895EF9254
:1034F000FF920F931F93CF93DF9380915205882300
:1035000009F46BC0C091DE05CC2321F080912F051A
:10351000811165C083EE98E17C0100E210E020EEAD
:1035200031E050E040E070E060E08CE896E00E941E
:10353000BD0C0CE812E02FEF35E042E069E070E0EE
:103540008AE090E00E94B41803E912E02FEF3FEF09
:1035500042E069E070E08EE590E00E94B418CC2370
:1035600009F441C080912F05C0E0D0EC882311F010
:10357000CFEFDFEF04E712E09E0145E050E060E1AD
:1035800070E08EEE90E00E94E1149E0142E069E05E
:1035900070E08CEF90E00E94B4188091E4058823DD
:1035A00031F08091D40504ED15E0811102C006E8E8
:1035B00012E02FEF3FEF42E069E070E086ED91E02E
:1035C0000E945D198091E40580936B04DF91CF9197
:1035D0001F910F91FF90EF900895C0E09BCFC82FEF
:1035E00080E090EC99CF8091E405C0E1D4E80EE74B
:1035F00012E0882309F280915005E82FF0E0EE0FE9
:10360000FF1FE55FFD4F008111819DEF980FC6EA16
:10361000D9EF923008F4B0CFC0E2DDEF823009F488
:10362000ABCFC0E1D4E8813009F0A6CFC8EEDFE22D
:10363000A3CF8F929F92AF92BF92CF92DF92EF92E1
:10364000FF920F931F93CF93DF93CDB7DEB72897E9
:103650000FB6F894DEBF0FBECDBF182FC09000028A
:10366000D09001028FEFC816D80609F10E94160902
:1036700080906D0490906E04A0906F04B0907004E0
:10368000681979098A099B0920E63AEE40E050E082
:103690000E94BD29CA01B9016C0D7D1D811D911DBE
:1036A00020EA35E040E050E00E94BD296B01112383
:1036B00041F170E060E08CE896E00E946D1664E1F4
:1036C00070E08CEA90E00E949D168091710488233E
:1036D00049F021E734E040E154E862E08AEF90E00D
:1036E0000E94331929E932E044E251E261E084E2C8
:1036F00091E00E9433198FEF9FEF90930302809324
:10370000020280910202909103028C159D0531F115
:10371000D0920302C0920202F12CE12C00E310E0EF
:1037200020EF30E04AEB50E068E770E08CE896E08C
:103730000E94BD0C8E010F5F1F4F9FEFC916D90667
:1037400001F566E872E0C8010E94412A98014FEF36
:103750005FEF66E08AEB90E00E94331928960FB67F
:10376000F894DEBF0FBECDBFDF91CF911F910F91B7
:10377000FF90EF90DF90CF90BF90AF909F908F9091
:103780000895C6016CE370E00E9495299F938F9382
:103790007F936F938FEA92E09F938F931F9288E0BD
:1037A0008F931F930F930E94572A0FB6F894DEBF92
:1037B0000FBECDBFCBCF77FF04C069E872E00C9499
:1037C000412A9C016C337105ECF0CB016CE370E095
:1037D0000E94A9299F938F937F936F9389EB92E027
:1037E0009F938F931F928AE08F933F932F930E9412
:1037F000572A8DB79EB70A960FB6F8949EBF0FBE94
:103800008DBF08957F936F9382EC92E09F938F9387
:103810001F928AE08F933F932F930E94572A8DB770
:103820009EB708960FB6F8949EBF0FBE8DBF089541
:103830002F923F924F925F926F927F928F929F92C0
:10384000AF92BF92CF92DF92EF92FF920F931F93AE
:10385000CF93DF93CDB7DEB7AE970FB6F894DEBF48
:103860000FBECDBF3C014B012A01B22EFB012081CE
:10387000318196EAC92E99EFD92E2A35310558F4AF
:1038800048EEC42E4FE2D42E2B34310520F080E2D6
:10389000C82E8DEFD82EB11063C0F20180819181C6
:1038A00046EA59EF8A35910538F440E25DEF8B34F2
:1038B000910510F448EE5FE2AA24A394C416D5063D
:1038C00009F4A12C2817390709F04BC0F401E08056
:1038D000F180F2010081118122E130E048EC51E0F9
:1038E000B3016A5D7F4F8CE090E00E941C17B1101D
:1038F0006FC0F40122813381F20182819381281704
:10390000390709F065C0F40124813581F201848111
:1039100095812817390709F05BC0F40126813781AA
:10392000F201868197812817390709F098C0AE9671
:103930000FB6F894DEBF0FBECDBFDF91CF911F91C0
:103940000F91FF90EF90DF90CF90BF90AF909F903E
:103950008F907F906F905F904F903F902F90089541
:10396000AB2C1301F2E02F0E311CF12CE12C00E204
:1039700010E02CE830E0A10168E471E08CE896E00A
:103980000E94BD0CF40180819181883EF3E09F0785
:1039900010F087EE93E09F938F938FE692E09F93D2
:1039A0008F931F928AE18F938E010F5F1F4F1F939A
:1039B0000F930E94572A960144E0B10184ED91E0F3
:1039C0000E945D190FB6F894DEBF0FBECDBF7ECF4B
:1039D000F12CE12C0AE010E020EF30E0A301455C7F
:1039E0005F4F6CE070E08CE896E00E94BD0CF40143
:1039F000628173816E01FBE1CF0ED11CC6010E9472
:103A0000E117F401648175811E01F5E22F0E311C6E
:103A1000C1010E94E1173F922F92DF92CF9286EC74
:103A200092E09F938F931F928AE18F938E010F5F95
:103A30001F4F1F930F930E94572A20E134E841E063
:103A4000B301645C7F4F8CE090E00E94B4180FB625
:103A5000F894DEBF0FBECDBFBB2009F45ECFA3013B
:103A6000455C5F4FF12CE12C0AE010E020E830E0EB
:103A700064E571E08CE896E00E94BD0CF40166817B
:103A800077816E01FBE1CF0ED11CC6010E94DB1BCA
:103A9000DF92CF928FEC92E09F938F931F928AE1F7
:103AA0008F938E010F5F1F4F1F930F930E94572A12
:103AB000B301645C7F4F20E134E841E084ED91E0A4
:103AC0000E945D190FB6F894DEBF0FBECDBF2FCF99
:103AD000CF92DF92EF92FF920F931F93CF93DF93DA
:103AE000CDB7DEB76E970FB6F894DEBF0FBECDBF71
:103AF000D0900502D110D6C180916C048111D6C03E
:103B0000DD24D3940E94771AECC0809126058111A0
:103B10006CC001E013E020E134E842E06CE270E0C8
:103B20008CE090E00E94B41808E013E020E134E853
:103B300042E066E770E08CE090E00E94B41801E19A
:103B400013E020E134E842E060EC70E08CE090E0CB
:103B50000E94B4184CE153E064E970E08CE090E01E
:103B60000E94D71846E253E064E970E088EA90E0EA
:103B70000E94D71840E353E060E970E084E491E0EC
:103B80000E94D7188091260524E231E2811102C0FB
:103B90002FEF35E044E050E067E371E086EE90E01F
:103BA0000E94E1148091260524E231E2813011F473
:103BB0002FEF35E044E050E067E371E08AEF90E0FA
:103BC0000E94E1148091260503EE12E0811102C0EB
:103BD0000CED12E020E134E841E063E371E08CE0B9
:103BE00090E00E94B418DF2C8DCF0CE313E020E1AD
:103BF00034E842E068E270E08CE090E00E94B418A3
:103C000060913E0570913F058E010B5E1F4FC8010C
:103C10000E94E1171F930F9385E493E09F938F9386
:103C20001F9284E18F93045111091F930F930E94F7
:103C3000572A20E134E841E06EE270E084ED91E043
:103C40000E945D1904E211E228EC31E04CE350E0FF
:103C50006CE070E08CE896E00E948A1603E513E0C1
:103C600020E134E842E06AEB70E08CE090E00E94F2
:103C7000B4180EE513E020E134E841E060EC70E0B8
:103C800084ED91E00E945D1904E211E228EC31E03C
:103C90004EEC50E06CE070E08CE896E00E948A16F2
:103CA0000FB6F894DEBF0FBECDBF6CCF909150051C
:103CB00080919C04981326CF9091520580919E0488
:103CC000981320CF9091E40580916B0498131ACF3C
:103CD00060E275E084ED95E00E94382A892B09F0B6
:103CE00011CF8091DE05882309F454C08091260508
:103CF0008111AFC01D2DD11008C011E09091530566
:103D000080919F04981301C010E0212F40E854E0F7
:103D100064E375E084E290E00E94181C212F48E8DB
:103D200054E06CE375E08EE690E00E94181C212FB1
:103D300040E954E064E475E088EB90E00E94181CD0
:103D400060914C0570914D05D11037C08091980459
:103D5000909199046817790781F520914E0530916B
:103D60004F0580919A0490919B0428173907E9F533
:103D70009091510580919D04981355C086EAE4E323
:103D8000F5E0A0E8B4E001900D928A95E1F781E0BA
:103D900080936C0410920502109204026E960FB686
:103DA000F894DEBF0FBECDBFDF91CF911F910F9171
:103DB000FF90EF90DF90CF900895CE0101960E9482
:103DC000E11765E773E0CE0101960E94222A2FEFEA
:103DD00035E0AE014F5F5F4F64E970E08CE090E04A
:103DE0000E940219DD2009F4B8CF60914E05709150
:103DF0004F05CE0101960E94DB1B80914E059091EC
:103E00004F052FEF3FEF4E9710F426EA39EFAE0142
:103E10004F5F5F4F64E970E088EA90E00E9402190A
:103E2000DD2009F4A5CFE091510520E23DEFE3301C
:103E300010F028EE3FE2F0E0EE0FFF1FEB5EFD4FCB
:103E40004081518160E970E084E491E00E940219B0
:103E500095CF80916C040091A004811101C000E015
:103E6000CD2C94E0E92E22EA34E04091540566E539
:103E700075E082E490E00E94781980916C040091D2
:103E8000A104811101C000E0CD2C83E0E82E2AEED0
:103E900034E0409155056EE975E084ED90E00E94B4
:103EA00078196CCF0E94771AF12CE12C00E211E016
:103EB00020EE31E040E250E070E060E08CE896E017
:103EC0000E94BD0CF090DE05F1101FCE0DEE12E049
:103ED00020E134E842E066E970E088E790E00E9483
:103EE000B41810CE8F929F92AF92BF92CF92DF9272
:103EF000EF92FF920F931F93CF93DF936B01EA0131
:103F0000822E188268E773E00E944D297C0182E1CD
:103F1000982EE114F10409F44FC08881881508F047
:103F20004BC06CE270E0C7010E942D2A8C01009703
:103F3000D9F15C012FEFA21AB20A6CE270E0C50160
:103F40000E942D2A009781F1F8011082FC01119244
:103F50008F0188814EE050E0B7019601899D200DC8
:103F6000311D1124C9010E94482A8881F601899DCA
:103F7000E00DF11D11241686C5010E9408299881C3
:103F8000F601999DE00DF11D11248787C8010E945B
:103F900026292881F601299DE00DF11D1124718B40
:103FA000608B88818F5F888368E773E090E080E0B2
:103FB0000E944D297C01ADCFDF91CF911F910F91D0
:103FC000FF90EF90DF90CF90BF90AF909F908F9039
:103FD0000895AF92BF92DF92EF92FF920F931F93DB
:103FE000CF93DF93CDB7DEB7C454D1090FB6F894A1
:103FF000DEBF0FBECDBF11E00AE08CE3F82E8FEEDE
:1040000095E00E948009892B09F47DC18FEE95E02F
:104010000E945E09E0916A048A3019F08D3009F03F
:1040200066C1EE2361F3F0E0E653FC4F108280910D
:10403000CA03882309F4E1C09091CB039C3709F0AF
:10404000DCC0E090DE05873409F0DAC068E773E091
:104050008CEC93E00E944D299E012F5F3F4F590148
:10406000D12C009799F031E1D31699F0D3940E94A6
:104070002629F50161937193819391935F0168E71C
:1040800073E090E080E00E944D29EBCFF1E1DF1278
:1040900092C089819A8190933505809334058D81F2
:1040A0009E81909337058093360589859A859093F4
:1040B0003905809338058D859E8590933B058093C7
:1040C0003A0589899A8990933D0580933C058D89AD
:1040D0009E8990933F0580933E05898D9A8D90939C
:1040E0004105809340058D8D9E8D9093430580936F
:1040F000420529A13AA130934505209344052DA1FD
:104100003EA1309347052093460529A53AA5309353
:1041100049052093480590934B0580934A058DA54A
:104120009EA590934D0580934C0589A99AA99093DB
:104130004F0580934E058DA99EA9AFA9B8AD8530D6
:104140009105A105B1051CF080E090E0DC018093B1
:10415000500589AD9AADABADBCAD85309105A105DB
:10416000B1051CF080E090E0DC0180935105909156
:10417000520521964CAD5DAD6EAD7FAD219781E0CE
:10418000411551056105710509F480E080935205E0
:10419000891751F082EF90E0452B462B472B11F405
:1041A00084EE90E00E943D1822968FAD2297809376
:1041B00053051093DE050E9416096093E005709385
:1041C000E1058093E2059093E3051093040280914A
:1041D000DF05882321F01092DF05109305028091FE
:1041E000E405882331F0E11008C08091DE058823C2
:1041F00021F01093E4051093050210926A04FFCE9B
:1042000024E044E555E066E575E08D3439F080350D
:1042100051F423E045E555E06EE975E08CEC93E060
:104220000E94721FC8CF843541F76CE770E08CECB8
:1042300093E00E942D2A009759F0FC011192BF01D2
:104240004DE050E081E794E00E94482A10927E04FD
:1042500045E050E06CEC73E084ED95E00E94482A64
:104260001092D9058091CC03882309F4A4CF9091B2
:10427000CE039A3309F09FCF082E000C990BC097FC
:10428000089F9001099F300D11248091CD03082EC5
:10429000000C990BC097820F931FF89EA001F99E06
:1042A000500D11242091CF03022E000C330B20530C
:1042B0003109029FB001039F700D11248091D0033A
:1042C000082E000C990BC097860F971F840F951F1F
:1042D00090930102809300020E94160960936D047E
:1042E00070936E0480936F049093700464CFEF39E1
:1042F00008F085CE91E09E0F90936A04F0E0E653BB
:10430000FC4F80837CCECC5BDF4F0FB6F894DEBFD2
:104310000FBECDBFDF91CF911F910F91FF90EF9016
:10432000DF90BF90AF9008951F920F920FB60F923B
:1043300011242F933F938F939F93AF93BF938091BB
:10434000E6059091E705A091E805B091E905309167
:10435000E50523E0230F2D3758F50196A11DB11D6A
:104360002093E5058093E6059093E705A093E80583
:10437000B093E9058091EA059091EB05A091EC05D9
:10438000B091ED050196A11DB11D8093EA059093B2
:10439000EB05A093EC05B093ED05BF91AF919F9114
:1043A0008F913F912F910F900FBE0F901F901895F6
:1043B00026E8230F0296A11DB11DD2CF1F920F92A6
:1043C0000FB60F9211240BB60F922F933F934F937A
:1043D0005F936F937F938F939F93AF93BF93EF936D
:1043E000FF938FEE95E00E949609FF91EF91BF91A8
:1043F000AF919F918F917F916F915F914F913F917D
:104400002F910F900BBE0F900FBE0F901F9018951D
:104410001F920F920FB60F9211240BB60F922F938B
:104420008F939F93EF93FF93E091FF05F091000628
:104430008081E0910506F091060682FD1DC0908105
:10444000809108068F5F8F7320910906821741F0D3
:10445000E0910806F0E0E151FA4F958F809308064D
:10446000FF91EF919F918F912F910F900BBE0F9025
:104470000FBE0F901F9018958081F2CFEFEEF5E000
:104480001382128288EE93E0A0E0B0E084839583EB
:10449000A683B78383E292E09183808385EC90E0EA
:1044A0009587848784EC90E09787868780EC90E0FE
:1044B000918B808B81EC90E0938B828B82EC90E0EF
:1044C000958B848B86EC90E0978B868B118E128E69
:1044D000138E148EECE8F6E01382128220EF30E0A7
:1044E0003583248380E491E0978386833187208716
:1044F00093878287168A158614861786168681E02A
:10450000858B848B2FEF3FEF338B228B318B208B6E
:10451000878B108E128E118E85E392E091838083BB
:104520000895CF93DF9300D01F92CDB7DEB7789474
:1045300084B5826084BD84B5816084BD85B58260A8
:1045400085BD85B5816085BD80916E008160809359
:104550006E001092810080918100826080938100C2
:1045600080918100816080938100809180008160D2
:10457000809380008091B10084608093B10080912D
:10458000B00081608093B000809191008260809340
:1045900091008091910081608093910080919000C2
:1045A0008160809390008091A10082608093A1003F
:1045B0008091A10081608093A1008091A000816022
:1045C0008093A000809121018260809321018091DD
:1045D000210181608093210180912001816080937D
:1045E000200180917A00846080937A0080917A0023
:1045F000826080937A0080917A00816080937A0053
:1046000080917A00806880937A001092C100E091D6
:10461000FF05F091000682E08083E091FB05F091B8
:10462000FC051082E091FD05F091FE0580E180839C
:1046300010920706E0910306F091040686E080835D
:10464000E0910106F0910206808180618083E09113
:104650000106F0910206808188608083E091010666
:10466000F0910206808180688083E0910106F091DC
:10467000020680818F7D808384E097E00E943D1850
:1046800059E9E52E57E0F52EF701249163E5C62E92
:1046900067E0D62EF60184918823C9F090E0880F58
:1046A000991FFC01E75EF94FA591B491FC01E1501F
:1046B000FA4F459154919FB7F8943C91822F809581
:1046C00083238C93FA018081282B20839FBF60E095
:1046D00090E080E00E94000B8C018830F4E59F0799
:1046E00051F1803224E5920731F18938994809F473
:1046F0003BC360E087E690E00E94000B07E413E80C
:1047000087349744C1F08FEE90E00E948F0B8B01AD
:104710006732734981F081EA90E00E94700B03E6F2
:1047200019E1613081E6780731F06F3F760709F0D3
:1047300050C206E215E187EF96E00E94050AB80133
:1047400090E080E040E10E944D186CE672E08FEE50
:1047500095E00E942E1885EE96E00E94050A40E141
:1047600067E573E880E090E00E944D186CE672E027
:104770008FEE95E00E942E180E94CF0A1092A80694
:104780001092A70687E593E89093AC068093AB065A
:1047900083E094E19093AA068093A90680EE91E0CD
:1047A000909393068093920680E491E09093910613
:1047B0008093900681E090E09093AE068093AD06E2
:1047C00069E070E089E396E00E94710A62E070E0BF
:1047D00082E496E00E94710A66E070E083E396E06E
:1047E0000E94710A60E08CE896E00E94B20D60E0E1
:1047F0008CE896E00E94E50B8091AB069091AC06A8
:104800008838944909F04DC110927F0420EE3FEFA3
:1048100050E040E070E060E08CE896E00E94770DA8
:10482000B090B706A090B8068091A90680FF03C09B
:104830008EE2B82EA12C8091AB069091AC0682300E
:10484000964119F40EE2B02EA12C10E000E030E009
:1048500020E050E040E070E060E08CE896E00E94EC
:10486000280C8091A90680FD10C070E060E0809166
:10487000B3069091B4060E94C00A70E060E0809197
:10488000B5069091B6060E94C00AA1985F98A2B89A
:10489000B8B8A298A298A29A5F9A17B811B82091B6
:1048A000A9063091AA064091AB065091AC0626FDB0
:1048B0001BC080910B01806480930B0180910B01E0
:1048C0008F7B80930B0180910B018F7B80930B0179
:1048D00080910B018F7B80930B0180B186B1809119
:1048E0000B01806480930B0141315541D9F48091D3
:1048F0000B01806480930B0180910B018F7B80936F
:104900000B0180910B018F7B80930B0180910B0138
:104910008F7B80930B0180B186B180910B01806405
:1049200080930B01B9016470772780910B0180643B
:1049300080930B0180910B018F7B80930B01809101
:104940000B018F7B80930B0180910B018F7B8093F8
:104950000B0124FF2AC280B196B180910B018064C3
:1049600080930B0180910B01806480930B018091F7
:104970000B018F7B80930B0180910B018F7B8093C8
:104980000B0180910B018F7B80930B0180B146B1AD
:1049900080910B01806480930B0180910B018064F6
:1049A00080930B0180910B018F7B80930B01809191
:1049B0000B018F7B80930B0180910B018F7B809388
:1049C0000B0180B186B150910B01506450930B01E3
:1049D00050E0672B09F4D4C1A82EB12CBA2CAA241C
:1049E000AA24E8EFBE2213E0440F551F1A95E1F701
:1049F000407E5770A42AB52A969596959695A92A31
:104A000080917F04882399F0C50135E096958795BC
:104A10003A95E1F780729927A501569547954F7110
:104A20005527842B952B40ECA422A82AB92A8091E3
:104A30000B01806480930B01A19A8FEF87B981B934
:104A400020FD14C00091960610919706015011099F
:104A500020919406309195062150310950E040E0B4
:104A600070E060E08CE896E00E94280C5FE1A516FB
:104A70005FEFB506B1F486E08983AE014F5F5F4F0B
:104A800061E08AE390E00E94AC0A8091A9069091CF
:104A9000AA068F7E9093AA068093A90681E0809350
:104AA0007F0461E08CE896E00E94B20D809194064C
:104AB00090919506892B09F09CC184ED96E00E94A7
:104AC000050A40E167E573E880E090E00E944D1838
:104AD00084EA96E00E943D1880E696E00E943D1828
:104AE000772473940FED17E00E94E91F0E941609C6
:104AF0004B015C018091E4058823E9F08091E00599
:104B00009091E105A091E205B091E3051401250122
:104B1000281A390A4A0A5B0AD201C10189399A4323
:104B2000A105B10540F08091DF051092E4058111E7
:104B300002C00E94771A8091DF0581111EC080910A
:104B4000DE058823D1F08091E0059091E105A091E8
:104B5000E205B091E30514012501281A390A4A0A31
:104B60005B0AD201C101893C9F4AA105B10528F029
:104B70007092DF0581E00E94191B8091DF05882378
:104B800009F4F2C180E00E94191B8091DA0590912E
:104B9000DB05A091DC05B091DD0514012501281A83
:104BA000390A4A0A5B0AD201C101813D9740A10539
:104BB000B10560F08092DA059092DB05A092DC05E9
:104BC000B092DD0585E198E00E943D180E94400A00
:104BD0008BCF6115EFEF7E0719F400E215E1ABCD45
:104BE00001EA15E06115704F09F4A5CD8FEB90E057
:104BF0000E948F0B8B01673523E8720709F49BCD68
:104C0000613834E9730709F496CD613145E17407E1
:104C100009F491CD6032754101F3063285E1180740
:104C200009F487CD013895E1190709F484CD011500
:104C3000144109F49CC084ED90E00E94700B8B013C
:104C40006031734509F477CD87ED90E00E94700BD9
:104C50008B016133704809F46ECD8EEF90E00E94B5
:104C6000700B072F182F292F3327033530E2130736
:104C700009F461CD84E090E00E94700B8B01833ECB
:104C800029F4672B41F500E013EE55CD811123C0C7
:104C90006115704801F58091080290910902A09178
:104CA0000A0289839A83AB83AE014F5F5F4F63E053
:104CB00089EB90E00E94AC0A60E080ED90E00E94F9
:104CC000000B09E910E0893909F435CD8039B9F4D0
:104CD00000E910E930CD063255E1150709F429CD78
:104CE000003F89E8180709F445C0023595E819071F
:104CF00009F443C00131ECEA1E0709F41CCD83ED31
:104D000090E00E94700B072F182F292F33270336AE
:104D1000F1E91F0709F40FCD83ED90E00E94700BBD
:104D2000872F062F172F093222E3120709F403CD2C
:104D30008359823008F4FFCC783909F4FCCC7737FA
:104D400009F4F9CC763109F4F6CC033D110509F4E8
:104D5000F2CC033D100709F4EECC60E090E080E077
:104D60000E94000B8C01E7CC09E812E1E4CC04E1DD
:104D700018E6E1CC05E317E7DECC09E817E7DBCC62
:104D8000A92EB12CBA2CAA24AA24F8EFBF22A3E0A2
:104D9000440F551FAA95E1F7407E5770A42AB52A03
:104DA000869586958695A82A2BCEA0B086B1BA2C7A
:104DB000A82E80910B01806480930B0123FF03C018
:104DC000BA24AB24BA24672B09F41ACEC501807E1D
:104DD0009770A501452F5527469546954695842BF6
:104DE000952BBA2CAA24BB0CBB0CBB0CA82AB92A45
:104DF00007CE89E496E00E94050A40E167E573E882
:104E000080E090E00E944D1886E496E00E94050A3A
:104E10006091940670919506072E000C880B990BF3
:104E200097FF8EC00E94931868E78FEE95E00E946E
:104E3000B8096091960670919706072E000C880BB2
:104E4000990B97FF81C00E9493186CE672E08FEE79
:104E500095E00E942E1870E060E08CE896E00E94D9
:104E60006D166CE570E084E290E00E949D160AE702
:104E700013E02FEF3FEF44E06EE770E08CEC90E042
:104E80000E94B41801E813E02AEA3BED43E06CEA23
:104E900070E08CEC90E00E94B4180DE813E020E183
:104EA00034E841E064ED70E08EEC90E00E94B418CC
:104EB0001092D405109220050E9416094B015C0146
:104EC000E8E28E0EEAE09E1EA11CB11C1092DA05EB
:104ED0001092DB051092DC051092DD050E94160988
:104EE000681979098A099B0997FF32C00E94E91F56
:104EF0000E9416092091DE052111F0CF0091DA05FC
:104F00001091DB052091DC053091DD051B012C01A2
:104F1000201A310A420A530A9201810109351240CE
:104F200021053105D8F26093DA057093DB05809393
:104F3000DC059093DD0584E496E00E943D18CECF19
:104F40004AE00E944D1870CF4AE00E944D187DCF74
:104F500070E060E08CE896E00E946D1681E080933E
:104F600005020E94681DBCCD8091DE05882321F0DA
:104F70008091E405811121C08091DA059091DB05D3
:104F8000A091DC05B091DD0514012501281A390A2C
:104F90004A0A5B0AD201C10189359240A105B105D7
:104FA00060F08092DA059092DB05A092DC05B09269
:104FB000DD0583E198E00E943D188091DE0588239D
:104FC00009F453C080915205882309F44EC08091A2
:104FD000300590913105A0913205B091330514014F
:104FE0002501281A390A4A0A5B0AD201C101833C09
:104FF0009140A105B10598F080923005909231055D
:10500000A0923205B092330580912F0587258093B9
:105010002F058091DF05811102C00E94771AF801E7
:105020009491F7012491F6018491882309F436C004
:10503000992341F19150923128F5E92FF0E0ED5D8F
:10504000F74D0C94FE2976287A283D286E28722880
:1050500042287D28832887288D28912895289B28F9
:105060009F284228A328A928AD2880912F058823AE
:1050700009F4D5CF10922F05CCCF909180009F7767
:1050800090938000E82FF0E0EE0FFF1FE95DF84FEE
:10509000A591B4918C91282381E009F480E090914E
:1050A000DE0520910702821709F45BC08093070296
:1050B00080922B0590922C05A0922D05B0922E0582
:1050C000911180C080910502811105C08091040278
:1050D000882309F47BCD0E94681D78CD90918000D3
:1050E0009F7DCECF90918000977FCACF94B59F7758
:1050F00094BDC8CF94B59F7DFBCF9091B0009F77B2
:105100009093B000BFCF9091B0009F7DF9CF909168
:1051100090009F7790939000B5CF909190009F7DE5
:10512000F9CF90919000977FF5CF9091A0009F7755
:105130009093A000A7CF9091A0009F7DF9CF909170
:10514000A000977FF5CF909120019F779093200149
:1051500099CF909120019F7DF9CF90912001977F69
:10516000F5CF20910602821709F4AACF40912B05B2
:1051700050912C0560912D0570912E05140125018B
:10518000241A350A460A570AB201A10149325105CB
:105190006105710508F494CF80930602811190CFC8
:1051A000992309F48FCF8092270590922805A09229
:1051B0002905B0922A05809126058725809326052A
:1051C000709205028091270590912805A0912905EC
:1051D000B0912A05A5019401281B390B4A0B5B0BE2
:1051E000DA01C90181329E44A105B10508F46ACFF4
:1051F0008092270590922805A0922905B0922A0551
:1052000080912605872580932605709205025ACF46
:10521000FC0188279927E89421912032E9F329306D
:1052200010F02E30C8F32B3241F02D3239F468944F
:1052300004C00E948D29820F911D219120532A3094
:10524000C0F31EF4909581959F4F08951F93FC0124
:1052500099278827BC01E89411911032E9F319309D
:1052600010F01E30C8F31B3251F01D3249F468941F
:1052700006C00E947829610F711D811D911D119139
:1052800010531A30B0F33EF4909580957095619567
:105290007F4F8F4F9F4F1F91089541EC56E00C9424
:1052A0005129FA01A191B081009719F41097E1F00A
:1052B000CD01DC01CD010D90002011F4C00113C01F
:1052C000FB012191222319F02015D9F7F3CFFB011F
:1052D0002191201519F41E92119606C02223C1F7C0
:1052E0000D900020A1F7D001FA01A193B083089599
:1052F000592F482F372F262F660F771F881F991F8A
:10530000660F771F881F991F620F731F841F951FD9
:10531000660F771F881F991F08957AE0979F902D39
:10532000879F802D910D11240895AA1BBB1B51E16D
:1053300007C0AA1FBB1FA617B70710F0A61BB70B05
:10534000881F991F5A95A9F780959095BC01CD01AA
:10535000089597FB072E16F4009407D077FD09D027
:105360000E94952907FC05D03EF4909581959F4FAA
:105370000895709561957F4F0895A1E21A2EAA1B9A
:10538000BB1BFD010DC0AA1FBB1FEE1FFF1FA217F5
:10539000B307E407F50720F0A21BB30BE40BF50BF2
:1053A000661F771F881F991F1A9469F7609570957B
:1053B000809590959B01AC01BD01CF010895052E0C
:1053C00097FB1EF400940E94F62957FD07D00E9417
:1053D000BD2907FC03D04EF40C94F6295095409556
:1053E000309521953F4F4F4F5F4F08959095809591
:1053F000709561957F4F8F4F9F4F0895EE0FFF1F60
:105400000024001C0BBE0790F691E02D09940E9429
:105410000E2AB7FF0895821B930B0895A29FB00137
:10542000B39FC001A39F700D811D1124911DB29FD8
:10543000700D811D1124911D089581E090E0F89474
:105440000C943B2DFB01DC010D900020E9F7119736
:1054500001900D920020E1F70895FC0181918617DB
:1054600021F08823D9F7992708953197CF0108951E
:10547000FB01DC018D91019080190110D9F3990B8A
:105480000895FB01DC0101900D920020E1F70895E1
:10549000FB01DC014150504048F001900D9200208A
:1054A000C9F701C01D9241505040E0F708950F9395
:1054B0001F93CF93DF93CDB7DEB72E970FB6F89437
:1054C000DEBF0FBECDBF0D891E898F89988D26E066
:1054D0002C831A83098397FF02C080E090E801972C
:1054E0009E838D83AE01455E5F4F698D7A8DCE01BF
:1054F00001960E94942A4D815E8157FD0AC02F813A
:105500003885421753070CF49A01020F131FF80154
:1055100010822E960FB6F894DEBF0FBECDBFDF917E
:10552000CF911F910F9108952F923F924F925F92CA
:105530006F927F928F929F92AF92BF92CF92DF92A3
:10554000EF92FF920F931F93CF93DF93CDB7DEB708
:105550002B970FB6F894DEBF0FBECDBF7C013B0189
:105560008A01FC0117821682838181FFDDC1CE0191
:1055700001965C01F7019381F30193FD859193FFFF
:1055800081913F01882309F453C1853239F493FD99
:10559000859193FF81913F01853229F4B70190E015
:1055A0000E94AD2CE7CF912C212C312CFFE1F3157B
:1055B00038F08B3211F190F4803209F1833229F105
:1055C00037FC3CC020ED280F2A3050F536FE20C0B5
:1055D0008AE0989E200D1124922E06C08D3291F003
:1055E000803371F7689430F8F30193FD859193FF50
:1055F00081913F018111DACF21C0689431F868941C
:1056000032F8F2CF689433F8EFCF689434F8ECCFE7
:10561000EAE02E9E200D1124222E689435F8E4CF66
:105620008E3229F436FC04C1689436F8DDCF8C360E
:1056300019F4689437F8D8CF8836B1F2982F9F7D47
:1056400095549330E0F08336A1F18337C1F183356F
:1056500009F063C02801F2E04F0E511CF801C08030
:10566000D180692D70E036FC02C06FEF7FEFC6017C
:105670000E94972C4C01689437F882010AC00C5F95
:105680001F4FFFE3F98388248394912C6501E894EC
:1056900037F833FE2DC0522C8114910471F555203A
:1056A00009F468CFB70180E290E00E94AD2C5A94D3
:1056B000F6CFF801808189830E5F1F4FE4CF280168
:1056C000F2E04F0E511CF801C080D180692D70E0CE
:1056D00036FC02C06FEF7FEFC6010E94A22C4C0186
:1056E0008201D5CFB70180E290E00E94AD2C2A94D0
:1056F0002814190409F0B0F7CECFF60137FC8591D4
:1057000037FE81916F01B70190E00E94AD2C5110DE
:105710005A94F1E08F1A9108BFCF843619F0893678
:1057200009F077C0F80137FE6BC06081718182811A
:1057300093810C5F1F4FF32DFF763F2E97FF09C01B
:1057400090958095709561957F4F8F4F9F4F68948E
:1057500037F82AE030E0A5010E94DD2CC82ECA18D7
:105760008C2C432C36FE0CC0E89440F8C91440F44D
:1057700034FE05C032FC03C0F32DFE7E4F2E892C73
:1057800044FEAAC0FE01EC0DF11D8081803309F0BA
:105790009CC0242D297E422E842D8870582E43FCD7
:1057A000AAC040FEA4C09C2C821418F42C0C922C8D
:1057B000981844FEA6C0B70180E390E00E94AD2C8B
:1057C00042FE09C088E790E041FE02C088E590E013
:1057D000B7010E94AD2CC91408F49FC0CA94D12C03
:1057E0009FEFC91AD90ACA0CDB1CF60182916F011E
:1057F000B70190E00E94AD2CAC14BD04B1F74FCFBF
:1058000060817181072E000C880B990B0E5F1F4F72
:1058100092CFD32CE894D4F82AE030E08537E1F138
:10582000232D297FD22E8F36A9F1F0F4883551F13E
:10583000F701868197812B960FB6F894DEBF0FBED5
:10584000CDBFDF91CF911F910F91FF90EF90DF902F
:10585000CF90BF90AF909F908F907F906F905F9010
:105860004F903F902F900895803749F0883701F787
:10587000D4FE02C06894D2F820E130E00DC06894F4
:10588000D4F8F6CF34FE03C0822F8660D82E20E1F4
:1058900032E002C028E030E0F801D7FE0FC060819E
:1058A0007181828193810C5F1F4FA5010E94DD2CC5
:1058B000C82ECA183D2CE89437F852CF6081718108
:1058C00090E080E00E5F1F4FF0CF42FC02C0839457
:1058D00063CF8394839460CF842D867809F45CCF62
:1058E000F6CFB70180E290E00E94AD2C8394821441
:1058F000C0F3512C5ECF522C5818821408F459CFA3
:10590000F8CF842D867809F466CF8BE241FE80E2E1
:1059100047FC8DE2B70190E05CCFB70180E390E0F7
:105920000E94AD2C9A9457CF8FEF9FEF84CFFC014C
:105930000590615070400110D8F7809590958E0FBA
:105940009F1F0895FC016150704001900110D8F72D
:10595000809590958E0F9F1F08950F931F93CF935F
:10596000DF93182F092FEB018B8181FD09C01FEFF9
:105970000FEF812F902FDF91CF911F910F910895FD
:1059800082FF14C02E813F818C819D8128173907A9
:105990003CF4E881F981CF010196998388831083D3
:1059A0008E819F8101969F838E83E3CFE885F98561
:1059B000812F0995892BA1F3DACFFA01AA27283084
:1059C00051F1203181F1E8946F936E7F6E5F7F4FCC
:1059D0008F4F9F4FAF4FB1E03ED0B4E03CD0670F48
:1059E000781F891F9A1FA11D680F791F8A1F911D9B
:1059F000A11D6A0F711D811D911DA11D20D009F4EB
:105A000068943F912AE0269F11243019305D31932C
:105A1000DEF6CF010895462F4770405D4193B3E015
:105A20000FD0C9F7F6CF462F4F70405D4A3318F0BC
:105A3000495D31FD4052419302D0A9F7EACFB4E06D
:105A4000A6959795879577956795BA95C9F7009725
:105A50006105710508959B01AC010A2E06945795C6
:105A6000479537952795BA95C9F7620F731F841F1D
:0A5A7000951FA01D0895F894FFCFC4
:105A7A00FFFFFFFF01010101FF835794039903A070
:105A8A0003A503AA03B203B803BC03C003C50300FA
:105A9A00000000B80922094F09200A80095E09722C
:105AAA0009000000003C1222096A166916770DBD2A
:105ABA0008B515B914D514C914BC15BD08B20DE53D
:105ACA000B08178A16BD0C6D166D130E1324257557
