:100000000C94CD080C94F7080C94F7080C94F7089E
:100010000C94F7080C94F7080C94F7080C94F70864
:100020000C94F7080C94F7080C94F7080C94F70854
:100030000C94F7080C94F7080C94F7080C94F70844
:100040000C94F7080C94F7080C94F7080C94F70834
:100050000C94F7080C94F7080C94F7080C946A2594
:100060000C94F7080C94DE250C94B4250C94F70836
:100070000C94F7080C94F7080C94F7080C94F70804
:100080000C94F7080C94F7080C94F7080C94F708F4
:100090000C94F7080C94F7080C94F7080C94F708E4
:1000A0000C94F7080C94F7080C94F7080C94F708D4
:1000B0000C94F7080C94F7080C94F7080C94F708C4
:1000C0000C94F7080C94F7080C94F7080C94F708B4
:1000D0000C94F7080C94F7080C94F7080C94F708A4
:1000E0000C94F708617474656E74696F6E2000007B
:1000F000000000003E5B4F5B3E3E6B4F6B3E1C3E84
:100100007C3E1C183C7E3C181C577D571C1C5E7F97
:100110005E1C00183C1800FFE7C3E7FF0018241816
:1001200000FFE7DBE7FF30483A060E26297929264B
:10013000407F050507407F05253F5A3CE73C5A7F35
:100140003E1C1C08081C1C3E7F14227F22145F5F8B
:10015000005F5F06097F017F006689956A606060C5
:10016000606094A2FFA29408047E040810207E2000
:100170001008082A1C08081C2A08081E1010101055
:100180000C1E0C1E0C30383E3830060E3E0E06009B
:100190000000000000005F00000007000700147F5F
:1001A000147F14242A7F2A122313086462364956C6
:1001B00020500008070300001C2241000041221CBF
:1001C000002A1C7F1C2A08083E08080080703000A6
:1001D0000808080808000060600020100804023EBB
:1001E0005149453E00427F400072494949462141FC
:1001F000494D331814127F1027454545393C4A496B
:1002000049314121110907364949493646494929A9
:100210001E000014000000403400000008142241B9
:100220001414141414004122140802015909063E42
:10023000415D594E7C1211127C7F494949363E413D
:100240004141227F4141413E7F494949417F09095E
:1002500009013E414151737F0808087F00417F41F9
:10026000002040413F017F081422417F4040404030
:100270007F021C027F7F0408107F3E4141413E7F88
:10028000090909063E4151215E7F0919294626497F
:1002900049493203017F01033F4040403F1F204056
:1002A000201F3F4038403F63140814630304780460
:1002B000036159494D43007F414141020408102028
:1002C000004141417F04020102044040404040009F
:1002D0000307080020545478407F284444383844A9
:1002E000444428384444287F385454541800087E25
:1002F000090218A4A49C787F0804047800447D4077
:10030000002040403D007F1028440000417F400015
:100310007C047804787C080404783844444438FC2D
:100320001824241818242418FC7C080404084854B1
:1003300054542404043F44243C4040207C1C20406E
:10034000201C3C4030403C44281028444C90909065
:100350007C4464544C44000836410000007700009F
:10036000004136080002010204023C2623263C1EFE
:10037000A1A161123A4040207A3854545559215570
:10038000557941225454784221555478402054558F
:1003900079400C1E527212395555555939545454DE
:1003A0005939555454580000457C410002457D425E
:1003B0000001457C407D1211127DF0282528F07C3B
:1003C000545545002054547C547C0A097F493249D5
:1003D0004949323A4444443A324A4848303A414121
:1003E000217A3A42402078009DA0A07D3D424242C1
:1003F0003D3D4040403D3C24FF2424487E49436627
:100400002B2FFC2F2BFF0929F620C0887E09032003
:10041000545479410000447D413048484A323840C4
:1004200040227A007A0A0A727D0D19317D26292927
:100430002F28262929292630484D40203808080829
:100440000808080808382F10C8ACBA2F102834FA4A
:1004500000007B000008142A142222142A140855D4
:1004600000550055AA55AA55AAFF55FF55FF000093
:1004700000FF00101010FF00141414FF001010FFF4
:1004800000FF1010F010F0141414FC001414F70006
:10049000FF0000FF00FF1414F404FC141417101FD5
:1004A00010101F101F1414141F00101010F0000063
:1004B00000001F101010101F10101010F01000007E
:1004C00000FF101010101010101010FF100000008E
:1004D000FF140000FF00FF00001F10170000FC04C5
:1004E000F414141710171414F404F40000FF00F7A8
:1004F00014141414141414F700F71414141714100B
:10050000101F101F141414F4141010F010F0000039
:100510001F101F0000001F14000000FC140000F05A
:1005200010F01010FF10FF141414FF141010101FFF
:1005300000000000F010FFFFFFFFFFF0F0F0F0F010
:10054000FFFFFF0000000000FFFF0F0F0F0F0F382D
:1005500044443844FC4A4A4A347E02020606027E7B
:10056000027E0263554941633844443C04407E2086
:100570001E2006027E020299A5E7A5991C2A492A97
:100580001C4C7201724C304A4D4D30304878483026
:10059000BC625A463D3E494949007E0101017E2A1E
:1005A0002A2A2A2A44445F444440514A4440404451
:1005B0004A51400000FF0103E080FF000008086B83
:1005C0006B083612362436060F090F06000018187D
:1005D0000000001010003040FF0101001F01011E4B
:1005E00000191D1712003C3C3C3C000000000000BC
:1005F000002200250028002B002E003100340002CC
:10060000010000050108010B010000210024002762
:10061000002A002D00300033000101000004010712
:10062000010A0111007F96290001007F9628003AF7
:1006300001557F013F00567C312E322E30002C2098
:100640000070616E656C2072656164792C20647243
:10065000697665722030780053657420464F5243A6
:10066000455F4452495645525F494420696E2070A7
:100670006C6174666F726D696F2E696E69202D20D2
:10068000747279203078383335372C20307839340B
:1006900038312C203078393438362E0020697320D8
:1006A0006E6F7420737570706F727465643B207028
:1006B000616E656C20776173206E65766572206966
:1006C0006E697469616C697365642E004552524F9E
:1006D000523A20647269766572203078006F6666DF
:1006E000006F6E00666F7263696E67206472697670
:1006F000657220307800726561644944202D3E2087
:100700003078006361726F7573656C20007061678B
:100710006520627574746F6E206F6E2070696E2034
:1007200000636C617564652D75736167652D6D651A
:10073000746572206669726D776172652076312EFC
:10074000322E3000000020002300260029002C005B
:100750002F00320000010000030106010901050518
:100760000505070508080808020202020A0A080827
:100770000404040401010101010101010303030355
:1007800003030303040707070C0C0C0C0C0C0C0CE4
:100790000202020206060606060606060B0B0B0BF5
:1007A0000B0B0B0B0102102020080810204010201A
:1007B0004080020102010804020101020408102025
:1007C0004080804020100804020180040201804023
:1007D000201008040201080402010102040810208C
:1007E0004080010204081020408000000A0B02092A
:1007F0000C0D0E08070304010000000000000000BB
:1008000000000000000000000000000000000000E8
:1008100000000000000012111000000000000000A5
:1008200000000000000000000000000000000000C8
:100830006F6666006F6E006361726F7573656C2022
:1008400000627574746F6E2073686F7274202D3E31
:1008500020706167652000627574746F6E202D3E94
:1008600020616C6572742061636B6E6F776C656478
:10087000676564003F00567C312E322E3000567C76
:10088000312E322E30003F00567C312E322E300079
:10089000000000000FE00000000000000000000069
:1008A00000000000001FF800000000000000000031
:1008B0000000000000003FFC00000001800000007C
:1008C000000000000000003FFC00000007E0000006
:1008D00000000000000000007FFE0000000FF0009C
:1008E000000000000000000000FFFE0000001FF0FC
:1008F00000000000000000000000FFFF0000001FDB
:10090000F800000000000000000001FFFF000000F0
:100910003FFC00000000000000000000FFFF80001E
:10092000003FFC00000000000000000000FFFF800E
:1009300000007FF800000000000000000000FFFF42
:100940008000007FF800000000000000000000FFB1
:10095000FFC000007FF80000000000000000000061
:100960007FFFC000007FF8000000000000000000D2
:10097000007FFFE000007FF80000000000000000A2
:1009800000007FFFE000007FF80000000000000092
:100990000000003FFFF00000FFF800001FC0000053
:1009A000000000001FFFF000007FF000003FE000AB
:1009B00000000000001FFFF80000FFF000007FE0D3
:1009C0000000000000000FFFF80000FFF00000FF33
:1009D000F00000000000000FFFF80000FFF0000131
:1009E000FFF800000000000007FFFC0000FFF0001F
:1009F00003FFF800000000000003FFFC0000FFF010
:100A00000007FFFC00000000000003FFFE0000FFE5
:100A1000E0000FFFFC00000000000001FFFE0000EE
:100A2000FFE0001FFFF800000000000001FFFF00D2
:100A300000FFE0003FFFF800000002800000FFFF21
:100A40000000FFE0007FFFF800000007F80000FF53
:100A5000FF8000FFE000FFFFF80000000FFC000037
:100A60007FFF8001FFC000FFFFF00000001FFF00BC
:100A7000003FFFC001FFC001FFFFF00000001FFFAB
:100A800080003FFFC001FFC003FFFFE00000003F08
:100A9000FFC0001FFFE001FFC007FFFFC000000014
:100AA0001FFFE0001FFFE001FF800FFFFFC00000FD
:100AB000001FFFF8000FFFF001FF800FFFFF800015
:100AC00000001FFFFC000FFFF001FF801FFFFF0071
:100AD0000000001FFFFE0007FFF801FF803FFFFE40
:100AE000000000001FFFFF8003FFF801FF807FFF71
:100AF000FC000000000FFFFFC003FFFC03FF00FF2E
:100B0000FFFC0000000007FFFFE001FFFC03FF0007
:100B1000FFFFF80000000003FFFFF801FFFE03FFE6
:100B200001FFFFF00000000001FFFFFC00FFFE03DB
:100B3000FF03FFFFE000000000007FFFFE00FFFF5B
:100B400003FF07FFFFE000000000003FFFFF807F82
:100B5000FF03FE0FFFFFC000000000000FFFFFC0FB
:100B60007FFF83FE0FFFFF80000000000007FFFFF4
:100B7000E03FFFC3FE1FFFFF00000000000001FF79
:100B8000FFF83FFFC3FE3FFFFE0000000000000033
:100B9000FFFFFC1FFFE3FE7FFFFE000000000000E0
:100BA000007FFFFE1FFFE3FE7FFFFC000000000050
:100BB00000001FFFFF0FFFE7FCFFFFF80000000031
:100BC0000000000FFFFFC7FFF7FFFFFFF00000006E
:100BD0000000000003FFFFE7FFF7FFFFFFF000004A
:100BE000000000000001FFFFFFFFF7FFFFFFE00034
:100BF000000000000000007FFFFFFFF7FFFFFFC0C5
:100C000000000000000000003FFFFFFFFFFFFFFFAC
:100C1000C000000000000000000FFFFFFFFFFFFF0B
:100C2000FF80000000000000000007FFFFFFFFFF43
:100C3000FFFF0000001FF80000000001FFFFFFFFA2
:100C4000FFFFFF000003FFFE0000000000FFFFFFAA
:100C5000FFFFFFFE0000FFFFFE00000000003FFF5F
:100C6000FFFFFFFFFE001FFFFFFE00000000001F50
:100C7000FFFFFFFFFFFC03FFFFFFFE00000000007F
:100C800007FFFFFFFFFFFC3FFFFFFFFE000000002C
:100C90000003FFFFFFFFFFFFFFFFFFFFFC0000005F
:100CA000000000FFFFFFFFFFFFFFFFFFFFFC000052
:100CB000000000007FFFFFFFFFFFFFFFFFFFF83F87
:100CC000F4000000001FFFFFFFFFFFFFFFFFFFC05A
:100CD000FFFFFFFC00000FFFFFFFFFFFFFFFFFF81C
:100CE00000FFFFFFFFFFC003FFFFFFFFFFFFFFFF4E
:100CF0008000FFFFFFFFFFFFC3FFFFFFFFFFFFFFBE
:100D0000F00000FFFFFFFFFFFFFFFFFFFFFFFFFF00
:100D1000FF0000007FFFFFFFFFFFFFFFFFFFFFFF60
:100D2000FFE00000003FFFFFFFFFFFFFFFFFFFFFAF
:100D3000FFFE000000001FFFFFFFFFFFFFFFFFFFA0
:100D4000FFFFC00000000000FFFFFFFFFFFFFFFFED
:100D5000FFFFFC0000000000000000BFFFFFFFFFDE
:100D6000FFFFFFC000000000000000000000003F87
:100D7000FFFFFFFFFF400000000000000000000038
:100D800003FFFFFFFFFFFFFFFD000000000000006A
:100D90000007FFFFFFFFFFFFFFFFFF8000000000D5
:100DA00000000FFFFFFFFFFFFFFFFFFFE00000005D
:100DB0000000003FFFFFFFFFFFFFFFFFFFF000000D
:100DC00000000000FFFFFFFFFFFFFFFFFFFFFC0031
:100DD0000000000003FFFFFFFFFF87FFFFFFFFFC96
:100DE00000000000000FFFFFFFFFFFC07FFFFFFFBD
:100DF000FE00000000003FFFFFFFFFFFE007FFFFD6
:100E0000FFFF00000000007FFFCFFFFFFFF0007F2B
:100E1000FFFFFF0000000001FFFF9FFFFFFFF80042
:100E200007FFFFFF0000000007FFFE3FFFFFFFFC82
:100E300000007FFFFE000000001FFFFC7FFFFFFFA0
:100E4000FE000003FFFC000000003FFFF0FFFFFF7B
:100E5000FFFF8000003FE000000000FFFFE1FFDF38
:100E6000FFFFFFC0000003C000000003FFFF81FF81
:100E70009FFFFFFFE0000000000000000FFFFF03E6
:100E8000FF9FFFFFFFF0000000000000001FFFFCBD
:100E900007FF1FFFFFFFF8000000000000007FFFBA
:100EA000F80FFE3FDFFFFFFC00000000000000FF26
:100EB000FFE01FFC3FCFFFBFFE000000000000036B
:100EC000FFFFC01FFC3FCFFFCFFF0000000000006E
:100ED00007FFFF003FF83FC7FFC7FF80000000008B
:100EE000001FFFFE007FF03FC3FFE3FFC0000000D4
:100EF00000003FFFF800FFF03FC3FFF1FFF00000EC
:100F0000000000FFFFE000FFE07FC1FFF0FFF800FE
:100F100000000001FFFFC001FFC07FC1FFF83FFCE0
:100F20000000000001FFFF0003FF807F80FFFC1F27
:100F3000FE0000000003FFFE0007FF807FC0FFFCF3
:100F40000FFF0000000003FFF80007FF007F807F15
:100F5000FE07FF8000000003FFF0000FFE007F800F
:100F60003FFF03FFC000000003FFC0001FFE00FFA3
:100F7000803FFF01FFE000000001FF80003FFC0018
:100F8000FF801FFF807FF000000000FC00007FF862
:100F900000FF800FFFC03FF8000000000000007F4E
:100FA000F000FF800FFFC01FFC00000000000000E9
:100FB000FFF000FF8007FFE00FFF000000000000CF
:100FC00001FFE001FF8003FFF003FF80000000004D
:100FD0000003FFC001FF8003FFF001FF800000005D
:100FE000000003FF8001FF8001FFF8007F80000008
:100FF00000000007FF8001FF0000FFFC003FC00071
:10100000000000000FFF0001FF0000FFFC001FC0F8
:1010100000000000001FFE0003FF00007FFE000F25
:101020008000000000003FFC0003FF00003FFF00C5
:10103000030000000000003FFC0003FF00003FFF32
:1010400000000000000000007FF80003FF00001F08
:10105000FF8000000000000000FFF00003FF000020
:101060000FFF8000000000000001FFE00007FF000C
:101070000007FF8000000000000001FFC00007FF24
:10108000000007FF8000000000000003FF80000751
:10109000FE000003FF8000000000000003FF0000CE
:1010A00007FE000001FFC000000000000003FE007A
:1010B0000007FE000001FF8000000000000003FCAC
:1010C00000000FFE000000FF800000000000000193
:1010D000F800000FFE0000007F000000000000008C
:1010E000006000000FFE0000001C00000000000077
:1010F00000000000000FFE000000000000000000E3
:101100000000000000001FFE0000000000000000C2
:10111000000000000000001FFE00000000000000B2
:1011200000000000000000001FFE000000000000A2
:101130000000000000000000000FFE0000000000A2
:10114000000000000000000000000FFE0000000092
:10115000000000000000000000000007FC0000008C
:1011600000000000000000000000000007F8000080
:101170000000000000000000000000000001F0007E
:10118000000000000000000000000000000000C09F
:101190000000000000000000202611241FBECFEF39
:1011A000D1E2DEBFCDBF29E0AEE4B4E001C01D92C4
:1011B000A237B207E1F714E0A0E0B2E0E6E9F5E615
:1011C00000E00BBF02C007900D92AE34B107D9F713
:1011D00018E0CDECD8E004C02197FE010E948C2FCE
:1011E000CC3CD107C9F70E9475260C94C9320C94E7
:1011F00000003FB7F8948091D6069091D706A09151
:10120000D806B091D90626B5A89B05C02F3F19F086
:101210000196A11DB11D3FBFBA2FA92F982F882776
:10122000BC01CD01620F711D811D911D42E0660F51
:10123000771F881F991F4A95D1F708958F929F9223
:10124000AF92BF92CF92DF92EF92FF926B017C013F
:101250000E94F9084B015C01C114D104E104F104BE
:10126000B9F00E94F908681979098A099B09683E52
:1012700073408105910580F321E0C21AD108E1088D
:10128000F10888EE880E83E0981EA11CB11CE4CF03
:10129000FF90EF90DF90CF90BF90AF909F908F9096
:1012A00008952FB7F8946091D2067091D30680917B
:1012B000D4069091D5062FBF0895AF92BF92CF92DA
:1012C000DF92EF92FF920F931F93CF93DF936C0106
:1012D0007B018B01040F151FEB015E01AE18BF08E7
:1012E000C017D10759F06991D601ED91FC91019099
:1012F000F081E02DC6010995892B79F7C501DF91B1
:10130000CF911F910F91FF90EF90DF90CF90BF9002
:10131000AF900895FC01218D328D838D948DA901AC
:10132000481B590BCA01917008952091F506309120
:10133000F6068091F7069091F806281B390B31705C
:1013400081E0232B09F480E00895FC01558D468D42
:10135000252F30E0842F90E0821B930B541710F060
:10136000CF96089501970895FC01218D328D838DCC
:10137000948D2817390779F0A38DB48DAE0FBF1F58
:101380005F968C91238D348D2F5F3F4F3170348F5A
:10139000238F90E008958FEF9FEF0895FC01218D3A
:1013A000328D838D948D2817390739F0838D948D74
:1013B000E80FF91F878D90E008958FEF9FEF089554
:1013C000FC01A68DA80FB92FB11DA15EBD4F2C91B8
:1013D000868D90E001968F739927868FA689B789AD
:1013E0002C93A089B1898C91837080648C93958DA6
:1013F000868D981306C00288F389E02D80818F7D49
:1014000080830895EF92FF920F931F93CF93DF9302
:10141000EC0181E0888F9D8D8E8D98131AC0E8892C
:10142000F989808185FF15C09FB7F894EE89FF89FF
:101430006083E889F98980818370806480839FBF9D
:1014400081E090E0DF91CF911F910F91FF90EF909D
:101450000895F62E0D8D10E00F5F1F4F0F731127AB
:10146000E02E8E8D8E110CC00FB607FCFACFE889E6
:10147000F989808185FFF5CFCE010E94E009F1CF87
:10148000ED8DEC0FFD2FF11DE15EFD4FF0829FB75A
:10149000F8940D8FEA89FB8980818062CFCF0F930A
:1014A0001F93CF93DF938C01D0E0C0E0F801EC0FE5
:1014B000FD1F6491662341F08CED96E00E94020AC4
:1014C000892B11F02196F2CFCE01DF91CF911F91A0
:1014D0000F910895CF93DF93EC01888D8823B9F0A5
:1014E000AA89BB89E889F9898C9185FD03C080812F
:1014F00086FD0DC00FB607FCF7CF8C9185FFF2CFAC
:10150000808185FFEDCFCE010E94E009E9CFDF9118
:10151000CF91089580E090E0892B29F00E949509F1
:1015200081110E94000080E090E0892B49F080E06A
:1015300090E0892B29F00E94000081110E94000098
:1015400080E090E0892B49F080E090E0892B29F041
:101550000E94000081110E94000080E090E0892B31
:1015600049F080E090E0892B29F00E940000811171
:101570000C94000008950F931F93CF93DF93EC0119
:101580008B01FE0184913196649122968F3799F4F4
:1015900070E090E080E00E941E0960E0E62FF0E03D
:1015A00032960E1B1F0B101611065CF3DF91CF91C4
:1015B0001F910F910895A1985F9812B888B9A298C9
:1015C000A298A29A90E080E0861760F4FE01E80FEE
:1015D000F91FE4915F9A12B8E8B9A298A298A29A6A
:1015E0000196F2CFC60FD11DA19AD8CFA1985F98CE
:1015F00092B988B9A298A298A29A5F9AFA0161500A
:1016000038F0819112B888B9A298A298A29AF7CF1F
:10161000A19A0895A1985F9892B988B9A298A298C2
:10162000A29A5F9A72B968B9A298A298A29AA19A4E
:10163000089581E08093DA068FEF87B981B9EAE0F7
:10164000F1E08081806480839A9A579A999A989A57
:10165000A19AEBE0F1E0808180648083A29AA09A55
:1016600062E370E080E090E00E941E09A09864E6CA
:1016700070E080E090E00E941E09A09A64E670E0AD
:1016800080E090E00E941E0970E060E080EB90E056
:101690000C940A0B1F93CF93DF93C82F162F8091C2
:1016A000DA06811102C00E94190BA1985F9812B846
:1016B000C8B9A298A298A29A5F9A17B811B861E027
:1016C00070E080E090E00E941E0980910B01806430
:1016D00080930B0180910B018F7B80930B01809194
:1016E0000B018F7B80930B0180910B018F7B80938B
:1016F0000B01C0B186B1DC2FC82F80910B01806433
:1017000080930B01CF3FD10509F020F561E070E037
:1017100080E090E00E941E0980910B01806480931C
:101720000B0180910B018F7B80930B0180910B014A
:101730008F7B80930B0180910B018F7B80930B013A
:1017400080B196B180910B01806480930B01292FA9
:101750003C2FE901115008F0B8CF80910B01806453
:1017600080930B01A19A17B911B9CE01DF91CF91E6
:101770001F9108950F931F93CF93DF938C0160E027
:101780000E944A0BEC0161E0C8010E944A0B8C01E7
:10179000BE0190E080E0CB017727662730E020E0B3
:1017A000602B712B822B932BDF91CF911F910F9187
:1017B0000895FF920F931F93CF93DF938C0160E006
:1017C0000E944A0BEC0161E0C8010E944A0BF82E0E
:1017D00062E0C8010E944A0BAE0170E060E0742F25
:1017E00066275527442700E030E020E0402B5F29A2
:1017F000622B732B292F30E0C901B0E0A0E08A01F1
:101800009B01082B192B2A2B3B2BC901B801DF9117
:10181000CF911F910F91FF9008950F931F93CF9336
:10182000DF93EC018B01FE0185919491FE013296CC
:101830002496659174918F3F980771F490E080E051
:101840000E941E09045011091016110664F3DF915D
:10185000CF911F910F9108950E940A0BF3CFFC01C5
:10186000262F358D868D82958170982F9627692F2A
:1018700070E072A361A330FF0CC0821307C080E246
:1018800090E050E040E060E00C94F60A81E290E0E5
:10189000F8CF878D90A1833927E7920741F058F45C
:1018A000843521E0920791F080329445C1F4626062
:1018B00081E094E012C0863223E99207C1F38930B7
:1018C00025EB9207A1F38532924949F4660F771F01
:1018D000660F771F636187E090E00C940A0B81E646
:1018E00090E0FBCF8F929F92AF92BF92CF92DF9208
:1018F000EF92FF920F931F93CF93DF9300D000D00E
:10190000CDB7DEB77C014B015A016901FC01878D1F
:1019100090A18632954151F4F701868980FF06C077
:10192000C801841B950B81F50F5F1F4FF701858D53
:1019300080FF31C085A599828A82DB82CC82AE018C
:101940004F5F5F4F64E090E00E94F60AF70181A9C3
:10195000B982AA821B830C83AE014F5F5F4F64E0A4
:1019600090E00E94F60A0F900F900F900F90DF9179
:10197000CF911F910F91FF90EF90DF90CF90BF908C
:10198000AF909F908F9008952617370779F6C80E6D
:10199000D91E8A01CBCFB40187A190A50E940A0B62
:1019A000B501F70181A592A50E940A0BC814D904BC
:1019B00019F40A151B05B9F2F701858D85FF08C0DA
:1019C000868980FF1EC0102F0027A02AB12A85011A
:1019D000B401F70185A596A50E940A0BB501F70190
:1019E00081A992A90E940A0BB601F70187A590A9C7
:1019F0000E940A0BB801F70183A994A90E940A0B5F
:101A0000B2CFDC2CCC248C289D286401E1CFAF928E
:101A1000BF92CF92DF92EF92FF920F931F93CF93DB
:101A2000DF93EC0180913805882349F0C701880FC6
:101A3000991F8E739927E1ECEE22E82AF92A37FFE5
:101A400005C0620F731F319521953109260F371F8D
:101A500077FF02C070E060E0888599852817390714
:101A60000CF4C9016C01C61AD70A17FF05C0400F54
:101A7000511F119501951109040F151F57FF02C041
:101A800050E040E02A853B85021713070CF49801CB
:101A90005901A41AB50A8901015011099C0121506C
:101AA0003109CE010E94720CA1985F988CA582B971
:101AB0008BA588B9A298A298A29A5F9ACA14DB044F
:101AC0002CF09A2D8B2D5601C92ED82E3F2DC501F5
:101AD00023E0959587952A95E1F71C141D045CF584
:101AE00032B9E8B89A2D97708823D9F0282FA29898
:101AF000A298A29AA298A298A29AA298A298A29A10
:101B0000A298A298A29AA298A298A29AA298A29801
:101B1000A29AA298A298A29AA298A298A29A2150B8
:101B200031F7915020F421E0C21AD108D6CFA29803
:101B3000A298A29AF6CFA19A8D8D80FF08C08F8DB2
:101B400098A18632954191F48E8980FF0FC00A8555
:101B50001B8501501109288539852150310950E034
:101B600040E070E060E0CE010E94720CDF91CF9106
:101B70001F910F91FF90EF90DF90CF90BF90AF90AB
:101B80000895EF92FF920F931F93CF93DF937C0101
:101B9000E90177FD2AC057FD28C0FC0180859185A9
:101BA0006817790714F58285938548175907ECF46F
:101BB00080913805882341F0C901880F991F8E73E1
:101BC0009927C17CC82BD92B8A019B01C7010E9490
:101BD000720CBE01F70183A594A5DF91CF911F91EF
:101BE0000F91FF90EF900C940A0BDF91CF911F9112
:101BF0000F91FF90EF900895EF92FF920F931F9334
:101C0000CF93DF93CDB7DEB72A970FB6F894DEBF38
:101C10000FBECDBF7C01862F8370F701868B962F78
:101C2000917060FFE3C026813781F70131872087FB
:101C3000992309F4DEC024813581F7013387228797
:101C4000823009F4DBC0833009F4DAC0813009F452
:101C5000D3C088E48A87F701858D968D90FF03C0F5
:101C60002A8520582A8791FF04C02A8530E423273B
:101C70002A8793FF04C02A8538E023272A87F701A3
:101C8000278D30A180FF00C12431F8E63F0709F01D
:101C9000B9C09A85892F88728A871F82892F859576
:101CA0008074282F2260892F90E095958795807207
:101CB0009927822B88878BE38987AE01495F5F4F25
:101CC00063E086EB90E00E94F60A2AE230E0F7013A
:101CD00030A727A38BE290E092A781A74CE250E0C7
:101CE00054A743A736A725A730AB27A792AB81AB54
:101CF00094AB83ABAE01465F5F4F61E086E390E05B
:101D00000E94F60A8A8590E0F70194A383A3F70165
:101D1000868980FF1CC0858D968D92FD18C087A195
:101D200090A521A532A530A727A392A781A785A5B5
:101D300096A521A932A936A725A792AB81AB87A585
:101D400090A923A934A930AB27A794AB83ABF701A3
:101D500002851385015011092085318521503109F3
:101D600050E040E070E060E0C7010E94720CF701B3
:101D700066817781878D90A120E08732F3E99F0704
:101D800009F420E2F701358D30FF39C119821A823A
:101D90007B836C831D822E83AE014F5F5F4F66E0B5
:101DA00083E390E00E94F60A19821A82AE014F5F27
:101DB0005F4F62E087E390E00E94F60AF701858DAD
:101DC00080FF07C050E040E060E083E190E00E94C7
:101DD000F60A2A960FB6F894DEBF0FBECDBFDF918C
:101DE000CF911F910F91FF90EF900895248135813D
:101DF0001CCF2681378121CF88E22CCF88E92ACFDA
:101E000088EF28CF273243E9340789F41F8281E322
:101E100088878A8585958595859585958870898734
:101E2000AE01495F5F4F63E080EC90E04CCF23361A
:101E300089E1380749F02138E4E93E0729F02131EA
:101E4000F5E13F0709F041CF8A8587FF02C0816035
:101E50008A878A8586FF02C082608A878A858F7317
:101E6000233649E1340731F0213884E9380721F479
:101E70008A858F728A8729CF2131354109F025CF94
:101E80008A858F7E806CF6CF6A85862F062E000CA1
:101E9000990B2339F7E73F0751F0A8F52435E1E026
:101EA0003E0709F45CC02032F4E53F07A1F540E0AD
:101EB00052E0F70150A747A341E052E052A741A7E3
:101EC00042E052E054A743A740E152E056A745A79D
:101ED00041E152E050AB47A742E152E052AB41AB87
:101EE00043E152E054AB43AB882790782632F3E9C4
:101EF0003F0721F02032344509F071C067FD84604E
:101F000060E071E36EC0263243E9340781F2293084
:101F1000E5EB3E0761F220E230E0F70130A727A3AE
:101F200021E230E032A721A722E230E034A723A744
:101F300020E530E036A725A721E530E030AB27A724
:101F400022E530E032AB21AB23E530E034AB23AB0C
:101F5000BC0166277078776280E690E046C027E390
:101F600030E0F70136A725A726E330E030AB27A7FE
:101F700029E330E032AB21AB28E330E034AB23ABD4
:101F800020E230E030A727A321E230E032A721A7EA
:101F900022E230E034A723A7F4E06F9FB0011124C0
:101FA00066277170882792708862682B792B81E090
:101FB00090E00E940A0B8A85682F70E075956795FE
:101FC000759567956870772783FD70616063F70189
:101FD00074A363A383E090E00E940A0B98CE60E0B4
:101FE00072E6682B792B80E094E00E940A0B6A85E8
:101FF000F4E06F9FB001112466277170D8CF833948
:10200000F7E79F07D9F1F0F4803244E59407B1F186
:102010008338E7E79E0731F184359140F1F4615050
:10202000710981E390E00E940A0B70E060E082E3B6
:1020300090E00E940A0B70E060E083E390E00E9471
:102040000A0BC7CE863223E99207C1F0893045EBEF
:102050009407A1F08532924911F3F70161A172A1B1
:10206000626003C0F70161A172A181E690E00E9465
:102070000A0B70E060E08AE690E0E1CFF70161A131
:1020800072A1626081E094E00E940A0B70E060E05F
:1020900084E094E0D4CF0895FC016370668B848162
:1020A000958126813781613039F0633029F091873D
:1020B0008087338722870895318720879387828797
:1020C00008952F923F924F925F926F927F928F92DC
:1020D0009F92AF92BF92CF92DF92EF92FF920F93B7
:1020E0001F93CF93DF93CDB7DEB76A970FB6F894FF
:1020F000DEBF0FBECDBF9A8F898F7A8369834A0175
:10210000D22E18870F833701BC2CDC0159962D91F4
:102110003C915A972115310509F015C118968D91FA
:102120009C911997681779070CF0D7C11A968D9171
:102130009C91481759070CF0D0C14C2C512CB6E09B
:10214000CB9E600D711D11247C876B8716161706B8
:102150000CF0C3C1EA2DF0E0FA87E98793E0EE0FB7
:10216000FF1F9A95E1F7F88BEF87CF01840F951F3A
:10217000181619060CF0B1C1A98DBA8D58968C911C
:10218000811104C0BFEABD1508F4D394A98DBA8D9E
:10219000ED91FC9111970284F385E02DCD01099515
:1021A000B5E0DB9EC0011124E981FA81FC83EB8359
:1021B000312C212C9C0121513F4F388F2F8B4A2DE0
:1021C00050E05E8B4D8BEF89F88DE20DF31D44914D
:1021D0009E828D82D12CC12C69817A81620D731D02
:1021E0007A8B698B842F90E09C8B8B8BE98DFA8D99
:1021F000A081B18140FF82C0F1E0BF126FC0AF1279
:102200006DC01C96ED91FC912F813885A4014C0D79
:102210005D1D69897A89898D9A8D0995EB89FC897B
:10222000F595E7954E2F5FEFC51AD50A6D817E8132
:102230008D899E89680F791F7E836D8398E0C9160A
:10224000D10481F6AFEF2A1A3A0AEB81FC81E40D42
:10225000F51DFC83EB83F5E02F16310409F0B3CFB5
:102260002F81388526153705B9F0A98DBA8DED91E6
:10227000FC91B1E0BB1257C0AB1255C069817A81A5
:102280006B5F7F4F0088F189E02D830128E030E00B
:10229000A401898D9A8D0995A98DBA8DED91FC9136
:1022A00011970688F789E02DCD016A960FB6F8944C
:1022B000DEBF0FBECDBFDF91CF911F910F91FF9079
:1022C000EF90DF90CF90BF90AF909F908F907F90D6
:1022D0006F905F904F903F902F9009941E96ED91D4
:1022E000FC91EF80F88409851A8592014D815E8109
:1022F0006B817C81898D9A8D099590CF2F8138854E
:102300002615370509F48ACF31E0B31207C0A312AE
:1023100005C01C96ED91FC91930178CF1E96ED912E
:10232000FC917301E0CF6B857C8564197509068487
:10233000F785E02D73010F8518899201A401898D1D
:102340009A8D0995A9CFF9013496949132974591C8
:102350005491D91AB7E0DB9E400D511D1124F901AB
:10236000259134913C8B2B8BFA0125903490FA0106
:102370003296749031963491398B329664903196BE
:10238000449041E04C1518F04A1508F07FC0662DC6
:10239000062C000C770B7C836B83842D042C000CA3
:1023A000990B9E838D83A98DBA8DED91FC91119728
:1023B0000284F385E02DCD010995512CD12CC12C3F
:1023C000EA2DF0E0FA87E9872B2D30E03C872B8758
:1023D000A401440D511D47FC5A95588F4F8B6981BC
:1023E0007A81660D711D67FC7A957E876D87798984
:1023F000C71608F051CF2C2D30E04D815E81420F81
:10240000531FA985BA854A9FC0014B9F900D5A9FC3
:10241000900D1124FC01E80DF91DF88BEF87852D37
:10242000612C4F89588D420F531F5E8B4D8B671463
:1024300008F050C044244394480E877041F4C10111
:102440000196EB89FC89E20DF31DD4901C01D7FEA7
:1024500019C0A98DBA8DED91FC91662D70E0B1E0A7
:10246000BB1219C0AB1217C02D853E85620F731FBA
:102470000484F585E02D2F8138854D895E89898D0D
:102480009A8D0995DD0C6394842DD1CF1E821D8217
:102490001C821B8288CF4B815C81640F751FAB85CA
:1024A000BC856A9FC0016B9F900D7A9F900D11248F
:1024B00069817A81680F791F0684F785E02DEF80A6
:1024C000F88409851A859D014F855889898D9A8DD3
:1024D0000995D8CF570CC3948ACF6A960FB6F89453
:1024E000DEBF0FBECDBFDF91CF911F910F91FF9047
:1024F000EF90DF90CF90BF90AF909F908F907F90A4
:102500006F905F904F903F902F9008958F929F9281
:10251000AF92CF92EF92FF920F931F93CF93DF93DF
:10252000EC01262F898D9A8D009709F051C06A30F1
:10253000D1F41D861C868D8948E0849F900111246A
:102540008E859F85820F931F9F878E8781E090E005
:10255000DF91CF911F910F91FF90EF90CF90AF90AF
:102560009F908F9008956D3089F3CC88AD888F89C6
:102570008823C1F08C859D8536E0C39E800D911D1A
:102580001124488559854817590764F44E855F859D
:102590001D861C8638E0A39EC0011124840F951F60
:1025A0009F878E87EA88FB88088919894E855F8511
:1025B0006C857D85CE010E9461102C898C859D855E
:1025C00046E0249F800D911D11249D878C87BECFEE
:1025D0006A3069F41D861C86FC013896E4912D89C9
:1025E0008E859F85E29F800D911D1124ADCF6D30AA
:1025F00009F4ACCFFC0134963491631708F4A6CFEC
:102600003296E491E61708F4A1CFFC01329685904A
:102610009490462F431B342F47E0349F800C911C2D
:102620001124F401329634913196E4913323A9F1C7
:10263000EE2399F1CC88F4013596E491AD884F8969
:10264000442301F10E2E000CFF0BE30FF11DCE9E73
:10265000A001CF9E500D11246C857D85460F571F1C
:1026600068857985641775076CF44E855F851D86CE
:102670001C86FC013896E491AE9E400D511D11243C
:102680005F874E87EA88FB88088919894E855F85B0
:102690006C857D85CE010E946110F4013496E49131
:1026A0002C898C859D85E29F800D911D11248DCFF5
:1026B0006F927F928F929F92AF92BF92CF92DF9252
:1026C000EF92FF920F931F93CF93DF93EC016B0177
:1026D0005A0139014801E881F9810284F385E02D2E
:1026E0000995E881F9810288F389E02D870193013A
:1026F000A501B601CE010995A501480D591D41500E
:102700005109E881F9810288F389E02D9301B6012E
:10271000CE010995E881F9810088F189E02D9401C5
:10272000A501B601CE010995C60CD71CB6016150B2
:102730007109E881F9810088F189E02D9401A501F2
:10274000CE010995E881F9810688F789E02DCE014F
:10275000DF91CF911F910F91FF90EF90DF90CF907D
:10276000BF90AF909F908F907F906F9009946F92E1
:102770007F928F929F92AF92BF92CF92DF92EF9211
:10278000FF920F931F93CF93DF935C01EB016A01DC
:10279000490138018701DC01ED91FC916217730753
:1027A00019F5641675062CF0962D872D3A01C92E61
:1027B000D82E9601261937092F5F3F4F048CF58DCF
:1027C000E02DA301BE01C5010995DF91CF911F91B5
:1027D0000F91FF90EF90DF90CF90BF90AF909F90C0
:1027E0008F907F906F9008954615570591F42617A6
:1027F000370724F0892D4B01C22FD82F9E012819AD
:1028000039092F5F3F4F068CF78DE02DA601B401EB
:10281000DACF0284F385E02D0995D501ED91FC9185
:102820000488F589E02D83019401A601BE01C5014C
:102830000995D501ED91FC910688F789E02DC50138
:10284000DF91CF911F910F91FF90EF90DF90CF908C
:10285000BF90AF909F908F907F906F900994EF9270
:10286000FF920F931F93DC011A960D911C911B97F9
:1028700018962D913C911997ED91FC9100A0F1A132
:10288000E02D7B0150E040E070E060E009951F9191
:102890000F91FF90EF9008954F925F926F927F9209
:1028A0008F929F92AF92BF92CF92DF92EF92FF9260
:1028B0000F931F93CF93DF936C012B015A013901C2
:1028C0004801DC01ED91FC910284F385E02D09952E
:1028D000E201640C751CD601ED91FC91C615D7057B
:1028E0005CF40088F189E02D87019401A501BE0107
:1028F000C60109952196EFCF0688F789E02DC6011C
:10290000DF91CF911F910F91FF90EF90DF90CF90CB
:10291000BF90AF909F908F907F906F905F904F90FF
:1029200009948F929F92AF92BF92CF92DF92EF92D3
:10293000FF920F931F93CF93DF93EC015B014A014A
:102940006901E881F9810284F385E02D09959501FB
:102950002C0D3D1D21503109E881F9810488F5894C
:10296000E02D78018401A401B501CE010995E8812B
:10297000F9810688F789E02DCE01DF91CF911F9173
:102980000F91FF90EF90DF90CF90BF90AF909F900E
:102990008F9009948F929F92AF92BF92CF92DF92C5
:1029A000EF92FF920F931F93CF93DF93EC015B01A4
:1029B0004A0169017801E881F9810284F385E02DFB
:1029C0000995C80CD91C860101501109E881F981CB
:1029D0000488F589E02D9501A401B501CE01099582
:1029E000E881F9810688F789E02DCE01DF91CF914A
:1029F0001F910F91FF90EF90DF90CF90BF90AF901D
:102A00009F908F9009940895EF92FF920F931F93D8
:102A1000DC01ED91FC9100A0F1A1E02D09951F9141
:102A20000F91FF90EF9008950F931F93DC01ED91AC
:102A3000FC91068CF78DE02D09951F910F9108955B
:102A40000F931F93DC01ED91FC91048CF58DE02D2B
:102A500009951F910F9108952F923F924F925F9287
:102A60006F927F928F929F92AF92BF92CF92DF929E
:102A7000EF92FF920F931F93CF93DF93CDB7DEB703
:102A800028970FB6F894DEBF0FBECDBF3C017E8302
:102A90006D8358874F83690181E090E02C01441ACF
:102AA000550ACA019195819591099C01220F331F06
:102AB0003C832B831A0181E090E09A838983F12C77
:102AC000E12C57FC0DC08F819885019798878F83E3
:102AD0002B813C812E5F3F4F3C832B83420E531E44
:102AE0003FEFE31AF30A89819A8102969A838983D8
:102AF000480E591E2F8138852E153F050CF466C0EF
:102B00004901880C991C3FEF831A930A86019401AE
:102B1000AD80BE808F819885A81AB90AA501B7013A
:102B2000660D771D8BE399E00E9420159401A501A5
:102B3000B3016E197F098BE399E00E9420152F8164
:102B400038852215330519F1AA24A394B12CAE18A7
:102B5000BF088D819E81A80EB91EB301620D731D41
:102B6000860189809A8092E0891A91089401A501D2
:102B70008BE399E00E942015B30162197309940157
:102B8000A5018BE399E00E9420152F8038842F81C6
:102B90003885E216F3060CF494CF28960FB6F89415
:102BA000DEBF0FBECDBFDF91CF911F910F91FF9080
:102BB000EF90DF90CF90BF90AF909F908F907F90DD
:102BC0006F905F904F903F902F9008952F813885A0
:102BD0002215330509F0B8CFE0CFDC01ED91FC916F
:102BE0000084F185E02D09942F923F924F925F92DD
:102BF0006F927F928F929F92AF92BF92CF92DF920D
:102C0000EF92FF920F931F93CF93DF9300D000D0EA
:102C100000D0CDB7DEB73C016A013E832D83FC8234
:102C2000EB825801A41AB50AB7FE03C0B194A1946F
:102C3000B1088D809E80861A970A97FE03C09194F2
:102C4000819491088A149B045CF0902F812F0D8150
:102C50001E819D838E839C2D8D2D6B01692F782F76
:102C60000C151D055CF09D818E817E836D83692F1F
:102C7000782F902F812F8601C92ED82E1601201A69
:102C8000310A2B012D813E81421A530A57FE03C09F
:102C9000519441945108710137FE03C03FEFE31A8C
:102CA000F30AF594E7948D819E81861797075CF56A
:102CB000A1E0B0E0BA83A983C016D1064CF1D301DC
:102CC000ED91FC910484F585E02D2B813C81A801D8
:102CD0006D817E818A149B041CF04D815E81B80158
:102CE000C3010995E418F508F7FE0AC02D813E815D
:102CF00089819A81280F391F3E832D83E20CF31CB2
:102D00000F5F1F4FD9CF2FEF3FEF3A832983D4CFE7
:102D100026960FB6F894DEBF0FBECDBFDF91CF91E0
:102D20001F910F91FF90EF90DF90CF90BF90AF90E9
:102D30009F908F907F906F905F904F903F902F90DB
:102D40000895089590E080E008958091CA06882350
:102D500051F080912706882329F08091080691E0A0
:102D60008927089580E00895EF92FF920F931F93B3
:102D7000E091DB06EE2321F0169507950F7E1B7779
:102D8000780189019A01AB01BC018BE399E00E94B3
:102D9000070D1F910F91FF90EF900895EF92FF9212
:102DA0000F931F93DC011A960D911C911B97189697
:102DB0002D913C911997ED91FC9100A0F1A1E02D8E
:102DC0007B0150E040E070E060E009951F910F91B9
:102DD000FF90EF90089570E060E08BE399E00C9431
:102DE000CE16EF92FF920F931F93DC01ED91FC91B1
:102DF00000A0F1A1E02D780101E010E009951F91FC
:102E00000F91FF90EF9008950F931F93E091DB06D1
:102E1000EE2321F0369527952F7E3B7789019A0185
:102E2000AB01BC018BE399E00E94F1161F910F9159
:102E30000895AF92BF92CF92DF92EF92FF920F93DD
:102E40001F93CF93DF936C017B0110E000E030E82B
:102E5000A32EB12C8FEF9FEFD0E0C0E0C838D10592
:102E600009F446C0FE0123E0F595E7952A95E1F7C0
:102E7000E00FF11FE057F74FE4919E0127703327D1
:102E8000A50102C0559547952A95E2F79A01F0E011
:102E9000E423F323EF2BE1F08F3F980709F4CE01F1
:102EA0002196C938D105D1F64FEFE41AF40A0F5E26
:102EB0001F4F083059E0150769F6DF91CF911F9138
:102EC0000F91FF90EF90DF90CF90BF90AF9008955B
:102ED0008F3F980729F3AE01481B590B2AEA3BEDB7
:102EE000B7018C0D9D1D0E9404178FEF9FEFD8CF67
:102EF0008F3F980781F7D8CFEF92FF920F931F93E0
:102F0000DC01ED91FC9100A0F1A1E02D7801890197
:102F100021E030E009951F910F91FF90EF90089507
:102F20002F923F924F925F926F927F928F929F92D9
:102F3000AF92BF92CF92DF92EF92FF920F931F93C7
:102F4000CF93DF9300D01F92CDB7DEB79B838A83E8
:102F50004B012A013901B02E1983860197012536CC
:102F6000310510F024E630E0D2010E94A42F24E6BF
:102F700030E040E050E00E946D2F69011901AA2065
:102F800099F09301A601B4018A819B810E94B41635
:102F900004E211E29301A2014C195D09B4018A8196
:102FA0009B818C0D9D1D1EC02B2D39812536310531
:102FB00010F024E630E0D2010E94A42F24E630E095
:102FC00040E050E00E946D2F221533050CF066C0E2
:102FD000B601621B730B8A819B81820F931F930141
:102FE000AB01B4010E94B4162BE430E0D2010E9480
:102FF000A42F24E630E040E050E00E946D2F6A816B
:103000007B81620F731F8A819B81C80ED91EC616F1
:10301000D70674F48091DB0608E012E4811102C047
:1030200000E114E89301A4018BE399E00E947C176E
:103030002AE530E0D2010E94A42F24E630E040E0EF
:1030400050E00E946D2F6A817B81620F731FC6164C
:10305000D70674F48091DB0608E012E4811102C007
:1030600000E114E89301A4018BE399E00E947C172E
:103070000F900F900F90DF91CF911F910F91FF90C4
:10308000EF90DF90CF90BF90AF909F908F907F9008
:103090006F905F904F903F902F90089522163306C7
:1030A0003CF7A9014C195D0904E211E2930176CFC6
:1030B000482FE92F9B01603187E2780738F1CB0177
:1030C00068EE73E00E94232FCB016AE070E00E945B
:1030D000232F9F938F93C90160E177E20E94232FF2
:1030E0007F936F938DE692E09F938F931F928AE078
:1030F0008F93EF934F930E94E52F8DB79EB70A965B
:103100000FB6F8949EBF0FBE8DBF0895CB016AE045
:1031100070E00E94232F9F938F937F936F9385E797
:1031200092E09F938F931F928AE08F93EF934F9338
:103130000E94E52F8DB79EB70A960FB6F8949EBFF2
:103140000FBE8DBF08950E94AB2FFB0101900020A0
:10315000E9F73197AF01461B570BDC01ED91FC916C
:103160000280F381E02D09948F929F92AF92BF92DB
:103170000F931F93CF93DF93CDB7DEB7A1970FB611
:10318000F894DEBF0FBECDBF19A2423008F44AE06A
:103190008E010F5D1F4F842E912CB12CA12CA50107
:1031A00094010E944B2FE62FB901CA01EA3004F5C1
:1031B000E05DD801EE938D01232B242B252B79F78D
:1031C00090E080E0109729F0BD018CED96E00E9420
:1031D000A518A1960FB6F894DEBF0FBECDBFDF9144
:1031E000CF911F910F91BF90AF909F908F900895B6
:1031F000E95CDFCFCF92DF92EF92FF92CF93DF9324
:103200006B017C016DE28CED96E00E94020AEC01FC
:1032100066277727CB016C197D098E099F094AE043
:103220000E94B4188C0F9D1FDF91CF91FF90EF90FB
:10323000DF90CF900895CF93DF930E944F0AEC0167
:103240006CE772E08CED96E00E94A5188C0F9D1F34
:10325000DF91CF910895CF93DF93BC01990F880B35
:10326000990B97FF0EC00E94FA18EC016CE772E010
:103270008CED96E00E94A5188C0F9D1FDF91CF91D9
:1032800008954AE00E94B418F0CF0F931F93509115
:10329000DB06552321F0369527952F7E3B7730931B
:1032A0004E0920934D0930934C0920934B094093CC
:1032B0004F094093500990934809809347097093B0
:1032C0004A09609349090115110539F0B8018BE3EA
:1032D00099E01F910F910C94A5181F910F910895DB
:1032E000EF92FF920F931F93CF93DF93EC017A013C
:1032F00002EA10E12AE230E0AB0162E071E00E94F4
:10330000B416870120E134E841E067E071E0CE01C6
:1033100008960E944519DF91CF911F910F91FF9060
:10332000EF900895CF92DF92EF92FF920F931F9349
:10333000CF93DF936A017901EC012896AB014051EC
:10334000510902EA10E120E130E065E171E0CE01CF
:103350000E94B4168601970142E065E171E0CE015A
:103360000E944519DF91CF911F910F91FF90EF902F
:10337000DF90CF900895AF92BF92DF92EF92FF92CD
:103380000F931F93CF93DF93CDB7DEB7A4970FB6FC
:10339000F894DEBF0FBECDBF4CEDA42EB12CD12CC6
:1033A0008091F20534E2E32E31E2F32E8D1104C058
:1033B000EE24EA9425E0F22E8091DB06882331F09A
:1033C000F694E794E894E4F88BE7F822870129E083
:1033D00030E043E351E0B5018BE399E00E94201512
:1033E000970144E050E067E371E0C5010E942C15AD
:1033F000D39494E1A90EB11C83E0D812D1CF10E090
:1034000000E02AE030E044EB50E062E371E08CE061
:1034100090E00E94B4168091050281113BC084E8BF
:1034200092E09F938F93E091F205F0E0EE0FFF1F83
:10343000E95EFD4F81818F9380818F938BE892E0CD
:103440009F938F931F9284E28F938E010F5F1F4F84
:103450001F930F930E94E52F20E134E841E063E3DE
:1034600071E08CE090E00E9445190FB6F894DEBF41
:103470000FBECDBFA4960FB6F894DEBF0FBECDBF72
:10348000DF91CF911F910F91FF90EF90DF90BF9050
:10349000AF9008958FE792E0C4CF0F931F93CF931F
:1034A000DF93F90101900020E9F73197E21BF30B5C
:1034B00076E07E9FE0017F9FD00D11246C9FD001AC
:1034C0006D9FB00D1124E0EEF1E0EA1BFB0BF7FD60
:1034D000319689019A01462FBC01CF0195958795B8
:1034E0000E944519DF91CF911F910F9108950F937D
:1034F0001F93F80101900020E9F73197E01BF10BD1
:1035000056E05E9FD0015F9FB00D11244A9FF001ED
:103510004B9FF00D11248E1B9F0B0E9445191F918C
:103520000F9108952F923F924F925F926F927F92E8
:103530008F929F92AF92BF92CF92DF92EF92FF92C3
:103540000F931F93CF93DF93CDB7DEB760970FB67E
:10355000F894DEBF0FBECDBF9C878B87488B0D874D
:10356000EE86CF864B0129013C0124E0620E711CDE
:10357000B12CCE0101961C019889B91609F48FC0AF
:10358000EF85E11119C0FD85BF16B0F4F4019785F0
:10359000F2018785981310C0F40120893189F20166
:1035A000808991892817390739F4B201C4010E9432
:1035B000C62F892B09F468C010E000E020E130E05C
:1035C00040E750E0B3018CE090E00E94B416840123
:1035D0002FEF3FEF42E0B3018CE090E00E944519ED
:1035E000F401E784F12CAA24A394CC24CA9485E0A6
:1035F000D82E10E000E020E130E04AEB50E0B301CB
:1036000080E890E00E94901720E130E044E550E02F
:10361000B30182E491E00E94B416F40160897189DB
:10362000C1010E94581881012FEF3FEF42E0B30122
:1036300086E991E00E94771A10E000E020E130E096
:1036400046E350E0B3018EE991E00E94B416F40124
:1036500087851F928F9325E932E03F932F931F9226
:103660009AE09F933F922F920E94E52F810120E1E3
:1036700034E842E0B30184ED91E00E94771A0FB67E
:10368000F894DEBF0FBECDBFB394F2E18F0E911C54
:1036900022E1420E511C3CE1630E711C6DCF8E8500
:1036A000B816F8F49F85911103C0ED85BE16C9F0D8
:1036B0002E852B19330BC9013CE1389FA001399F9E
:1036C000500D11246B857C85B39E600D711D1124F6
:1036D00010E000E09A0148EC51E08CE090E00E949C
:1036E000B41660960FB6F894DEBF0FBECDBFDF9163
:1036F000CF911F910F91FF90EF90DF90CF90BF90EF
:10370000AF909F908F907F906F905F904F903F9081
:103710002F900895AF92BF92CF92DF92EF92FF92D7
:103720000F931F93CF93DF93CDB7DEB72E970FB6CE
:10373000F894DEBF0FBECDBF0E94A516D82E809193
:10374000280600EEE02E03E0F02E823019F0E12C86
:1037500080ECF82EDD2029F080910106870181118F
:1037600002C003EE18E120E230E040EE51E070E0EC
:1037700060E090E080E00E94B41607EB12E02FEFCB
:1037800035E042E069E070E08AE090E00E9445198F
:103790000EEB12E02FEF3FEF42E069E070E08EE5C4
:1037A00090E00E944519DD2009F47EC08091280632
:1037B0001FE9C12E12E0D12E823021F4BAE9CB2EBE
:1037C000B2E0DB2E809127068230C0F01F928F93EB
:1037D000DF92CF9284EC92E09F938F931F928EE0C2
:1037E0008F938E010F5F1F4F1F930F930E94E52F42
:1037F0000FB6F894DEBF0FBECDBF68018091010601
:10380000811185C08091DB065701882331F0B69481
:10381000A794E894A4F89BE7B92285012BE030E057
:103820004BE050E06EEE70E08BE399E00E942015D3
:10383000950145E050E060E170E08EEE90E00E947E
:103840002C158601970142E069E070E08CEF90E072
:103850000E9445198091D006882331F08091AD06F1
:103860000DEA16E0811102C001EB12E02FEF3FEFED
:1038700042E069E070E086ED91E00E94771A809165
:10388000D0068093F0042E960FB6F894DEBF0FBEDC
:10389000CDBFDF91CF911F910F91FF90EF90DF90FF
:1038A000CF90BF90AF9008958091D00640E1E42E74
:1038B00044E8F42E59EAC52E52E0D52E882309F4A7
:1038C000A1CF80912506E82FF0E0EE0FFF1FE35F08
:1038D000FD4FC080D1809DEF980F36EAE32E39EF7F
:1038E000F32E923008F48ECF20E2E22E2DEFF22E4E
:1038F000823009F487CF70E1E72E74E8F72E81302B
:1039000009F080CF98EEE92E9FE2F92E7BCFEE24CE
:10391000EA94FE2C77CF8F929F92AF92BF92EF9254
:10392000FF920F931F93CF93DF93CDB7DEB7289706
:103930000FB6F894DEBF0FBECDBF182FE090000287
:10394000F09001028FEFE816F80609F10E94510984
:103950008090F2049090F304A090F404B090F504E9
:10396000681979098A099B0920E63AEE40E050E09F
:103970000E944B2FCA01B9016E0D7F1D811D911D43
:1039800020EA35E040E050E00E944B2F7B011123FC
:1039900021F10E94EB1664E170E08CEA90E00E9455
:1039A00019178091F604882349F026EF34E040E1AE
:1039B00054E862E08AEF90E00E944D1A2BEC32E06E
:1039C00044E251E261E084E291E00E944D1A8FEFFF
:1039D0009FEF9093030280930202809102029091E4
:1039E00003028E159F0521F1F0920302E09202027C
:1039F00010E000E020E330E040EF50E06AEB70E0E0
:103A000088E790E00E94B4168E010F5F1F4F9FEF72
:103A1000E916F906F1F461EB72E0C8010E94CF2FBC
:103A200098014FEF5FEF66E08AEB90E00E944D1A3D
:103A300028960FB6F894DEBF0FBECDBFDF91CF91B1
:103A40001F910F91FF90EF90BF90AF909F908F903C
:103A50000895C7016CE370E00E94232F9F938F931A
:103A60007F936F9381EE92E09F938F931F9288E0F4
:103A70008F931F930F930E94E52F0FB6F894DEBF2C
:103A80000FBECDBFCDCF77FF04C06FEF72E00C94B7
:103A9000CF2F9C016C337105ECF0CB016CE370E02F
:103AA0000E94372F9F938F937F936F938BEE92E0BB
:103AB0009F938F931F928AE08F933F932F930E943F
:103AC000E52F8DB79EB70A960FB6F8949EBF0FBE2E
:103AD0008DBF08957F936F9384EF92E09F938F93B0
:103AE0001F928AE08F933F932F930E94E52F8DB70B
:103AF0009EB708960FB6F8949EBF0FBE8DBF08956F
:103B00003F924F925F926F927F928F929F92AF926D
:103B1000BF92CF92DF92EF92FF920F931F93CF93BA
:103B2000DF93CDB7DEB7AE970FB6F894DEBF0FBE0A
:103B3000CDBF4C013B012A01B22E302EFB0120816A
:103B4000318196EAC92E99EFD92E2A35310558F4DC
:103B500048EEC42E4FE2D42E2B34310520F080E203
:103B6000C82E8DEFD82EB110A7C0F20180819181AF
:103B700046EA59EF8A35910538F440E25DEF8B341F
:103B8000910510F448EE5FE2AA24A394C416D5066A
:103B900009F4A12C2817390709F08FC0F301E08040
:103BA000F180F2010081118122E130E048EC51E026
:103BB000B4016A5D7F4F8CE090E00E949017B110D5
:103BC00013C0F30122813381F2018281938128178E
:103BD000390751F4F30124813581F2018481958103
:103BE0002817390709F4F8C010E000E02AE030E0B7
:103BF00040EF50E0B401655C7F4F8CE090E00E94A4
:103C0000B416F301628173817E01FBE1EF0EF11CBA
:103C1000C7010E945818F301648175816E01F5E2B5
:103C2000CF0ED11CC6010E945818DF92CF92FF928E
:103C3000EF9282E093E09F938F931F928AE18F939C
:103C40008E010F5F1F4F1F930F930E94E52F20E1FE
:103C500034E841E0B401645C7F4F8CE090E00E9466
:103C600045190FB6F894DEBF0FBECDBF332009F45F
:103C70007AC0BB2009F456C010E000E02AE030E032
:103C800044E950E0B401655C7F4F80E491E00E941C
:103C9000B41680911E0508EF12E0882311F00EE1A2
:103CA00015E0B401645C7F4F20E134E841E084ED2D
:103CB00091E00E94771A3FC0AB2C7401F2E0EF0E46
:103CC000F11C10E000E020E230E04CE850E0B701E9
:103CD00088E491E00E94B416F30180819181883ECE
:103CE000F3E09F0710F087EE93E09F938F9385E9B1
:103CF00092E09F938F931F928AE18F938E010F5FC3
:103D00001F4F1F930F930E94E52F960144E0B701C8
:103D100084ED91E00E94771A0FB6F894DEBF0FBED3
:103D2000CDBF3CCF64E075E08EE195E00E94C62FE8
:103D3000892B09F0A1CFAE960FB6F894DEBF0FBE67
:103D4000CDBFDF91CF911F910F91FF90EF90DF904A
:103D5000CF90BF90AF909F908F907F906F905F902B
:103D60004F903F900895BB20C9F1B401655C7F4F2F
:103D700010E000E02AE030E044E950E080E491E027
:103D80000E94B416F301668177817E01FBE1EF0E9C
:103D9000F11CC7010E94431DFF92EF928BE093E05C
:103DA0009F938F931F928AE18F938E010F5F1F4F16
:103DB0001F930F930E94E52FB401645C7F4F20E1B5
:103DC00034E841E084ED91E00E94771A0FB6F89450
:103DD000DEBF0FBECDBFAFCF3110A4CFF301268120
:103DE0003781F201868197812817390709F0BDCF05
:103DF000A2CF2F923F924F925F926F927F928F92BB
:103E00009F92AF92BF92CF92DF92EF92FF920F9369
:103E10001F93CF93DF93CDB7DEB7A4970FB6F89477
:103E2000DEBF0FBECDBF50900902511049C3809133
:103E3000F1048111CEC0552453940E948A1BE4C022
:103E40008091F205811145C00CE213E020E134E8D5
:103E500042E06CE270E08CE090E00E94451903E3E0
:103E600013E020E134E842E066E770E08CE090E0A7
:103E70000E9445190CE313E020E134E842E060ECD5
:103E800070E08CE090E00E94451947E453E06CE656
:103E900070E08CE090E00E94701941E553E06CE620
:103EA00070E08EE790E00E9470194BE553E06CE6FD
:103EB00070E080EF90E00E94701945E653E062E701
:103EC00070E082E691E00E9470190E94BB195F2C9D
:103ED000B4CF813009F05DC001E713E020E134E8A0
:103EE00042E068E270E08CE090E00E944519609149
:103EF0001306709114068E01095E1F4FC8010E94BF
:103F000058181F930F938AE793E09F938F931F9204
:103F100084E18F93065111091F930F930E94E52F9F
:103F200020E134E841E06EE270E084ED91E00E942F
:103F3000771A24E231E248EC51E06CE370E08CE067
:103F400090E00E94041708E813E020E134E842E022
:103F50006AEB70E08CE090E00E94451903E913E001
:103F600020E134E841E060EC70E084ED91E00E94F3
:103F7000771A24E231E248EC51E06EEC70E08CE01C
:103F800090E00E9404170FB6F894DEBF0FBECDBFBD
:103F90009CCF0AEA13E020E134E842E068E270E0F6
:103FA0008CE090E00E94451924E231E248EC51E0B7
:103FB0006CE370E08CE090E00E94041724E231E2B0
:103FC00048EC51E06AEF70E08CE090E00E9404174A
:103FD0007CCF909125068091550598132ECF909116
:103FE000270680915705981328CF9091D00680918D
:103FF000F004981322CF6DED75E08DEA96E00E94F3
:10400000C62F892B09F019CF8091CA06882309F49D
:104010006EC08091F20581110DC1152D511008C09F
:1040200011E090912C0680915C05981301C010E07E
:1040300000E0212F49E355E069E076E084E290E07A
:104040000E94801D01E0212F41E455E061E176E00E
:104050008EE690E00E94801D212F49E455E069E141
:1040600076E088EB90E00E94801D49E150E06EE12F
:1040700075E084E095E00E94D62F10921D056091B6
:1040800021067091220651104FC0809151059091E8
:1040900052056817790709F047C02091230630912F
:1040A000240680915305909154052817390709F08B
:1040B00053C02091290630912A068091590590918C
:1040C0005A052817390709F065C090912606809196
:1040D0005605981391C089EBE9E0F6E0A9E3B5E055
:1040E00001900D928A95E1F781E08093F10410929E
:1040F000090210920402A4960FB6F894DEBF0FBE18
:10410000CDBFDF91CF911F910F91FF90EF90DF9086
:10411000CF90BF90AF909F908F907F906F905F9067
:104120004F903F902F900895CE0101960E9458180D
:1041300066EB73E0CE0101960E94B02F2FEF35E0C1
:10414000AE014F5F5F4F6CE670E08CE090E00E9444
:104150009219552009F4A1CF60912306709124068D
:10416000CE0101960E94431D809123069091240662
:104170002FEF3FEF4E9710F426EA39EFAE014F5F75
:104180005F4F6CE670E08EE790E00E949219552038
:1041900009F48FCF8091290690912A06883E33E05A
:1041A000930710F087EE93E09F938F9385E992E059
:1041B0009F938F931F9280E18F938E010F5F1F4F0C
:1041C0001F930F930E94E52F8091290690912A0654
:1041D0000FB6F894DEBF0FBECDBF8D37910510F13D
:1041E00026EA39EFA8016CE670E080EF90E00E94CB
:1041F0009219552009F469CFE091260628EE3FE296
:10420000E33010F420E23DEFF0E0EE0FFF1FE35E3D
:10421000FD4F4081518162E770E082E691E00E94AB
:10422000921959CF20E23DEF89369105D8F628EE54
:104230003FE2D8CF813049F58091F10400915D05CE
:10424000811101C000E0C52C14E0E12E2FE535E01E
:1042500040912D066FE276E082E490E00E94921A8F
:104260008091F10400915E05811101C000E0C52C30
:10427000B3E0EB2E27EA35E040912E0667E776E0C3
:1042800084ED90E00E94921A26CFE3EB2E2EE6E01A
:104290003E2E21EC36E0F101EE24E394F12C8191E5
:1042A0009191E816F90608F47C012E173F07B9F73B
:1042B000A3EBB6E0D12CC12C8D919D91C80ED91ED7
:1042C000EA17FB07C9F7511003C0C114D10481F1EB
:1042D00010E000E02CE030E04AE850E068E270E0F6
:1042E0008AE491E00E94B4168E01095E1F4FB60168
:1042F000C8010E9458181F930F9389EB93E09F9376
:104300008F931F9286E18F93065111091F930F938C
:104310000E94E52F20E134E841E06AE270E084ED9C
:1043200091E00E94771A0FB6F894DEBF0FBECDBFA2
:1043300076E2C72ED12CB12CA12CC701B0E0A0E0B1
:1043400089A39AA3ABA3BCA34E0197E1890E911C4C
:10435000D1010D911C91511011C0F501EE0FFF1FFD
:10436000ED51FA4F808191818017910739F4909136
:10437000C1068091F105981709F492C03601B4E1A5
:104380006B1A71089801A8EAB0E00E94952F29A144
:104390003AA14BA15CA10E944B2F7901012B31F076
:1043A000223031051CF452E0E52EF12C10E000E043
:1043B00028EB30E045E350E062E470E0C3010E9486
:1043C000B4164A2CF6E00FEF15E0AF1611F008EE28
:1043D0001FE2970145E350E06AEF70E06E197F0934
:1043E000C3010E94B416D1016D917C91C4010E9459
:1043F0005818F101808191812FEF3FEF892B11F443
:1044000024E231E2F40101900020E9F73197AF0195
:10441000481959096EEE70E06E197F091AEF1403FE
:10442000F001159FF00D1124CF01C59697FD01965F
:1044300095958795840141E0860D971D0E94451949
:104440001A8219828091C10690E0079626E030E03A
:104450002A193B09821B930B67E070E00E94372FFB
:10446000FC01E95DFD4F8081898310E000E020E1DF
:1044700030E045E350E060E071E0C3010E94B41613
:10448000F6E020E134E84F1202C02FEF35E08E0154
:104490000F5F1F4F42E060E071E0C6010E944519C6
:1044A0002FEFA21AB20A32E0230E311C81E4C80EAB
:1044B000D11C9DEEC91691E0D90609F049CF0BCE6B
:1044C0000E948A1B10E000E020E231E040EE51E063
:1044D00060E270E090E080E00E94B416F090CA06BE
:1044E000F110AECC08E113E020E134E842E066E9E7
:1044F00070E088E790E00E9445199FCC8F929F92D0
:10450000AF92BF92CF92DF92EF92FF920F931F93E1
:10451000CF93DF936B01EA01822E188262EC73E085
:104520000E94C52E7C0182E1982EE114F10409F469
:104530004FC08881881508F04BC06CE270E0C7015D
:104540000E94BB2F8C010097D9F15C012FEFA21ABA
:10455000B20A6CE270E0C5010E94BB2F009781F1A6
:10456000F8011082FC0111928F0188814EE050E029
:10457000B7019601899D200D311D1124C9010E94AA
:10458000D62F8881F601899DE00DF11D1124168634
:10459000C5010E94802E9881F601999DE00DF11DC4
:1045A00011248787C8010E949E2E2881F601299D2B
:1045B000E00DF11D1124718B608B88818F5F8883E2
:1045C00062EC73E090E080E00E94C52E7C01ADCFEC
:1045D000DF91CF911F910F91FF90EF90DF90CF90DF
:1045E000BF90AF909F908F9008956F927F928F921F
:1045F0009F92AF92BF92CF92DF92EF92FF920F9372
:104600001F93CF93DF93CDB7DEB7C055D1090FB657
:10461000F894DEBF0FBECDBFFF24F3949AE0E92EDD
:104620002CE3D22E07E010E08091F5069091F6067B
:104630002091F7063091F806821B930B9170892B1D
:1046400009F419C28CED96E00E94B409E091EF04E0
:104650008A3019F08D3009F000C2EE2309F48BC1C5
:104660008091EE04811187C1F0E0E25BFB4F108284
:1046700080914E04882309F47EC190914F049C37A9
:1046800009F079C1C090CA06873409F013C162EC01
:1046900073E080E594E00E94C52E9E012F5F3F4F9E
:1046A0004901B12C009799F034E1B31699F0B39415
:1046B0000E949E2EF40161937193819391934F0117
:1046C00062EC73E090E080E00E94C52EEBCFF4E155
:1046D000BF12C8C089819A8190930A068093090607
:1046E0008D819E8190930C0680930B0689859A8517
:1046F00090930E0680930D068D859E8590931006EF
:1047000080930F0689899A899093120680931106E7
:104710008D899E899093140680931306898D9A8DB6
:1047200090931606809315068D8D9E8D9093180696
:104730008093170629A13AA130931A0620931906EF
:104740002DA13EA130931C0620931B0629A53AA556
:1047500030931E0620931D069093200680931F061B
:104760008DA59EA5909322068093210689A99AA9DA
:1047700090932406809323068DA99EA9AFA9B8AD76
:1047800085309105A105B1051CF080E090E0DC01C9
:104790008093250689AD9AADABADBCAD8530910552
:1047A000A105B1051CF080E090E0DC0180932606B5
:1047B0002091270621968CAD9DADAEADBFAD219762
:1047C000B7FD74C084369105A105B1050CF070C029
:1047D00080932706281791F084EE90E00E944F0AFC
:1047E0006091270670E090E080E04AE00E94B418F3
:1047F0006CE772E08CED96E00E94A51822968FADD2
:10480000229780932C0629968CAD9DADAEADBFADA1
:104810002997B7FF03C080E090E0DC0190932A065F
:104820008093290681E02D964CAD5DAD6EAD7FADD8
:104830002D97452B462B472B09F480E080932B06C0
:1048400061968CAD9DADAEADBFAD619783309105E6
:10485000A105B1051CF080E090E0DC018093280602
:10486000F092CA060E9451096093CC067093CD065F
:104870008093CE069093CF06F09204028091CB06EF
:10488000882321F01092CB06F09209028091D00685
:10489000882339F0C1106FC08091CA06882309F4BB
:1048A0006AC0F092D006F092090265C080E090CF15
:1048B00083E68ECF24E04DE256E06FE276E08D3461
:1048C00039F0803551F423E04EE256E067E776E0B8
:1048D00080E594E00E947E22C5CF843451F562ECDD
:1048E00073E080E594E00E94C52E009709F443C070
:1048F0000E94802EB8010E94372F8093C10683EB5F
:10490000A82E86E0B82E62EC73E090E080E00E9472
:10491000C52E70E060E0009711F00E949E2EF50118
:10492000619371935F01F1ECAF16F6E0BF0659F7A2
:1049300099CF873559F449E150E060E574E08EE1A4
:1049400095E00E94D62F109237058CCF843599F4CC
:104950006CE770E080E594E00E94BB2F009711F0B7
:10496000FC01108240915204EEE4F4E020E0223099
:1049700039F44A3349F01092EF041092EE0454CE09
:10498000328130533A30B8F72F5F3196253079F7BE
:10499000209155042111EFCF80905004082C000C79
:1049A0009908F0E38F1A91086090510420ED260DCC
:1049B000E89C200D11242831F0F6A09053040A2C15
:1049C000000CBB0820E3A21AB1087090540420ED3B
:1049D000270DEA9C200D11242C3368F6009759F01E
:1049E000BC016F5F7F4F4DE050E086EF94E00E9486
:1049F000D62F1092030560E574E08DEA96E00E94E0
:104A0000CF2FE89C9001E99C300D1124862D660C77
:104A1000990BC097820F931FD89E9001D99E300D9D
:104A20001124EA9CA001EB9C500D1124872D770CDA
:104A3000990BC097840F951F820F931F90930102CB
:104A4000809300020E9451096093F2047093F30472
:104A50008093F4049093F50405CFEF3948F491E086
:104A60009E0F9093EF04F0E0E25BFB4F8083DCCD80
:104A7000F092EE04D9CDC05BDF4F0FB6F894DEBFE5
:104A80000FBECDBFDF91CF911F910F91FF90EF909F
:104A9000DF90CF90BF90AF909F908F907F906F905E
:104AA0000895FF920F931F93CF93DF93EC01F62E9F
:104AB00008811981C8010E940D2FF81621F06F2D71
:104AC000C8010E94152FCE01DF91CF911F910F9148
:104AD000FF9008951F920F920FB60F9211242F93FB
:104AE0003F938F939F93AF93BF938091D206909102
:104AF000D306A091D406B091D5063091D10623E01B
:104B0000230F2D3758F50196A11DB11D2093D10615
:104B10008093D2069093D306A093D406B093D50683
:104B20008091D6069091D706A091D806B091D9066B
:104B30000196A11DB11D8093D6069093D706A09330
:104B4000D806B093D906BF91AF919F918F913F91B5
:104B50002F910F900FBE0F901F90189526E8230FEE
:104B60000296A11DB11DD2CF1F920F920FB60F92C8
:104B700011240BB60F922F933F934F935F936F9334
:104B80007F938F939F93AF93BF93EF93FF938CED9E
:104B900096E00E94E009FF91EF91BF91AF919F9144
:104BA0008F917F916F915F914F913F912F910F90D6
:104BB0000BBE0F900FBE0F901F9018951F920F9273
:104BC0000FB60F9211240BB60F922F934F935F9352
:104BD0008F939F93EF93FF93E091EC06F091ED0696
:104BE0008081E091F206F091F30682FD27C02081DA
:104BF0008091F5069091F606019691704091F70626
:104C00005091F8068417950759F0E091F506F09158
:104C1000F606E452F94F278F9093F6068093F50637
:104C2000FF91EF919F918F915F914F912F910F90F5
:104C30000BBE0F900FBE0F901F9018958081F0CF84
:104C4000ECEDF6E01382128288EE93E0A0E0B0E093
:104C500084839583A683B78383E392E091838083E3
:104C600085EC90E09587848784EC90E09787868731
:104C700080EC90E0918B808B81EC90E0938B828B29
:104C800082EC90E0958B848B86EC90E0978B868B02
:104C9000128E118E148E138E158E168EEBE3F9E0A4
:104CA0001382128220EF30E03583248380E491E088
:104CB000978386833187208793878287168A158614
:104CC00014861786168681E0858B848B2FEF3FEF45
:104CD000338B228B318B208B878B108E128E118E13
:104CE00085E492E0918380830895CF93DF93CDB7DD
:104CF000DEB76E970FB6F894DEBF0FBECDBF7894C7
:104D000084B5826084BD84B5816084BD85B58260D0
:104D100085BD85B5816085BD80916E008160809381
:104D20006E001092810080918100826080938100EA
:104D300080918100816080938100809180008160FA
:104D4000809380008091B10084608093B100809155
:104D5000B00081608093B000809191008260809368
:104D600091008091910081608093910080919000EA
:104D70008160809390008091A10082608093A10067
:104D80008091A10081608093A1008091A00081604A
:104D90008093A00080912101826080932101809105
:104DA00021018160809321018091200181608093A5
:104DB000200180917A00846080937A0080917A004B
:104DC000826080937A0080917A00816080937A007B
:104DD00080917A00806880937A001092C100E091FF
:104DE000EC06F091ED0682E08083E091E806F09118
:104DF000E9061082E091EA06F091EB0680E18083FB
:104E00001092F406E091F006F091F10686E08083BE
:104E1000E091EE06F091EF06808180618083E09161
:104E2000EE06F091EF06808188608083E091EE06C7
:104E3000F091EF06808180688083E091EE06F0912A
:104E4000EF0680818F7D808381E297E00E941B19AD
:104E50008DE097E00E944F0A8CE090E00E942B19B1
:104E600090E080E00E940D2F8A3509F0CAC281E0EF
:104E700090E00E940D2F91E0811101C090E090938D
:104E8000050283E097E00E944F0A80910502882383
:104E900009F4C8C281EE96E00E941B19E0EBF7E02E
:104EA0002491EAE6F7E084918823C9F090E0880F26
:104EB000991FFC01E75FF94FA591B491FC01E15105
:104EC000FA4F459154919FB7F8943C91822F809569
:104ED00083238C93FA018081282B20839FBF60E07D
:104EE00090E080E00E944A0B8C018830F4E59F0737
:104EF00051F1803224E5920731F18938994809F45B
:104F00005FC360E087E690E00E944A0B07E413E885
:104F100087349744C1F08FEE90E00E94D90B8B014B
:104F20006732734981F081EA90E00E94BA0B03E690
:104F300019E1613081E6780731F06F3F760709F0BB
:104F400074C206E215E186EF96E00E944F0AB801AE
:104F500090E080E040E10E94B4186CE772E08CEDD4
:104F600096E00E94A51884EE96E00E944F0A40E168
:104F700067E573E880E090E00E94B4186CE772E0A7
:104F80008CED96E00E94A5180E94190B109257090B
:104F90001092560987E593E890935B0980935A092C
:104FA00083E094E1909359098093580980EE91E051
:104FB000909342098093410980E491E090934009E5
:104FC00080933F0981E090E090935D0980935C09B4
:104FD00069E070E089E296E00E94BB0A62E070E05E
:104FE00082E396E00E94BB0A66E070E083E296E00E
:104FF0000E94BB0A60E08BE399E00E94FC0D60E038
:105000008BE399E00E942F0C80915A0990915B09E3
:105010008838944909F04DC11092380520EE3FEFD1
:1050200050E040E070E060E08BE399E00E94C10D49
:10503000F0906609E09067098091580980FF03C0ED
:105040008EE2F82EE12C80915A0990915B09823012
:10505000964119F40EE2F02EE12C10E000E030E071
:1050600020E050E040E070E060E08BE399E00E94D7
:10507000720C8091580980FD10C070E060E0809152
:105080006209909163090E940A0B70E060E08091D0
:105090006409909165090E940A0BA1985F98E2B893
:1050A000F8B8A298A298A29A5F9A17B811B820915E
:1050B00058093091590940915A0950915B0926FDD0
:1050C0001BC080910B01806480930B0180910B01C8
:1050D0008F7B80930B0180910B018F7B80930B0161
:1050E00080910B018F7B80930B0180B186B1809101
:1050F0000B01806480930B0141315541D9F48091BB
:105100000B01806480930B0180910B018F7B809356
:105110000B0180910B018F7B80930B0180910B0120
:105120008F7B80930B0180B186B180910B018064ED
:1051300080930B01B9016470772780910B01806423
:1051400080930B0180910B018F7B80930B018091E9
:105150000B018F7B80930B0180910B018F7B8093E0
:105160000B0124FF4EC280B196B180910B01806487
:1051700080930B0180910B01806480930B018091DF
:105180000B018F7B80930B0180910B018F7B8093B0
:105190000B0180910B018F7B80930B0180B146B195
:1051A00080910B01806480930B0180910B018064DE
:1051B00080930B0180910B018F7B80930B01809179
:1051C0000B018F7B80930B0180910B018F7B809370
:1051D0000B0180B186B150910B01506450930B01CB
:1051E00050E0672B09F4F8C1E82EF12CFE2CEE24D8
:1051F000EE24E8EFFE2213E0440F551F1A95E1F765
:10520000407E5770E42AF52A969596959695E92A58
:1052100080913805882399F0C70135E096958795E8
:105220003A95E1F780729927A701569547954F71F6
:105230005527842B952B00ECE022E82AF92A80914F
:105240000B01806480930B01A19A8FEF87B981B91C
:1052500020FD14C000914509109146090150110923
:1052600020914309309144092150310950E040E038
:1052700070E060E08BE399E00E94720C1FE1E116A0
:105280001FEFF106B1F486E08983AE014F5F5F4FF7
:1052900061E08AE390E00E94F60A809158099091BB
:1052A00059098F7E909359098093580981E0809322
:1052B000380561E08BE399E00E94FC0D8091430981
:1052C00090914409892B09F0C0C18CEC96E00E94B2
:1052D0004F0A40E167E573E880E090E00E94B4186F
:1052E0008CE996E00E941B1988E596E00E941B1944
:1052F000BB24B394AA24AA9498EE492E93E0592E85
:10530000612C712CCE0101964C0123E0222E312C10
:105310000E94F5220E9451096B017C018091D00608
:105320008823E9F08091CC069091CD06A091CE061D
:10533000B091CF0697018601081B190B2A0B3B0B76
:10534000D901C80189399A43A105B10540F080917E
:10535000CB061092D006811102C00E948A1B809158
:10536000CB0681111EC08091CA068823D1F080919E
:10537000CC069091CD06A091CE06B091CF06A701A4
:105380009601281B390B4A0B5B0BDA01C901893CDA
:105390009F4AA105B10528F0B092CB0681E00E949A
:1053A0008B1C8091CB06882309F4F6C180E00E9413
:1053B0008B1C8091C6069091C706A091C806B0913B
:1053C000C90697018601081B190B2A0B3B0BD90153
:1053D000C801813D9740A105B10580F0C092C60685
:1053E000D092C706E092C806F092C90688E898E015
:1053F0000E941B1986E898E00E941B190E948A0AE5
:1054000087CF1A8219826AE5CE0101960E94512542
:1054100081E090E09A83898361E0CE0101960E9449
:1054200051252FCD8DED96E037CD6115EFEF7E073D
:1054300019F400E215E187CD01EA15E06115704F1E
:1054400009F481CD8FEB90E00E94D90B8B01673579
:1054500023E8720709F477CD613834E9730709F45A
:1054600072CD613145E1740709F46DCD603275414B
:1054700001F3063285E1180709F463CD013895E19F
:10548000190709F460CD0115144109F49CC084ED9D
:1054900090E00E94BA0B8B016031734509F453CD43
:1054A00087ED90E00E94BA0B8B016133704809F4DC
:1054B0004ACD8EEF90E00E94BA0B072F182F292FAC
:1054C0003327033530E2130709F43DCD84E090E043
:1054D0000E94BA0B8B01833E29F4672B41F500E053
:1054E00013EE31CD811123C06115704801F5809113
:1054F0000A0290910B02A0910C0289839A83AB83DC
:10550000AE014F5F5F4F63E089EB90E00E94F60AC7
:1055100060E080ED90E00E944A0B09E910E08939D3
:1055200009F411CD8039B9F400E910E90CCD063247
:1055300055E1150709F405CD003F89E8180709F47E
:1055400045C0023595E8190709F443C00131ECEA7A
:105550001E0709F4F8CC83ED90E00E94BA0B072FE8
:10556000182F292F33270336F1E91F0709F4EBCC55
:1055700083ED90E00E94BA0B872F062F172F093278
:1055800022E3120709F4DFCC8359823008F4DBCC24
:10559000783909F4D8CC773709F4D5CC763109F4C9
:1055A000D2CC033D110509F4CECC033D100709F41C
:1055B000CACC60E090E080E00E944A0B8C01C3CC32
:1055C00009E812E1C0CC04E118E6BDCC05E317E719
:1055D000BACC09E817E7B7CCE92EF12CFE2CEE2463
:1055E000EE24F8EFFF22A3E0440F551FAA95E1F740
:1055F000407E5770E42AF52A869586958695E82A96
:1056000007CEE0B086B1FE2CE82E80910B018064BD
:1056100080930B0123FF03C0FE24EF24FE24672B9D
:1056200009F4F6CDC701807E9770A701452F552755
:10563000469546954695842B952BFE2CEE24FF0C23
:10564000FF0CFF0CE82AF92AE3CD81E496E00E94E2
:105650004F0A40E167E573E880E090E00E94B418EB
:105660008EE396E00E944F0A6091430970914409CD
:10567000072E000C880B990B97FF82C00E94FA1826
:1056800068E78CED96E00E94020A809145099091AE
:1056900046090E942B190E94EB166CE570E084E22B
:1056A00090E00E94191704EC13E02FEF3FEF44E065
:1056B0006EE770E08CEC90E00E9445190BEC13E073
:1056C0002AEA3BED43E06CEA70E08CEC90E00E944B
:1056D000451907ED13E020E134E841E064ED70E0A6
:1056E0008EEC90E00E9445191092AD061092DD05F7
:1056F0000E9451096B017C0128E2C20E2AE0D21EF1
:10570000E11CF11C1092C6061092C7061092C80642
:105710001092C9060E9451096C197D098E099F09D2
:1057200097FF32C00E94F5220E9451092091CA06BB
:105730002111F0CF0091C6061091C7062091C8062E
:105740003091C9064B015C01801A910AA20AB30A82
:10575000950184010935124021053105D8F2609385
:10576000C6067093C7068093C8069093C90686E361
:1057700096E00E941B1984E396E00E941B19CACF91
:105780004AE00E94B4187CCF0E94EB1681E080931F
:1057900009020E94F91EACCD8091C2069091C30609
:1057A000A091C406B091C506A7019601281B390B2C
:1057B0004A0B5B0BDA01C90181339547A105B1059D
:1057C00060F0C092C206D092C306E092C406F09286
:1057D000C5068EE798E00E941B198091CA068823AF
:1057E00021F08091D006811125C08091C60690914C
:1057F000C706A091C806B091C90697018601081B8B
:10580000190B2A0B3B0BD901C80189359240A10520
:10581000B10580F0C092C606D092C706E092C806D5
:10582000F092C90686E798E00E941B1984E798E089
:105830000E941B198091CA06882371F081E0909123
:105840002B06911101C080E09091DB06891721F0B1
:105850008093DB06B092090280912706811162C015
:10586000109208068093060680910806811102C0F6
:10587000109207060E94A516882309F462C0809141
:10588000020690910306A0910406B0910506A701B7
:105890009601281B390B4A0B5B0BDA01C901833CCB
:1058A0009140A105B10598F0C0920206D09203067E
:1058B000E0920406F0920506809101068B25809304
:1058C00001068091CB06811102C00E948A1BE6EF7F
:1058D000F7E02491E0EBF7E09491EAE6F7E08491B9
:1058E000882309F447C0222309F438C0215022310B
:1058F00008F034C0E22FF0E0E058F34D0C948C2F08
:105900005A2D5E2DA92C522D562DAE2C612D672DB2
:105910006B2D712D752D792D7F2D832DAE2C872D1F
:105920008D2D912D90912806913009F09BCF90916B
:105930000706913009F094CF90910606891390CF15
:1059400091CF80910106882309F4C1CF10920106FE
:10595000B8CF209180002F7720938000E82FF0E0CF
:10596000EE0FFF1FEC5BF84FA591B4918C9198233B
:1059700081E009F480E090910802891709F4D5C00C
:1059800080930802C092FD05D092FE05E092FF05CB
:10599000F0920006809107028111A5C19091F8054F
:1059A0009111A1C18091F9059091FA05A091FB0593
:1059B000B091FC0597018601081B190B2A0B3B0BC4
:1059C000D901C80110910502883823E19207A10589
:1059D000B10508F43BC1B092F805A09206021B2560
:1059E000109305021A8219826AE5C4010E945125AA
:1059F0006091050241E050E05A834983C4010E944E
:105A00005125C092F305D092F405E092F505F0928D
:105A1000F6050E94BB1987E398E00E944F0A809127
:105A20000502882309F40FC184E398E00E941B1942
:105A300080910502882351F18091CA06882331F1B3
:105A40008091F3059091F405A091F505B091F605CC
:105A500097018601081B190B2A0B3B0BD901C801C2
:105A600081329E44A105B10588F0C092F305D09221
:105A7000F405E092F505F092F60581E09091F205CB
:105A8000911180E08093F205B092090280910902A1
:105A9000811105C080910402882309F4AFCC0E94D3
:105AA000F91EACCC209180002F7D56CF2091800034
:105AB000277F52CF24B52F7724BD50CF24B52F7D1B
:105AC000FBCF2091B0002F772093B00047CF2091DB
:105AD000B0002F7DF9CF209190002F772093900078
