:100000000C94740C0C949E0C0C949E0C0C949E0CF2
:100010000C949E0C0C949E0C0C949E0C0C949E0CB8
:100020000C949E0C0C949E0C0C949E0C0C949E0CA8
:100030000C949E0C0C949E0C0C949E0C0C949E0C98
:100040000C949E0C0C949E0C0C949E0C0C949E0C88
:100050000C949E0C0C949E0C0C949E0C0C946B2E89
:100060000C949E0C0C94DF2E0C94B52E0C949E0CCC
:100070000C949E0C0C949E0C0C949E0C0C949E0C58
:100080000C949E0C0C949E0C0C949E0C0C949E0C48
:100090000C949E0C0C949E0C0C949E0C0C949E0C38
:1000A0000C949E0C0C949E0C0C949E0C0C949E0C28
:1000B0000C949E0C0C949E0C0C949E0C0C949E0C18
:1000C0000C949E0C0C949E0C0C949E0C0C949E0C08
:1000D0000C949E0C0C949E0C0C949E0C0C949E0CF8
:1000E0000C949E0C617474656E74696F6E200000D0
:1000F000000000003E5B4F5B3E3E6B4F6B3E1C3E84
:100100007C3E1C183C7E3C181C577D571C1C5E7F97
:100110005E1C00183C1800FFE7C3E7FF0018241816
:1001200000FFE7DBE7FF30483A060E26297929264B
:10013000407F050507407F05253F5A3CE73C5A7F35
:100140003E1C1C08081C1C3E7F14227F22145F5F8B
:10015000005F5F06097F017F006689956A606060C5
:10016000606094A2FFA29408047E040810207E2000
:100170001008082A1C08081C2A08081E1010101055
:100180000C1E0C1E0C30383E3830060E3E0E06009B
:100190000000000000005F00000007000700147F5F
:1001A000147F14242A7F2A122313086462364956C6
:1001B00020500008070300001C2241000041221CBF
:1001C000002A1C7F1C2A08083E08080080703000A6
:1001D0000808080808000060600020100804023EBB
:1001E0005149453E00427F400072494949462141FC
:1001F000494D331814127F1027454545393C4A496B
:1002000049314121110907364949493646494929A9
:100210001E000014000000403400000008142241B9
:100220001414141414004122140802015909063E42
:10023000415D594E7C1211127C7F494949363E413D
:100240004141227F4141413E7F494949417F09095E
:1002500009013E414151737F0808087F00417F41F9
:10026000002040413F017F081422417F4040404030
:100270007F021C027F7F0408107F3E4141413E7F88
:10028000090909063E4151215E7F0919294626497F
:1002900049493203017F01033F4040403F1F204056
:1002A000201F3F4038403F63140814630304780460
:1002B000036159494D43007F414141020408102028
:1002C000004141417F04020102044040404040009F
:1002D0000307080020545478407F284444383844A9
:1002E000444428384444287F385454541800087E25
:1002F000090218A4A49C787F0804047800447D4077
:10030000002040403D007F1028440000417F400015
:100310007C047804787C080404783844444438FC2D
:100320001824241818242418FC7C080404084854B1
:1003300054542404043F44243C4040207C1C20406E
:10034000201C3C4030403C44281028444C90909065
:100350007C4464544C44000836410000007700009F
:10036000004136080002010204023C2623263C1EFE
:10037000A1A161123A4040207A3854545559215570
:10038000557941225454784221555478402054558F
:1003900079400C1E527212395555555939545454DE
:1003A0005939555454580000457C410002457D425E
:1003B0000001457C407D1211127DF0282528F07C3B
:1003C000545545002054547C547C0A097F493249D5
:1003D0004949323A4444443A324A4848303A414121
:1003E000217A3A42402078009DA0A07D3D424242C1
:1003F0003D3D4040403D3C24FF2424487E49436627
:100400002B2FFC2F2BFF0929F620C0887E09032003
:10041000545479410000447D413048484A323840C4
:1004200040227A007A0A0A727D0D19317D26292927
:100430002F28262929292630484D40203808080829
:100440000808080808382F10C8ACBA2F102834FA4A
:1004500000007B000008142A142222142A140855D4
:1004600000550055AA55AA55AAFF55FF55FF000093
:1004700000FF00101010FF00141414FF001010FFF4
:1004800000FF1010F010F0141414FC001414F70006
:10049000FF0000FF00FF1414F404FC141417101FD5
:1004A00010101F101F1414141F00101010F0000063
:1004B00000001F101010101F10101010F01000007E
:1004C00000FF101010101010101010FF100000008E
:1004D000FF140000FF00FF00001F10170000FC04C5
:1004E000F414141710171414F404F40000FF00F7A8
:1004F00014141414141414F700F71414141714100B
:10050000101F101F141414F4141010F010F0000039
:100510001F101F0000001F14000000FC140000F05A
:1005200010F01010FF10FF141414FF141010101FFF
:1005300000000000F010FFFFFFFFFFF0F0F0F0F010
:10054000FFFFFF0000000000FFFF0F0F0F0F0F382D
:1005500044443844FC4A4A4A347E02020606027E7B
:10056000027E0263554941633844443C04407E2086
:100570001E2006027E020299A5E7A5991C2A492A97
:100580001C4C7201724C304A4D4D30304878483026
:10059000BC625A463D3E494949007E0101017E2A1E
:1005A0002A2A2A2A44445F444440514A4440404451
:1005B0004A51400000FF0103E080FF000008086B83
:1005C0006B083612362436060F090F06000018187D
:1005D0000000001010003040FF0101001F01011E4B
:1005E00000191D1712003C3C3C3C000000000000BC
:1005F000002200250028002B002E003100340002CC
:10060000010000050108010B010000210024002762
:10061000002A002D00300033000101000004010712
:10062000010A0111007F96290001007F9628003AF7
:100630000155C0021010C10141C50400228040369E
:100640000168B00100B102B011B40102B6030202A8
:100650003BB701C63A0155F704A9512C82B701C630
:10066000E808408A00002919A533C0020D0DC10217
:100670004300C20100C50400480048B40100B603AD
:1006800002023BE00F0F211C0B0E0849983809119C
:1006900003141000E10F0F2F2B0C0E0647763707BF
:1006A0001104231E00B00100B30402000000B401D5
:1006B00000D003074218D103000710D2020102D371
:1006C000020102D4020102C005123B000211C10363
:1006D000101088C50103C60102C80C003236450659
:1006E00016377577540C00CC0100F603010100CFDA
:1006F00003008130ED0464031281E803851078CB98
:1007000005392C003402F70120EA020000B0010094
:10071000B102001BB40100C00121C10111C5023F9B
:100720003CC701B5360148F20100260101E00F0F78
:1007300026240B0E0954A8460C17090F0700E10FD9
:1007400000191B0410072A473903060630380F36F4
:100750000100B80101C0010EB00100C10410100277
:1007600002C006003500000102C50104D2020104E6
:10077000CA0100EA0180B903FF83577F967F96B6CE
:100780000125C0065050013C1E08B4070240002A53
:100790002A0D787F01F20B161603080808081004CA
:1007A0001616FD03110235B2050C0C003333B701E8
:1007B00035BB012BC00104C20201FFC30111C401FA
:1007C00020C6010FD002A4A1E00ED000050E150D29
:1007D0003743470915121619E10ED000050D0C0616
:1007E0002D44400E1C1816193A01557F0A060007C1
:1007F00000B1020012B40102B60400202700CA01B1
:1008000001CB0103C001137F14C501CCC60100C791
:100810000104C80103CC0106CD011CF9021515F332
:10082000030A020AF603011000FA00FB00E2031EAD
:100830000254E001017F0AE001037F0A01007F64A6
:10084000E60303FFFFB0072400031F01DF00B40825
:1008500003A0002E30000F00B607020D001010009C
:1008600008BA010FB8020701F001007F012800114A
:10087000007F642900BE0606F001F00000D0010DE3
:10088000B00103E2013FC00122E20100B00100C05B
:10089000010AB0010000000000000000000000009C
:1008A0000000000000FFFF0F0000040062080008C5
:1008B000080003000C01030B5A0203060903031787
:1008C0001004030023050300170603096307030947
:1008D0000C08030C1009033222100016001100014D
:1008E0000112000000130001000001300301013774
:1008F000020301000D800200610201B0C1FFFF325E
:100900000001000001020000010300301009000195
:10091000000C000000900000800F0000001002009A
:10092000001102EF001202000013028F0100050007
:10093000000105000002055F00010401000404003D
:1009400000FFFF320007000001FFFF32000002003D
:100950000001020000000000000000000000000094
:100960000000000100A4000100FFFF0A0060000079
:10097000270800080830001402310015373200043F
:10098000063300160E34001122350000153600071C
:100990008537000714380003143900200090001533
:1009A000001000100411003702290046002A0046FA
:1009B00000070000001200890113000011FFFF96DC
:1009C000001200B901010000010200000203003022
:1009D00010090001000A0000000D0000000E0030A8
:1009E00000610001006A000000800000008100003A
:1009F0000082005F009200000193000107FFFF509A
:100A00000007000001E500F078010000010200008D
:100A10000203003010040000000500000008000779
:100A200002090000000A0000000C0000000D000098
:100A3000000F00000010000000110007001200006D
:100A4000001300000007000100FFFFC80010009025
:100A50001611002702FFFF320012000D00FFFF32C7
:100A6000001300001229000A002B000D00FFFF32C6
:100A700000200000002100000030000000310004D0
:100A8000043200030035000504360008083700076B
:100A90000438000303390007073C0004053D000843
:100AA0000860000027610001006A0000008000006B
:100AB000008100000082000000830000008400002C
:100AC0000085000000900010009200000007003335
:100AD00001E50000800000010001000001020000AB
:100AE00007030030100400000008000202090000A3
:100AF000000A0000000C0000000D0000000F0000C4
:100B00000010000000110007001200000013000098
:100B100000FFFF32001000B01711000700FFFF0AAE
:100B20000012003A01FFFF0A001300001A29000C0E
:100B300000FFFF0A0030000000310005053200040C
:100B400000350006003600070737000501380002AF
:100B500000390007073C0004073D0007086000005B
:100B6000A7610001006A00000021000000200000D1
:100B7000008000000081000000820000008300006F
:100B8000008400000085000000900010009200002A
:100B900000930003009500100197000000980000EA
:100BA0000007007301FFFF32000100000102000096
:100BB000070300301008000203090000000A0008C3
:100BC00000100000001100050012000000130000DA
:100BD00000FFFF64001000B012FFFF320011000799
:100BE00000FFFF320012008C0013000017290020C4
:100BF00000FFFF320030000000310006013200012A
:100C000001350006013600030237000000380007F6
:100C100007390004023C0006013D000301600000AA
:100C2000A7610001009000300007003301FFFF3290
:100C300000150030009A001000110020001000285C
:100C4000341200020013003810FFFF2800120012B7
:100C500000FFFF28001000203413004530FFFF463E
:100C600000300000003100020432000703330004AA
:100C7000033400040035000104360007073700057F
:100C800003380010063900100601000001020000C0
:100C90000303003010080008080A00080060000084
:100CA000276100010090003E0192000001930000C6
:100CB00001A0000030A30010000700010007002180
:100CC0000007002300070033000700330111001A5A
:100CD000001200213113006C001400494210000082
:100CE00008FFFF0A0011001A01FFFF0A0011001A95
:100CF00003FFFF0A0011001A07FFFF0A0011001A84
:100D00000FFFFF0A0011003A0FFFFF1E000100282D
:100D10000102000001030030100700121008000358
:100D2000030B0000110C0000000F0001181500203B
:100D30000050000101510003065200080453000056
:100D4000005400050655000604560003035700032F
:100D500003580010005900001007001200FFFF2880
:100D60000007001300070017003F00567C312E32A9
:100D70002E30002C200070616E656C2072656164FD
:100D8000792C20647269766572203078005365741E
:100D900020464F5243455F4452495645525F4944AD
:100DA00020696E20706C6174666F726D696F2E6958
:100DB0006E69202D20747279203078383335372CC5
:100DC000203078393438312C203078393438362E88
:100DD00000206973206E6F7420737570706F727469
:100DE00065643B2070616E656C20776173206E6571
:100DF00076657220696E697469616C697365642EC9
:100E0000004552524F523A20647269766572203022
:100E1000780070616E656C2063616E6E6F74207215
:100E200065706F7274206974732049443B20666F4B
:100E30007263696E6720307839343831006F6666C6
:100E4000006F6E00726561644944202D3E20307849
:100E5000006361726F7573656C2000706167652057
:100E6000627574746F6E206F6E2070696E200063FF
:100E70006C617564652D75736167652D6D6574654D
:100E800072206669726D776172652076312E322E1E
:100E90003000000020002300260029002C002F0035
:100EA00032000001000003010601090105050505E6
:100EB000070508080808020202020A0A08080404D2
:100EC0000404010101010101010103030303030300
:100ED0000303040707070C0C0C0C0C0C0C0C02028F
:100EE000020206060606060606060B0B0B0B0B0B8C
:100EF0000B0B010210202008081020401020408019
:100F000002010201080402010102040810204080CD
:100F1000804020100804020180040201804020105B
:100F200008040201080402010102040810204080A4
:100F3000010204081020408000000A0B02090C0D79
:100F40000E0807030401000000000000000000007C
:100F50000000000000000000000000000000000091
:100F6000000000001211100000000000000000004E
:100F700000000000000000000000000000006F669C
:100F800066006F6E006361726F7573656C2000623E
:100F90007574746F6E2073686F7274202D3E2070AC
:100FA0006167652000627574746F6E202D3E20614C
:100FB0006C6572742061636B6E6F776C65646765D6
:100FC00064003F00567C312E322E3000567C312E8C
:100FD000322E30003F00567C312E322E3000000081
:100FE00000000FE000000000000000000000000012
:100FF0000000001FF80000000000000000000000DA
:10100000000000003FFC0000000180000000000024
:1010100000000000003FFC00000007E000000000AE
:101020000000000000007FFE0000000FF000000044
:1010300000000000000000FFFE0000001FF00000A4
:101040000000000000000000FFFF0000001FF8008B
:10105000000000000000000001FFFF0000003FFC56
:1010600000000000000000000000FFFF8000003FC3
:10107000FC00000000000000000000FFFF800000F6
:101080007FF800000000000000000000FFFF80006B
:10109000007FF800000000000000000000FFFFC01B
:1010A00000007FF8000000000000000000007FFF4B
:1010B000C000007FF8000000000000000000007F7A
:1010C000FFE000007FF800000000000000000000CA
:1010D0007FFFE000007FF80000000000000000003B
:1010E000003FFFF00000FFF800001FC000000000FC
:1010F00000001FFFF000007FF000003FE000000054
:101100000000001FFFF80000FFF000007FE000007B
:10111000000000000FFFF80000FFF00000FFF000EB
:1011200000000000000FFFF80000FFF00001FFF8D2
:1011300000000000000007FFFC0000FFF00003FFBC
:10114000F800000000000003FFFC0000FFF00007B3
:10115000FFFC00000000000003FFFE0000FFE000B5
:101160000FFFFC00000000000001FFFE0000FFE098
:10117000001FFFF800000000000001FFFF0000FF5B
:10118000E0003FFFF800000002800000FFFF0000C9
:10119000FFE0007FFFF800000007F80000FFFF807D
:1011A00000FFE000FFFFF80000000FFC00007FFFE1
:1011B0008001FFC000FFFFF00000001FFF00003FA4
:1011C000FFC001FFC001FFFFF00000001FFF800013
:1011D0003FFFC001FFC003FFFFE00000003FFFC072
:1011E000001FFFE001FFC007FFFFC00000001FFF5E
:1011F000E0001FFFE001FF800FFFFFC00000001FA5
:10120000FFF8000FFFF001FF800FFFFF80000000DC
:101210001FFFFC000FFFF001FF801FFFFF00000019
:10122000001FFFFE0007FFF801FF803FFFFE0000E8
:1012300000001FFFFF8003FFF801FF807FFFFC001D
:101240000000000FFFFFC003FFFC03FF00FFFFFCD7
:101250000000000007FFFFE001FFFC03FF00FFFFAD
:10126000F80000000003FFFFF801FFFE03FF01FF8D
:10127000FFF00000000001FFFFFC00FFFE03FF0382
:10128000FFFFE000000000007FFFFE00FFFF03FF04
:1012900007FFFFE000000000003FFFFF807FFF032B
:1012A000FE0FFFFFC000000000000FFFFFC07FFF28
:1012B00083FE0FFFFF80000000000007FFFFE03FFC
:1012C000FFC3FE1FFFFF00000000000001FFFFF84A
:1012D0003FFFC3FE3FFFFE00000000000000FFFFD5
:1012E000FC1FFFE3FE7FFFFE000000000000007F08
:1012F000FFFE1FFFE3FE7FFFFC0000000000000078
:101300001FFFFF0FFFE7FCFFFFF8000000000000D9
:10131000000FFFFFC7FFF7FFFFFFF0000000000016
:10132000000003FFFFE7FFF7FFFFFFF000000000F2
:1013300000000001FFFFFFFFF7FFFFFFE0000000DC
:1013400000000000007FFFFFFFF7FFFFFFC000006D
:101350000000000000003FFFFFFFFFFFFFFFC00095
:10136000000000000000000FFFFFFFFFFFFFFF80F5
:10137000000000000000000007FFFFFFFFFFFFFF6D
:101380000000001FF80000000001FFFFFFFFFFFF4B
:10139000FF000003FFFE0000000000FFFFFFFFFF53
:1013A000FFFE0000FFFFFE00000000003FFFFFFF08
:1013B000FFFFFE001FFFFFFE00000000001FFFFFF9
:1013C000FFFFFFFC03FFFFFFFE000000000007FF20
:1013D000FFFFFFFFFC3FFFFFFFFE000000000003D8
:1013E000FFFFFFFFFFFFFFFFFFFFFC00000000000B
:1013F00000FFFFFFFFFFFFFFFFFFFFFC00000000FB
:1014000000007FFFFFFFFFFFFFFFFFFFF83FF4003B
:101410000000001FFFFFFFFFFFFFFFFFFFC0FFFFF8
:10142000FFFC00000FFFFFFFFFFFFFFFFFF800FFC3
:10143000FFFFFFFFC003FFFFFFFFFFFFFFFF800075
:10144000FFFFFFFFFFFFC3FFFFFFFFFFFFFFF000F6
:1014500000FFFFFFFFFFFFFFFFFFFFFFFFFFFF009A
:1014600000007FFFFFFFFFFFFFFFFFFFFFFFFFE029
:101470000000003FFFFFFFFFFFFFFFFFFFFFFFFE3A
:10148000000000001FFFFFFFFFFFFFFFFFFFFFFF48
:10149000C00000000000FFFFFFFFFFFFFFFFFFFF96
:1014A000FC0000000000000000BFFFFFFFFFFFFF87
:1014B000FFC000000000000000000000003FFFFF30
:1014C000FFFFFF400000000000000000000003FFDD
:1014D000FFFFFFFFFFFFFD0000000000000000070E
:1014E000FFFFFFFFFFFFFFFFFF8000000000000085
:1014F0000FFFFFFFFFFFFFFFFFFFE0000000000006
:10150000003FFFFFFFFFFFFFFFFFFFF000000000B5
:101510000000FFFFFFFFFFFFFFFFFFFFFC000000D9
:10152000000003FFFFFFFFFF87FFFFFFFFFC00003E
:101530000000000FFFFFFFFFFFC07FFFFFFFFE0067
:10154000000000003FFFFFFFFFFFE007FFFFFFFF7E
:1015500000000000007FFFCFFFFFFFF0007FFFFFD4
:10156000FF0000000001FFFF9FFFFFFFF80007FFE3
:10157000FFFF0000000007FFFE3FFFFFFFFC000031
:101580007FFFFE000000001FFFFC7FFFFFFFFE004B
:101590000003FFFC000000003FFFF0FFFFFFFFFF24
:1015A0008000003FE000000000FFFFE1FFDFFFFFE1
:1015B000FFC0000003C000000003FFFF81FF9FFF8A
:1015C000FFFFE0000000000000000FFFFF03FF9F8F
:1015D000FFFFFFF0000000000000001FFFFC07FFFE
:1015E0001FFFFFFFF8000000000000007FFFF80F62
:1015F000FE3FDFFFFFFC00000000000000FFFFE0F7
:101600001FFC3FCFFFBFFE00000000000003FFFFF4
:10161000C01FFC3FCFFFCFFF00000000000007FF0E
:10162000FF003FF83FC7FFC7FF8000000000001F1A
:10163000FFFE007FF03FC3FFE3FFC000000000009B
:101640003FFFF800FFF03FC3FFF1FFF00000000094
:1016500000FFFFE000FFE07FC1FFF0FFF8000000A7
:101660000001FFFFC001FFC07FC1FFF83FFC000089
:10167000000001FFFF0003FF807F80FFFC1FFE00D2
:1016800000000003FFFE0007FF807FC0FFFC0FFF8C
:101690000000000003FFF80007FF007F807FFE07C7
:1016A000FF8000000003FFF0000FFE007F803FFF7F
:1016B00003FFC000000003FFC0001FFE00FF803FCB
:1016C000FF01FFE000000001FF80003FFC00FF8001
:1016D0001FFF807FF000000000FC00007FF800FF8B
:1016E000800FFFC03FF8000000000000007FF00006
:1016F000FF800FFFC01FFC00000000000000FFF093
:1017000000FF8007FFE00FFF00000000000001FF66
:10171000E001FF8003FFF003FF80000000000003F2
:10172000FFC001FF8003FFF001FF80000000000008
:1017300003FF8001FF8001FFF8007F8000000000B0
:101740000007FF8001FF0000FFFC003FC000000019
:1017500000000FFF0001FF0000FFFC001FC00000A1
:101760000000001FFE0003FF00007FFE000F80004E
:10177000000000003FFC0003FF00003FFF000300EB
:1017800000000000003FFC0003FF00003FFF0000DE
:101790000000000000007FF80003FF00001FFF8032
:1017A00000000000000000FFF00003FF00000FFF3A
:1017B0008000000000000001FFE00007FF000007BC
:1017C000FF8000000000000001FFC00007FF0000D4
:1017D00007FF8000000000000003FF800007FE00FC
:1017E0000003FF8000000000000003FF000007FE70
:1017F000000001FFC000000000000003FE00000721
:10180000FE000001FF8000000000000003FC00005B
:101810000FFE000000FF8000000000000001F80043
:10182000000FFE0000007F000000000000000060CC
:1018300000000FFE0000001C00000000000000007F
:101840000000000FFE00000000000000000000008B
:10185000000000001FFE000000000000000000006B
:1018600000000000001FFE0000000000000000005B
:101870000000000000001FFE00000000000000004B
:10188000000000000000000FFE000000000000004B
:1018900000000000000000000FFE0000000000003B
:1018A00000000000000000000007FC000000000035
:1018B0000000000000000000000007F80000000029
:1018C000000000000000000000000001F000000027
:1018D00000000000000000000000000000C0000048
:1018E000000000000000212F11241FBECFEFD1E225
:1018F000DEBFCDBF29E0AEE4B4E001C01D92A33746
:10190000B207E1F714E0A0E0B2E0E8E9FFE700E0A9
:101910000BBF02C007900D92AE34B107D9F71CE09F
:10192000C4E7DCE004C02197FE010E948D3CC33770
:10193000D107C9F70E94762F0C94CA3F0C9400007F
:101940003FB7F8948091D7069091D806A091D90618
:10195000B091DA0626B5A89B05C02F3F19F0019675
:10196000A11DB11D3FBFBA2FA92F982F8827BC01F9
:10197000CD01620F711D811D911D42E0660F771F21
:10198000881F991F4A95D1F708958F929F92AF9221
:10199000BF92CF92DF92EF92FF926B017C010E9487
:1019A000A00C4B015C01C114D104E104F104B9F0B5
:1019B0000E94A00C681979098A099B09683E734046
:1019C0008105910580F321E0C21AD108E108F108F0
:1019D00088EE880E83E0981EA11CB11CE4CFFF9016
:1019E000EF90DF90CF90BF90AF909F908F90089531
:1019F0002FB7F8946091D3067091D4068091D506E4
:101A00009091D6062FBF0895AF92BF92CF92DF92EA
:101A1000EF92FF920F931F93CF93DF936C017B01A3
:101A20008B01040F151FEB015E01AE18BF08C01734
:101A3000D10759F06991D601ED91FC910190F081A7
:101A4000E02DC6010995892B79F7C501DF91CF916A
:101A50001F910F91FF90EF90DF90CF90BF90AF90CC
:101A60000895FC01218D328D838D948DA901481B31
:101A7000590BCA01917008952091F6063091F7062E
:101A80008091F8069091F906281B390B317081E09E
:101A9000232B09F480E00895FC01558D468D252FF8
:101AA00030E0842F90E0821B930B541710F0CF96F8
:101AB000089501970895FC01218D328D838D948DB9
:101AC0002817390779F0A38DB48DAE0FBF1F5F962D
:101AD0008C91238D348D2F5F3F4F3170348F238F46
:101AE00090E008958FEF9FEF0895FC01218D328DD6
:101AF000838D948D2817390739F0838D948DE80FE5
:101B0000F91F878D90E008958FEF9FEF0895FC01F6
:101B1000A68DA80FB92FB11DA15EBD4F2C91868D4A
:101B200090E001968F739927868FA689B7892C93A9
:101B3000A089B1898C91837080648C93958D868DFA
:101B4000981306C00288F389E02D80818F7D808301
:101B50000895EF92FF920F931F93CF93DF93EC01C1
:101B600081E0888F9D8D8E8D98131AC0E889F98940
:101B7000808185FF15C09FB7F894EE89FF89608347
:101B8000E889F98980818370806480839FBF81E0C8
:101B900090E0DF91CF911F910F91FF90EF9008950A
:101BA000F62E0D8D10E00F5F1F4F0F731127E02EE3
:101BB0008E8D8E110CC00FB607FCFACFE889F9891B
:101BC000808185FFF5CFCE010E94870DF1CFED8D8D
:101BD000EC0FFD2FF11DE15EFD4FF0829FB7F894F1
:101BE0000D8FEA89FB8980818062CFCF0F931F938D
:101BF000CF93DF938C01D0E0C0E0F801EC0FFD1F24
:101C00006491662341F08DED96E00E94A90D892B29
:101C100011F02196F2CFCE01DF91CF911F910F915C
:101C20000895CF93DF93EC01888D8823B9F0AA89BA
:101C3000BB89E889F9898C9185FD03C0808186FD87
:101C40000DC00FB607FCF7CF8C9185FFF2CF8081D6
:101C500085FFEDCFCE010E94870DE9CFDF91CF91B7
:101C6000089580E090E0892B29F00E943C0D8111BD
:101C70000E94000080E090E0892B49F080E090E035
:101C8000892B29F00E94000081110E94000080E051
:101C900090E0892B49F080E090E0892B29F00E94A8
:101CA000000081110E94000080E090E0892B49F043
:101CB00080E090E0892B29F00E94000081110C94B3
:101CC000000008950F931F93CF93DF93EC018B01D6
:101CD000FE0184913196649122968F3799F470E0D9
:101CE00090E080E00E94C50C60E070E06E5F7F4F86
:101CF000061B170B101611065CF3DF91CF911F9195
:101D00000F9108958B988A989091020197789093FB
:101D10000201A5989EB1977C9EB94091020190E086
:101D20009C0155E0220F331F5A95E1F72076242BB2
:101D3000209302014EB19C01220F331F220F331F4B
:101D40002073242B2EB944B39C01220F331F207221
:101D5000242B24BB4EB19C013595279535952795AD
:101D60002870242B2EB920910201A3E09595879528
:101D7000AA95E1F78871822B809302018998899A4C
:101D800050E040E0461708F045C0FE01E40FF51FA3
:101D9000E4918A9A80910201877880930201A59844
:101DA0008EB1877C8EB9709102018E2F90E09C01DC
:101DB000E5E0220F331FEA95E1F72076272B2093E9
:101DC00002017EB19C01220F331F220F331F2073AB
:101DD000272B2EB974B39C01220F331F2072272B9F
:101DE00024BB7EB19C0135952795359527952870A4
:101DF000272B2EB9E091020123E0959587952A952E
:101E0000E1F788718E2B809302018998899A4F5F40
:101E10005F4FB8CFC60FD11D8B9A67CF8B988A982A
:101E200020910201277820930201A5982EB1277CEA
:101E30002EB970910201292F30E0F901A5E0EE0FD3
:101E4000FF1FAA95E1F7E076E72BE09302017EB150
:101E5000F901EE0FFF1FEE0FFF1FE073E72BEEB946
:101E600074B3F901EE0FFF1FE072E72BE4BB7EB104
:101E7000F901F595E795F595E795E870E72BEEB94B
:101E800070910201E3E035952795EA95E1F7287115
:101E9000272B209302018998899A209102012778A3
:101EA00020930201A5982EB1277C2EB970910201D2
:101EB0009C01F5E0880F991FFA95E1F78076872B52
:101EC000809302017EB1C901880F991F880F991F65
:101ED0008073872B8EB974B3C901880F991F8072E4
:101EE000872B84BB7EB1C90195958795959587957C
:101EF0008870872B8EB980910201F3E03595279584
:101F0000FA95E1F72871282B209302018998899A84
:101F10008A9AFA01615008F43EC0819190910201C1
:101F2000977890930201A5989EB1977C9EB94091B5
:101F3000020190E09C0155E0220F331F5A95E1F712
:101F40002076242B209302014EB19C01220F331FD7
:101F5000220F331F2073242B2EB944B39C01220F70
:101F6000331F2072242B24BB4EB19C01359527953D
:101F7000359527952870242B2EB92091020133E046
:101F8000959587953A95E1F78871822B80930201A8
:101F90008998899ABFCF8B9A08958B988A98E2E0A6
:101FA000F1E0208127782083A5982EB1277C2EB9D7
:101FB000A081292F30E0A901B5E0440F551FBA9543
:101FC000E1F740764A2B4083AEB1A901440F551F7B
:101FD000440F551F40734A2B4EB9A4B3A901440FB7
:101FE000551F40724A2B44BBAEB1A9015595479588
:101FF0005595479548704A2B4EB9408153E0359529
:1020000027955A95E1F72871242B20838998899A7E
:10201000208127782083A5982EB1277C2EB9408176
:102020009C01A5E0880F991FAA95E1F78076842B83
:1020300080834EB1C901880F991F880F991F807343
:10204000842B8EB944B3C901880F991F8072842BE9
:1020500084BB4EB1C90195958795959587958870F4
:10206000842B8EB98081B3E035952795BA95E1F739
:102070002871282B20838998899A8A9A8081877869
:102080008083A5988EB1877C8EB94081872F90E0A0
:102090009C0155E0220F331F5A95E1F72076242B3F
:1020A00020834EB19C01220F331F220F331F207358
:1020B000242B2EB944B39C01220F331F2072242BF2
:1020C00024BB4EB19C0135952795359527952870F1
:1020D000242B2EB92081A3E095958795AA95E1F749
:1020E0008871822B80838998899A80818778808300
:1020F000A5988EB1877C8EB94081CB019B01B5E05C
:10210000220F331FBA95E1F72076242B20834EB19E
:102110009B01220F331F220F331F2073242B2EB954
:1021200044B39B01220F331F2072242B24BB4EB1DA
:102130009C0135952795359527952870242B2EB928
:102140002081A3E095958795AA95E1F78871822B68
:1021500080838998899A8B9A089581E08093DB0621
:10216000E1E0F1E08081886780839D9A8DB188638A
:102170008DB9809A819A829A839A849A8B9A889A46
:10218000899A8C9A62E370E080E090E00E94C50C2E
:102190008C9864E670E080E090E00E94C50C8C9A18
:1021A00064E670E080E090E00E94C50C70E060E0C2
:1021B00080EB90E00C94CD0FEF92FF920F931F9362
:1021C000CF93DF93EC01E62E8091DB06811102C0F4
:1021D0000E94AD108B988A98809102018778809335
:1021E0000201A5988EB1877C8EB9809102018093FF
:1021F00002018EB18EB984B384BB8EB18EB9809149
:102200000201809302018998899A8091020187785E
:1022100080930201A5988EB1877C8EB9209102012E
:10222000CE0115E0880F991F1A95E1F78076822B71
:10223000809302012EB1CE01880F991F880F991F3C
:102240008073822B8EB924B3CE01880F991F8072C0
:10225000822B84BB2EB1CE01959587959595879558
:102260008870822B8EB98091020153E0D595C79575
:102270005A95E1F7C871C82BC09302018998899AD1
:102280008A9A809101018778809301019D988DB190
:10229000877C8DB961E070E080E090E00E94C50C21
:1022A00061E070E080E090E00E94C50C889A889818
:1022B00088988898D09100011CB102B3CCB1F090FD
:1022C0000001889A61E070E080E090E00E94C50C17
:1022D000889A889888988898409100015CB1E2B308
:1022E0009CB1F0910001889AEA946FEFE612D8CF82
:1022F000889A8B9A809101018867809301019D9A49
:102300008DB188638DB984E0C89F9001112420723B
:10231000332788E0F89EB0011124607C7727262BB4
:10232000602F70E07595679560717727262B612F78
:1023300070E075956795759567956C707727262B76
:102340006D2F70E0B5E075956795BA95E1F763700C
:102350007727262B64E0969FC0011124807298E0B5
:10236000F99FB0011124607C862BE695E0718E2BDD
:10237000569556955C70852B50E0C5E05595479570
:10238000CA95E1F74370842B922FDF91CF911F9173
:102390000F91FF90EF9008950F931F93CF93DF93CA
:1023A0008C0160E00E94DC10EC0161E0C8010E9439
:1023B000DC108C01BE0190E080E0CB01772766271E
:1023C00030E020E0602B712B822B932BDF91CF919B
:1023D0001F910F910895FF920F931F93CF93DF9357
:1023E0008C0160E00E94DC10EC0161E0C8010E94F9
:1023F000DC10F82E62E0C8010E94DC10AE0170E033
:1024000060E0742F66275527442700E030E020E085
:10241000402B5F29622B732B292F30E0C901B0E0DC
:10242000A0E08A019B01082B192B2A2B3B2BC90109
:10243000B801DF91CF911F910F91FF9008950F93F5
:102440001F93CF93DF93EC018B01FE018591949153
:10245000FE0132962496659174918F3F980771F42E
:1024600090E080E00E94C50C04501109101611067E
:1024700064F3DF91CF911F910F9108950E94CD0FCA
:10248000F3CFFC01262F358D868D82958170982F94
:102490009627692F70E072A361A330FF0CC08213EE
:1024A00007C080E290E050E040E060E00C940E0F46
:1024B00081E290E0F8CF878D90A1833927E79207DA
:1024C00041F058F4843521E0920791F08032944530
:1024D000C1F4626081E094E012C0863223E9920781
:1024E000C1F3893025EB9207A1F38532924949F473
:1024F000660F771F660F771F636187E090E00C948B
:10250000CD0F81E690E0FBCF8F929F92AF92BF926A
:10251000CF92DF92EF92FF920F931F93CF93DF93AF
:1025200000D000D0CDB7DEB77C014B015A01690164
:10253000FC01878D90A18632954151F4F70186897F
:1025400080FF06C0C801841B950B81F50F5F1F4FEC
:10255000F701858D80FF31C085A599828A82DB8253
:10256000CC82AE014F5F5F4F64E090E00E940E0F9F
:10257000F70181A9B982AA821B830C83AE014F5F48
:102580005F4F64E090E00E940E0F0F900F900F904D
:102590000F90DF91CF911F910F91FF90EF90DF90FF
:1025A000CF90BF90AF909F908F90089526173707D8
:1025B00079F6C80ED91E8A01CBCFB40187A190A5A8
:1025C0000E94CD0FB501F70181A592A50E94CD0F04
:1025D000C814D90419F40A151B05B9F2F701858D41
:1025E00085FF08C0868980FF1EC0102F0027A02A03
:1025F000B12A8501B401F70185A596A50E94CD0FEA
:10260000B501F70181A992A90E94CD0FB601F7018A
:1026100087A590A90E94CD0FB801F70183A994A9BD
:102620000E94CD0FB2CFDC2CCC248C289D286401D5
:10263000E1CF2F923F924F925F926F927F928F9253
:102640009F92AF92BF92CF92DF92EF92FF920F9341
:102650001F93CF93DF9300D000D01F92CDB7DEB78A
:102660009D838C8380913805882349F0C701880FAA
:10267000991F8E739927E1ECEE22E82AF92A37FF99
:1026800005C0620F731F319521953109260F371F41
:1026900077FF02C070E060E0EC81FD81808591856C
:1026A000281739070CF4C9016C01C61AD70A17FF9D
:1026B00005C0400F511F119501951109040F151FF9
:1026C00057FF02C050E040E0EC81FD812285338558
:1026D000021713070CF498015901A41AB50A8901CD
:1026E000015011099C01215031098C819D810E946A
:1026F00084128B988A98EC81FD8153A544A5809122
:102700000201877880930201A5988EB1877C8EB9EB
:1027100060910201842F90E09C01A5E0220F331FFD
:10272000AA95E1F72076262B209302016EB19C0139
:10273000220F331F220F331F2073262B2EB964B3B1
:102740009C01220F331F2072262B24BB6EB19C01EB
:1027500035952795359527952870262B2EB92091EC
:10276000020133E0959587953A95E1F78871822BC0
:10277000809302018998899A8091020187788093D9
:102780000201A5988EB1877C8EB960910201852FD8
:10279000942F9C0145E0220F331F4A95E1F72076E4
:1027A000262B209302014EB19C01220F331F220FD2
:1027B000331F2073242B2EB944B39C01220F331FE7
:1027C0002072242B24BB4EB19C013595279535955D
:1027D00027952870242B2EB920910201E3E09595CE
:1027E0008795EA95E1F78871822B80930201899899
:1027F000899A8A9ACA14DB042CF09A2D8B2D5601E3
:10280000C92ED82E2F2D30E0890185E0000F111F31
:102810008A95E1F70076C901880F991F880F991FE3
:10282000182F1073C901880F991FB82FB072C901F2
:102830009595879595958795982F987073E0359520
:1028400027957A95E1F7822F8871A701E5E0440F7B
:10285000551FEA95E1F740769701220F331F220FAB
:10286000331F522F5073B701660F771F60729701A5
:102870003595279535952795722F78709701E3E068
:1028800035952795EA95E1F7A22FA8712F2D287F7E
:1028900030E04901880C991C880C991CF82DF073C4
:1028A000F9834901880C991CE82DE072EA834901FB
:1028B0009594879495948794F82DF870FB83E3E0C2
:1028C00035952795EA95E1F7E22FE8712E2E9701CD
:1028D000F3E036952795FA95E1F72C7F30E0490132
:1028E000880C991C880C991CF82DF0733F2E290137
:1028F000440C551CE42DE0724E2E490195948794AA
:1029000095948794F82DF8705F2EF3E03595279510
:10291000FA95E1F7E22FE8716E2EEE0CEE0CEE0C5C
:10292000F12C9701220F331F220F331FF22FF07368
:102930007F2E9701220F331F2072F701F595E7953F
:10294000F595E795E870F3E0F594E794FA95E1F7EB
:102950003E2D3871E32E1C141D040CF0ABC03091D9
:1029600039054501332309F463C0309102013778FA
:1029700030930201A5983EB1377C3EB930910201F7
:10298000309302013EB1F9813F2B3EB934B3FA8155
:102990003F2B34BB3EB1FB813F2B3EB9309102014E
:1029A0003229309302018998899A3091020137784F
:1029B00030930201A5983EB1377C3EB930910201B7
:1029C000309302013EB133293EB934B3342934BBCC
:1029D0003EB135293EB930910201362930930201CA
:1029E0008998899A30910201377830930201A5982D
:1029F0003EB1377C3EB930910201309302013EB1C5
:102A000037293EB934B3322B34BB3EB13E2B3EB9ED
:102A1000309102013E29309302018998899A31E070
:102A2000831A910809F0A1CFF1E0CF1AD10893CF12
:102A300030910201377830930201A5983EB1377C7E
:102A40003EB930910201302B309302013EB1312B5F
:102A50003EB934B33B2B34BB3EB1392B3EB9309138
:102A60000201382B309302018998899A3091020132
:102A7000377830930201A5983EB1377C3EB930914A
:102A80000201342B309302013EB1352B3EB934B3F1
:102A9000362B34BB3EB1372B3EB9309102013A2B75
:102AA000309302018998899AF1E08F1A910809F010
:102AB000BFCFBACF8B9AEC81FD81858D80FF0AC094
:102AC000878D90A186329541B1F4EC81FD81868994
:102AD00080FF11C0EC81FD81028513850150110931
:102AE000208531852150310950E040E070E060E000
:102AF000CF010E9484120F900F900F900F900F90B3
:102B0000DF91CF911F910F91FF90EF90DF90CF90C9
:102B1000BF90AF909F908F907F906F905F904F90FD
:102B20003F902F900895EF92FF920F931F93CF93B2
:102B3000DF937C01E90177FD4DC157FD4BC1FC01DD
:102B400080859185681779070CF044C1828593854B
:102B5000481759070CF03EC180913805882341F091
:102B6000C901880F991F8E739927C17CC82BD92B57
:102B70008A019B01C7010E94841280913905882334
:102B800009F42FC18B988A98F70143A554A5809129
:102B90000201877880930201A5988EB1877C8EB957
:102BA00060910201852F90E09C0175E0220F331F98
:102BB0007A95E1F72076262B209302016EB19C01D5
:102BC000220F331F220F331F2073262B2EB964B31D
:102BD0009C01220F331F2072262B24BB6EB19C0157
:102BE00035952795359527952870262B2EB9209158
:102BF0000201B3E095958795BA95E1F78871822B2C
:102C0000809302018998899A809102018778809344
:102C10000201A5988EB1877C8EB960910201CA012C
:102C20009C0115E0220F331F1A95E1F72076262B21
:102C3000209302014EB19C01220F331F220F331F3C
:102C40002073242B2EB944B39C01220F331F207212
:102C5000242B24BB4EB19C0135952795359527959E
:102C60002870242B2EB92091020173E09595879549
:102C70007A95E1F78871822B809302018998899A6D
:102C80008A9A80910201877880930201A5988EB17B
:102C9000877C8EB9209102018D2F887F90E0209350
:102CA00002014EB19C01220F331F220F331F2073EC
:102CB000242B2EB944B39C01220F331F2072242BE6
:102CC00024BB4EB19C0135952795359527952870E5
:102CD000242B2EB920910201B3E095958795BA95E2
:102CE000E1F78871822B809302018998899A8091FB
:102CF0000201877880930201A5988EB1877C8EB9F6
:102D000020910201CE01D3E096958795DA95E1F7FF
:102D10008C7F90E0209302014EB19C01220F331F63
:102D2000220F331F2073242B2EB944B39C01220F92
:102D3000331F2072242B24BB4EB19C01359527955F
:102D4000359527952870242B2EB92091020163E038
:102D5000959587956A95E1F78871822B809302019A
:102D60008998899A80910201877880930201A598B9
:102D70008EB1877C8EB980910201CC0FCC0FCC0F25
:102D8000D0E0809302012EB1CE01880F991F880FE9
:102D9000991F8073822B8EB924B3CE01880F991F9F
:102DA0008072822B84BB2EB1CE0195958795959527
:102DB00087958870822B8EB980910201A3E0D5950A
:102DC000C795AA95E1F7C871C82BC09302018998ED
:102DD000899A8B9ADF91CF911F910F91FF90EF907D
:102DE0000895BE01F70183A594A5DF91CF911F91AE
:102DF0000F91FF90EF900C94CD0FEF92FF920F93F5
:102E00001F93CF93DF93CDB7DEB72A970FB6F89411
:102E1000DEBF0FBECDBF7C01862F8370F701868B8E
:102E2000962F917060FFE3C026813781F7013187CB
:102E30002087992309F4DEC024813581F701338787
:102E40002287823009F4DBC0833009F4DAC0813094
:102E500009F4D3C088E48A87F701858D968D90FFA9
:102E600003C02A8520582A8791FF04C02A8530E4B0
:102E700023272A8793FF04C02A8538E023272A873F
:102E8000F701278D30A180FF00C12431F8E63F070C
:102E900009F0B9C09A85892F88728A871F82892F85
:102EA00085958074282F2260892F90E095958795CD
:102EB00080729927822B88878BE38987AE01495FCF
:102EC0005F4F63E086EB90E00E940E0F2AE230E055
:102ED000F70130A727A38BE290E092A781A74CE2ED
:102EE00050E054A743A736A725A730AB27A792AB3E
:102EF00081AB94AB83ABAE01465F5F4F61E086E38D
:102F000090E00E940E0F8A8590E0F70194A383A3BE
:102F1000F701868980FF1CC0858D968D92FD18C0B3
:102F200087A190A521A532A530A727A392A781A7A5
:102F300085A596A521A932A936A725A792AB81AB75
:102F400087A590A923A934A930AB27A794AB83AB5D
:102F5000F701028513850150110920853185215023
:102F6000310950E040E070E060E0C7010E94841247
:102F7000F70166817781878D90A120E08732F3E9A0
:102F80009F0709F420E2F701358D30FF39C119821E
:102F90001A827B836C831D822E83AE014F5F5F4F4D
:102FA00066E083E390E00E940E0F19821A82AE0160
:102FB0004F5F5F4F62E087E390E00E940E0FF701E2
:102FC000858D80FF07C050E040E060E083E190E045
:102FD0000E940E0F2A960FB6F894DEBF0FBECDBF2B
:102FE000DF91CF911F910F91FF90EF900895248171
:102FF00035811CCF2681378121CF88E22CCF88E90B
:103000002ACF88EF28CF273243E9340789F41F827B
:1030100081E388878A8585958595859585958870CE
:103020008987AE01495F5F4F63E080EC90E04CCF51
:10303000233689E1380749F02138E4E93E0729F0D1
:103040002131F5E13F0709F041CF8A8587FF02C0B2
:1030500081608A878A8586FF02C082608A878A8526
:103060008F73233649E1340731F0213884E938077A
:1030700021F48A858F728A8729CF2131354109F061
:1030800025CF8A858F7E806CF6CF6A85862F062EA7
:10309000000C990B2339F7E73F0751F0A8F52435C9
:1030A000E1E03E0709F45CC02032F4E53F07A1F5FA
:1030B00040E052E0F70150A747A341E052E052A799
:1030C00041A742E052E054A743A740E152E056A78F
:1030D00045A741E152E050AB47A742E152E052AB75
:1030E00041AB43E152E054AB43AB882790782632A2
:1030F000F3E93F0721F02032344509F071C067FD44
:10310000846060E071E36EC0263243E9340781F2E7
:103110002930E5EB3E0761F220E230E0F70130A70D
:1031200027A321E230E032A721A722E230E034A732
:1031300023A720E530E036A725A721E530E030AB16
:1031400027A722E530E032AB21AB23E530E034ABFA
:1031500023ABBC0166277078776280E690E046C0BA
:1031600027E330E0F70136A725A726E330E030ABB0
:1031700027A729E330E032AB21AB28E330E034ABC2
:1031800023AB20E230E030A727A321E230E032A7D2
:1031900021A722E230E034A723A7F4E06F9FB0011B
:1031A000112466277170882792708862682B792BAA
:1031B00081E090E00E94CD0F8A85682F70E07595C0
:1031C0006795759567956870772783FD7061606373
:1031D000F70174A363A383E090E00E94CD0F98CE23
:1031E00060E072E6682B792B80E094E00E94CD0FBE
:1031F0006A85F4E06F9FB001112466277170D8CF03
:103200008339F7E79F07D9F1F0F4803244E594075A
:10321000B1F18338E7E79E0731F184359140F1F44D
:103220006150710981E390E00E94CD0F70E060E091
:1032300082E390E00E94CD0F70E060E083E390E0D5
:103240000E94CD0FC7CE863223E99207C1F08930A4
:1032500045EB9407A1F08532924911F3F70161A182
:1032600072A1626003C0F70161A172A181E690E0E2
:103270000E94CD0F70E060E08AE690E0E1CFF701B8
:1032800061A172A1626081E094E00E94CD0F70E0C4
:1032900060E084E094E0D4CF0895FC016370668B15
:1032A0008481958126813781613039F0633029F03E
:1032B0009187808733872287089531872087938776
:1032C000828708952F923F924F925F926F927F92E2
:1032D0008F929F92AF92BF92CF92DF92EF92FF9226
:1032E0000F931F93CF93DF93CDB7DEB76A970FB6D7
:1032F000F894DEBF0FBECDBF9A8F898F7A83698322
:103300004A01D22E18870F833701BC2CDC01599655
:103310002D913C915A972115310509F015C1189648
:103320008D919C911997681779070CF0D7C11A965F
:103330008D919C91481759070CF0D0C14C2C512C01
:10334000B6E0CB9E600D711D11247C876B8716162D
:1033500017060CF0C3C1EA2DF0E0FA87E98793E085
:10336000EE0FFF1F9A95E1F7F88BEF87CF01840FDF
:10337000951F181619060CF0B1C1A98DBA8D589673
:103380008C91811104C0BFEABD1508F4D394A98DB6
:10339000BA8DED91FC9111970284F385E02DCD015A
:1033A0000995B5E0DB9EC0011124E981FA81FC8317
:1033B000EB83312C212C9C0121513F4F388F2F8BD7
:1033C0004A2D50E05E8B4D8BEF89F88DE20DF31D99
:1033D00044919E828D82D12CC12C69817A81620DAB
:1033E000731D7A8B698B842F90E09C8B8B8BE98D7E
:1033F000FA8DA081B18140FF82C0F1E0BF126FC0A1
:10340000AF126DC01C96ED91FC912F813885A401FF
:103410004C0D5D1D69897A89898D9A8D0995EB8995
:10342000FC89F595E7954E2F5FEFC51AD50A6D819A
:103430007E818D899E89680F791F7E836D8398E0D8
:10344000C916D10481F6AFEF2A1A3A0AEB81FC8142
:10345000E40DF51DFC83EB83F5E02F16310409F034
:10346000B3CF2F81388526153705B9F0A98DBA8DD0
:10347000ED91FC91B1E0BB1257C0AB1255C0698110
:103480007A816B5F7F4F0088F189E02D830128E00E
:1034900030E0A401898D9A8D0995A98DBA8DED91A1
:1034A000FC9111970688F789E02DCD016A960FB639
:1034B000F894DEBF0FBECDBFDF91CF911F910F916A
:1034C000FF90EF90DF90CF90BF90AF909F908F9044
:1034D0007F906F905F904F903F902F9009941E9631
:1034E000ED91FC91EF80F88409851A8592014D8158
:1034F0005E816B817C81898D9A8D099590CF2F811A
:1035000038852615370509F48ACF31E0B31207C094
:10351000A31205C01C96ED91FC91930178CF1E96E5
:10352000ED91FC917301E0CF6B857C856419750981
:103530000684F785E02D73010F8518899201A40197
:10354000898D9A8D0995A9CFF90134969491329776
:1035500045915491D91AB7E0DB9E400D511D1124BD
:10356000F901259134913C8B2B8BFA0125903490F5
:10357000FA013296749031963491398B3296649078
:103580003196449041E04C1518F04A1508F07FC080
:10359000662D062C000C770B7C836B83842D042C0A
:1035A000000C990B9E838D83A98DBA8DED91FC91B2
:1035B00011970284F385E02DCD010995512CD12C72
:1035C000C12CEA2DF0E0FA87E9872B2D30E03C870B
:1035D0002B87A401440D511D47FC5A95588F4F8BE2
:1035E00069817A81660D711D67FC7A957E876D878A
:1035F0007989C71608F051CF2C2D30E04D815E81BE
:10360000420F531FA985BA854A9FC0014B9F900D59
:103610005A9F900D1124FC01E80DF91DF88BEF87DE
:10362000852D612C4F89588D420F531F5E8B4D8B1A
:10363000671408F050C044244394480E877041F446
:10364000C1010196EB89FC89E20DF31DD4901C01A8
:10365000D7FE19C0A98DBA8DED91FC91662D70E051
:10366000B1E0BB1219C0AB1217C02D853E85620FA9
:10367000731F0484F585E02D2F8138854D895E897F
:10368000898D9A8D0995DD0C6394842DD1CF1E828E
:103690001D821C821B8288CF4B815C81640F751F49
:1036A000AB85BC856A9FC0016B9F900D7A9F900D82
:1036B000112469817A81680F791F0684F785E02DCE
:1036C000EF80F88409851A859D014F855889898D79
:1036D0009A8D0995D8CF570CC3948ACF6A960FB6A6
:1036E000F894DEBF0FBECDBFDF91CF911F910F9138
:1036F000FF90EF90DF90CF90BF90AF909F908F9012
:103700007F906F905F904F903F902F9008958F9291
:103710009F92AF92CF92EF92FF920F931F93CF930E
:10372000DF93EC01262F898D9A8D009709F051C007
:103730006A30D1F41D861C868D8948E0849F9001F3
:1037400011248E859F85820F931F9F878E8781E02E
:1037500090E0DF91CF911F910F91FF90EF90CF906C
:10376000AF909F908F9008956D3089F3CC88AD888D
:103770008F898823C1F08C859D8536E0C39E800D9E
:10378000911D1124488559854817590764F44E85C1
:103790005F851D861C8638E0A39EC0011124840F1E
:1037A000951F9F878E87EA88FB88088919894E852F
:1037B0005F856C857D85CE010E9462192C898C8580
:1037C0009D8546E0249F800D911D11249D878C8747
:1037D000BECF6A3069F41D861C86FC013896E491E0
:1037E0002D898E859F85E29F800D911D1124ADCF7F
:1037F0006D3009F4ACCFFC0134963491631708F4B2
:10380000A6CF3296E491E61708F4A1CFFC013296D8
:1038100085909490462F431B342F47E0349F800CB3
:10382000911C1124F401329634913196E4913323A2
:10383000A9F1EE2399F1CC88F4013596E491AD8895
:103840004F89442301F10E2E000CFF0BE30FF11DF5
:10385000CE9EA001CF9E500D11246C857D85460F14
:10386000571F68857985641775076CF44E855F85E9
:103870001D861C86FC013896E491AE9E400D511DBC
:1038800011245F874E87EA88FB88088919894E854D
:103890005F856C857D85CE010E946219F4013496A6
:1038A000E4912C898C859D85E29F800D911D1124CA
:1038B0008DCF6F927F928F929F92AF92BF92CF9255
:1038C000DF92EF92FF920F931F93CF93DF93EC0160
:1038D0006B015A0139014801E881F9810284F385BD
:1038E000E02D0995E881F9810288F389E02D8701AF
:1038F0009301A501B601CE010995A501480D591DF9
:1039000041505109E881F9810288F389E02D930142
:10391000B601CE010995E881F9810088F189E02D91
:103920009401A501B601CE010995C60CD71CB601BC
:1039300061507109E881F9810088F189E02D9401D5
:10394000A501CE010995E881F9810688F789E02D66
:10395000CE01DF91CF911F910F91FF90EF90DF90FB
:10396000CF90BF90AF909F908F907F906F90099471
:103970006F927F928F929F92AF92BF92CF92DF927F
:10398000EF92FF920F931F93CF93DF935C01EB01B4
:103990006A01490138018701DC01ED91FC91621750
:1039A000730719F5641675062CF0962D872D3A01CC
:1039B000C92ED82E9601261937092F5F3F4F048C48
:1039C000F58DE02DA301BE01C5010995DF91CF91D1
:1039D0001F910F91FF90EF90DF90CF90BF90AF902D
:1039E0009F908F907F906F9008954615570591F4A2
:1039F0002617370724F0892D4B01C22FD82F9E019F
:103A0000281939092F5F3F4F068CF78DE02DA6014D
:103A1000B401DACF0284F385E02D0995D501ED914B
:103A2000FC910488F589E02D83019401A601BE0173
:103A3000C5010995D501ED91FC910688F789E02D26
:103A4000C501DF91CF911F910F91FF90EF90DF9013
:103A5000CF90BF90AF909F908F907F906F90099480
:103A6000EF92FF920F931F93DC011A960D911C9118
:103A70001B9718962D913C911997ED91FC9100A000
:103A8000F1A1E02D7B0150E040E070E060E009959D
:103A90001F910F91FF90EF9008954F925F926F9258
:103AA0007F928F929F92AF92BF92CF92DF92EF92CE
:103AB000FF920F931F93CF93DF936C012B015A0159
:103AC00039014801DC01ED91FC910284F385E02D80
:103AD0000995E201640C751CD601ED91FC91C615A7
:103AE000D7055CF40088F189E02D87019401A501D8
:103AF000BE01C60109952196EFCF0688F789E02D12
:103B0000C601DF91CF911F910F91FF90EF90DF9051
:103B1000CF90BF90AF909F908F907F906F905F906D
:103B20004F9009948F929F92AF92BF92CF92DF9263
:103B3000EF92FF920F931F93CF93DF93EC015B0102
:103B40004A016901E881F9810284F385E02D099534
:103B500095012C0D3D1D21503109E881F981048822
:103B6000F589E02D78018401A401B501CE01099504
:103B7000E881F9810688F789E02DCE01DF91CF91A8
:103B80001F910F91FF90EF90DF90CF90BF90AF907B
:103B90009F908F9009948F929F92AF92BF92CF92F5
:103BA000DF92EF92FF920F931F93CF93DF93EC017D
:103BB0005B014A0169017801E881F9810284F3859A
:103BC000E02D0995C80CD91C860101501109E88126
:103BD000F9810488F589E02D9501A401B501CE0194
:103BE0000995E881F9810688F789E02DCE01DF91FA
:103BF000CF911F910F91FF90EF90DF90CF90BF90EA
:103C0000AF909F908F9009940895EF92FF920F9339
:103C10001F93DC01ED91FC9100A0F1A1E02D09952D
:103C20001F910F91FF90EF9008950F931F93DC0168
:103C3000ED91FC91068CF78DE02D09951F910F9168
:103C400008950F931F93DC01ED91FC91048CF58D89
:103C5000E02D09951F910F9108952F923F924F9259
:103C60005F926F927F928F929F92AF92BF92CF920C
:103C7000DF92EF92FF920F931F93CF93DF93CDB715
:103C8000DEB728970FB6F894DEBF0FBECDBF3C015C
:103C90007E836D8358874F83690181E090E02C011A
:103CA000441A550ACA019195819591099C01220FE8
:103CB000331F3C832B831A0181E090E09A83898330
:103CC000F12CE12C57FC0DC08F81988501979887C6
:103CD0008F832B813C812E5F3F4F3C832B83420E91
:103CE000531E3FEFE31AF30A89819A8102969A8361
:103CF0008983480E591E2F8138852E153F050CF4F7
:103D000066C04901880C991C3FEF831A930A86010B
:103D10009401AD80BE808F819885A81AB90AA5014B
:103D2000B701660D771D8CE399E00E94211E940176
:103D3000A501B3016E197F098CE399E00E94211E51
:103D40002F8138852215330519F1AA24A394B12CAB
:103D5000AE18BF088D819E81A80EB91EB301620DF9
:103D6000731D860189809A8092E0891A91089401D6
:103D7000A5018CE399E00E94211EB3016219730929
:103D80009401A5018CE399E00E94211E2F803884C4
:103D90002F813885E216F3060CF494CF28960FB6DF
:103DA000F894DEBF0FBECDBFDF91CF911F910F9171
:103DB000FF90EF90DF90CF90BF90AF909F908F904B
:103DC0007F906F905F904F903F902F9008952F813C
:103DD00038852215330509F0B8CFE0CFDC01ED912D
:103DE000FC910084F185E02D09942F923F924F922F
:103DF0005F926F927F928F929F92AF92BF92CF927B
:103E0000DF92EF92FF920F931F93CF93DF9300D037
:103E100000D000D0CDB7DEB73C016A013E832D83D0
:103E2000FC82EB825801A41AB50AB7FE03C0B19414
:103E3000A194B1088D809E80861A970A97FE03C0D0
:103E40009194819491088A149B045CF0902F812FA7
:103E50000D811E819D838E839C2D8D2D6B01692F7D
:103E6000782F0C151D055CF09D818E817E836D83FE
:103E7000692F782F902F812F8601C92ED82E1601F9
:103E8000201A310A2B012D813E81421A530A57FE16
:103E900003C0519441945108710137FE03C03FEFB4
:103EA000E31AF30AF594E7948D819E8186179707AC
:103EB0005CF5A1E0B0E0BA83A983C016D1064CF14D
:103EC000D301ED91FC910484F585E02D2B813C819B
:103ED000A8016D817E818A149B041CF04D815E8156
:103EE000B801C3010995E418F508F7FE0AC02D8151
:103EF0003E8189819A81280F391F3E832D83E20CF0
:103F0000F31C0F5F1F4FD9CF2FEF3FEF3A83298369
:103F1000D4CF26960FB6F894DEBF0FBECDBFDF918B
:103F2000CF911F910F91FF90EF90DF90CF90BF90B6
:103F3000AF909F908F907F906F905F904F903F9049
:103F40002F900895089590E080E008958091CB0629
:103F5000882351F080912806882329F08091090652
:103F600091E08927089580E00895EF92FF920F93E2
:103F70001F93E091DC06EE2321F0169507950F7E46
:103F80001B77780189019A01AB01BC018CE399E0B0
:103F90000E9419131F910F91FF90EF900895EF92D7
:103FA000FF920F931F93DC011A960D911C911B97A2
:103FB00018962D913C911997ED91FC9100A0F1A1DB
:103FC000E02D7B0150E040E070E060E009951F913A
:103FD0000F91FF90EF90089570E060E08CE399E01E
:103FE0000C94CF1FEF92FF920F931F93DC01ED9182
:103FF000FC9100A0F1A1E02D780101E010E009950D
:104000001F910F91FF90EF9008950F931F93E091F0
:10401000DC06EE2321F0369527952F7E3B7789012C
:104020009A01AB01BC018CE399E00E94F21F1F9141
:104030000F910895AF92BF92CF92DF92EF92FF92CD
:104040000F931F93CF93DF936C017B0110E000E08F
:1040500030E8A32EB12C8FEF9FEFD0E0C0E0C8383E
:10406000D10509F446C0FE0123E0F595E7952A95B0
:10407000E1F7E00FF11FE252F04FE4919E0127704B
:104080003327A50102C0559547952A95E2F79A0175
:10409000F0E0E423F323EF2BE1F08F3F980709F4DE
:1040A000CE012196C938D105D1F64FEFE41AF40AB2
:1040B0000F5E1F4F083059E0150769F6DF91CF9169
:1040C0001F910F91FF90EF90DF90CF90BF90AF9036
:1040D00008958F3F980729F3AE01481B590B2AEA30
:1040E0003BEDB7018C0D9D1D0E9405208FEF9FEFCA
:1040F000D8CF8F3F980781F7D8CFEF92FF920F93D9
:104100001F93DC01ED91FC9100A0F1A1E02D78015D
:10411000890121E030E009951F910F91FF90EF9008
:1041200008952F923F924F925F926F927F928F925B
:104130009F92AF92BF92CF92DF92EF92FF920F9336
:104140001F93CF93DF9300D01F92CDB7DEB79B8331
:104150008A834B012A013901B02E19838601970108
:104160002536310510F024E630E0D2010E94A53C4E
:1041700024E630E040E050E00E946E3C6901190105
:10418000AA2099F09301A601B4018A819B810E9423
:10419000B51F04E211E29301A2014C195D09B401BB
:1041A0008A819B818C0D9D1D1EC02B2D398125364A
:1041B000310510F024E630E0D2010E94A53C24E64F
:1041C00030E040E050E00E946E3C221533050CF0D8
:1041D00066C0B601621B730B8A819B81820F931F9D
:1041E0009301AB01B4010E94B51F2BE430E0D20172
:1041F0000E94A53C24E630E040E050E00E946E3C86
:104200006A817B81620F731F8A819B81C80ED91ED0
:10421000C616D70674F48091DC0608E012E481111A
:1042200002C000E114E89301A4018CE399E00E942C
:104230007D202AE530E0D2010E94A53C24E630E052
:1042400040E050E00E946E3C6A817B81620F731FE8
:10425000C616D70674F48091DC0608E012E48111DA
:1042600002C000E114E89301A4018CE399E00E94EC
:104270007D200F900F900F90DF91CF911F910F91A4
:10428000FF90EF90DF90CF90BF90AF909F908F9076
:104290007F906F905F904F903F902F9008952216DF
:1042A00033063CF7A9014C195D0904E211E29301C0
:1042B00076CF482FE92F9B01603187E2780738F1EC
:1042C000CB0168EE73E00E94243CCB016AE070E011
:1042D0000E94243C9F938F93C90160E177E20E9482
:1042E000243C7F936F938DE692E09F938F931F9270
:1042F0008AE08F93EF934F930E94E63C8DB79EB771
:104300000A960FB6F8949EBF0FBE8DBF0895CB01DD
:104310006AE070E00E94243C9F938F937F936F9399
:1043200085E792E09F938F931F928AE08F93EF939C
:104330004F930E94E63C8DB79EB70A960FB6F8944D
:104340009EBF0FBE8DBF08950E94AC3CFB01019043
:104350000020E9F73197AF01461B570BDC01ED91C7
:10436000FC910280F381E02D09948F929F92AF928D
:10437000BF920F931F93CF93DF93CDB7DEB7A19773
:104380000FB6F894DEBF0FBECDBF19A2423008F4BD
:104390004AE08E010F5D1F4F842E912CB12CA12C71
:1043A000A50194010E944C3CE62FB901CA01EA30F4
:1043B00004F5E05DD801EE938D01232B242B252BF2
:1043C00079F790E080E0109729F0BD018DED96E03F
:1043D0000E94A621A1960FB6F894DEBF0FBECDBFF6
:1043E000DF91CF911F910F91BF90AF909F908F90D1
:1043F0000895E95CDFCFCF92DF92EF92FF92CF93E7
:10440000DF936B017C016DE28DED96E00E94A90DBA
:10441000EC0166277727CB016C197D098E099F096E
:104420004AE00E94B5218C0F9D1FDF91CF91FF9034
:10443000EF90DF90CF900895CF93DF930E94F60D19
:10444000EC016CE772E08DED96E00E94A6218C0FE6
:104450009D1FDF91CF910895CF93DF93BC01990FFA
:10446000880B990B97FF0EC00E94FB21EC016CE7B3
:1044700072E08DED96E00E94A6218C0F9D1FDF91CA
:10448000CF9108954AE00E94B521F0CF0F931F937A
:104490005091DC06552321F0369527952F7E3B77EA
:1044A00030934F0920934E0930934D0920934C09C6
:1044B00040935009409351099093490980934809CA
:1044C00070934B0960934A090115110539F0B80141
:1044D0008CE399E01F910F910C94A6211F910F91ED
:1044E0000895EF92FF920F931F93CF93DF93EC0108
:1044F0007A0102EA10E12AE230E0AB0162E071E009
:104500000E94B51F870120E134E841E067E071E0D7
:10451000CE0108960E944622DF91CF911F910F9104
:10452000FF90EF900895CF92DF92EF92FF920F935A
:104530001F93CF93DF936A017901EC012896AB01B9
:104540004051510902EA10E120E130E065E171E0FB
:10455000CE010E94B51F8601970142E065E171E03E
:10456000CE010E944622DF91CF911F910F91FF90C3
:10457000EF90DF90CF900895AF92BF92DF92EF92CD
:10458000FF920F931F93CF93DF93CDB7DEB7A4971E
:104590000FB6F894DEBF0FBECDBF4CEDA42EB12CEC
:1045A000D12C8091F30534E2E32E31E2F32E8D110C
:1045B00004C0EE24EA9425E0F22E8091DC068823E4
:1045C00031F0F694E794E894E4F88BE7F822870159
:1045D00029E030E043E351E0B5018CE399E00E942B
:1045E000211E970144E050E067E371E0C5010E949D
:1045F0002D1ED39494E1A90EB11C83E0D812D1CF23
:1046000010E000E02AE030E044EB50E062E371E0CB
:104610008CE090E00E94B51F8091050281113BC0A3
:1046200084E892E09F938F93E091F305F0E0EE0F22
:10463000FF1FE95EFD4F81818F9380818F938BE80F
:1046400092E09F938F931F9284E28F938E010F5F6E
:104650001F4F1F930F930E94E63C20E134E841E096
:1046600063E371E08CE090E00E9446220FB6F8947C
:10467000DEBF0FBECDBFA4960FB6F894DEBF0FBE4F
:10468000CDBFDF91CF911F910F91FF90EF90DF9001
:10469000BF90AF9008958FE792E0C4CF0F931F9320
:1046A000CF93DF93F90101900020E9F73197E21BE6
:1046B000F30B76E07E9FE0017F9FD00D11246C9F6D
:1046C000D0016D9FB00D1124E0EEF1E0EA1BFB0B71
:1046D000F7FD319689019A01462FBC01CF019595CE
:1046E00087950E944622DF91CF911F910F910895E7
:1046F0000F931F93F80101900020E9F73197E01B19
:10470000F10B56E05E9FD0015F9FB00D11244A9FD0
:10471000F0014B9FF00D11248E1B9F0B0E9446222F
:104720001F910F9108952F923F924F925F926F9237
:104730007F928F929F92AF92BF92CF92DF92EF9231
:10474000FF920F931F93CF93DF93CDB7DEB76097A0
:104750000FB6F894DEBF0FBECDBF9C878B87488B0A
:104760000D87EE86CF864B0129013C0124E0620EC5
:10477000711CB12CCE0101961C019889B91609F45F
:104780008FC0EF85E11119C0FD85BF16B0F4F401AB
:104790009785F2018785981310C0F401208931892B
:1047A000F201808991892817390739F4B201C401CF
:1047B0000E94C73C892B09F468C010E000E020E1AA
:1047C00030E040E750E0B3018CE090E00E94B51F7C
:1047D00084012FEF3FEF42E0B3018CE090E00E94B4
:1047E0004622F401E784F12CAA24A394CC24CA9491
:1047F00085E0D82E10E000E020E130E04AEB50E008
:10480000B30180E890E00E94912020E130E044E58F
:1048100050E0B30182E491E00E94B51FF401608989
:104820007189C1010E94592181012FEF3FEF42E0C0
:10483000B30186E991E00E94782310E000E020E1D6
:1048400030E046E350E0B3018EE991E00E94B51FED
:10485000F40187851F928F9325E932E03F932F93D0
:104860001F929AE09F933F922F920E94E63C810113
:1048700020E134E842E0B30184ED91E00E94782326
:104880000FB6F894DEBF0FBECDBFB394F2E18F0E2A
:10489000911C22E1420E511C3CE1630E711C6DCF54
:1048A0008E85B816F8F49F85911103C0ED85BE166C
:1048B000C9F02E852B19330BC9013CE1389FA001AB
:1048C000399F500D11246B857C85B39E600D711D41
:1048D000112410E000E09A0148EC51E08CE090E0F7
:1048E0000E94B51F60960FB6F894DEBF0FBECDBF15
:1048F000DF91CF911F910F91FF90EF90DF90CF90BC
:10490000BF90AF909F908F907F906F905F904F90EF
:104910003F902F900895AF92BF92CF92DF92EF9287
:10492000FF920F931F93CF93DF93CDB7DEB72E97F0
:104930000FB6F894DEBF0FBECDBF0E94A61FD82EC3
:104940008091290600EEE02E03E0F02E823019F06F
:10495000E12C80ECF82EDD2029F080910206870101
:10496000811102C003EE18E120E230E040EE51E098
:1049700070E060E090E080E00E94B51F07EB12E07D
:104980002FEF35E042E069E070E08AE090E00E94BD
:1049900046220EEB12E02FEF3FEF42E069E070E0BD
:1049A0008EE590E00E944622DD2009F47EC08091D1
:1049B00029061FE9C12E12E0D12E823021F4BAE976
:1049C000CB2EB2E0DB2E809128068230C0F01F9201
:1049D0008F93DF92CF9284EC92E09F938F931F92FC
:1049E0008EE08F938E010F5F1F4F1F930F930E94D6
:1049F000E63C0FB6F894DEBF0FBECDBF68018091D4
:104A00000206811185C08091DC065701882331F0B0
:104A1000B694A794E894A4F89BE7B92285012BE00B
:104A200030E04BE050E06EEE70E08CE399E00E94E5
:104A3000211E950145E050E060E170E08EEE90E0CF
:104A40000E942D1E8601970142E069E070E08CEF24
:104A500090E00E9446228091D106882331F0809117
:104A6000AE060EEA16E0811102C001EB12E02FEF54
:104A70003FEF42E069E070E086ED91E00E9478232C
:104A80008091D1068093F0042E960FB6F894DEBF85
:104A90000FBECDBFDF91CF911F910F91FF90EF908F
:104AA000DF90CF90BF90AF9008958091D10640E104
:104AB000E42E44E8F42E59EAC52E52E0D52E882380
:104AC00009F4A1CF80912606E82FF0E0EE0FFF1F3A
:104AD000E35FFD4FC080D1809DEF980F36EAE32E53
:104AE00039EFF32E923008F48ECF20E2E22E2DEF34
:104AF000F22E823009F487CF70E1E72E74E8F72EAA
:104B0000813009F080CF98EEE92E9FE2F92E7BCF1D
:104B1000EE24EA94FE2C77CF8F929F92AF92BF92B1
:104B2000EF92FF920F931F93CF93DF93CDB7DEB732
:104B300028970FB6F894DEBF0FBECDBF182FE090B8
:104B40000002F09001028FEFE816F80609F10E94CA
:104B5000F80C8090F2049090F304A090F404B090CC
:104B6000F504681979098A099B0920E63AEE40E0C4
:104B700050E00E944C3CCA01B9016E0D7F1D811DA1
:104B8000911D20EA35E040E050E00E944C3C7B0162
:104B9000112321F10E94EC1F64E170E08CEA90E0A7
:104BA0000E941A208091F604882349F026EF34E011
:104BB00040E154E862E08AEF90E00E944E232BEC43
:104BC00032E044E251E261E084E291E00E944E234F
:104BD0008FEF9FEF90930302809302028091020275
:104BE000909103028E159F0521F1F0920302E0924D
:104BF000020210E000E020E330E040EF50E06AEB1A
:104C000070E088E790E00E94B51F8E010F5F1F4F94
:104C10009FEFE916F906F1F461EB72E0C8010E941A
:104C2000D03C98014FEF5FEF66E08AEB90E00E9486
:104C30004E2328960FB6F894DEBF0FBECDBFDF918E
:104C4000CF911F910F91FF90EF90BF90AF909F90E9
:104C50008F900895C7016CE370E00E94243C9F93FD
:104C60008F937F936F9381EE92E09F938F931F9228
:104C700088E08F931F930F930E94E63C0FB6F89441
:104C8000DEBF0FBECDBFCDCF77FF04C06FEF72E0A8
:104C90000C94D03C9C016C337105ECF0CB016CE3BF
:104CA00070E00E94383C9F938F937F936F938BEEBD
:104CB00092E09F938F931F928AE08F933F932F935D
:104CC0000E94E63C8DB79EB70A960FB6F8949EBF39
:104CD0000FBE8DBF08957F936F9384EF92E09F93F3
:104CE0008F931F928AE08F933F932F930E94E63C0D
:104CF0008DB79EB708960FB6F8949EBF0FBE8DBFB6
:104D000008953F924F925F926F927F928F929F92FF
:104D1000AF92BF92CF92DF92EF92FF920F931F93C9
:104D2000CF93DF93CDB7DEB7AE970FB6F894DEBF63
:104D30000FBECDBF4C013B012A01B22E302EFB012C
:104D40002081318196EAC92E99EFD92E2A35310575
:104D500058F448EEC42E4FE2D42E2B34310520F007
:104D600080E2C82E8DEFD82EB110A7C0F20180814D
:104D7000918146EA59EF8A35910538F440E25DEFBA
:104D80008B34910510F448EE5FE2AA24A394C41674
:104D9000D50609F4A12C2817390709F08FC0F301B3
:104DA000E080F180F2010081118122E130E048ECE5
:104DB00051E0B4016A5D7F4F8CE090E00E94912049
:104DC000B11013C0F30122813381F20182819381FA
:104DD0002817390751F4F30124813581F2018481C8
:104DE00095812817390709F4F8C010E000E02AE09F
:104DF00030E040EF50E0B401655C7F4F8CE090E024
:104E00000E94B51FF301628173817E01FBE1EF0E09
:104E1000F11CC7010E945921F301648175816E0163
:104E2000F5E2CF0ED11CC6010E945921DF92CF922C
:104E3000FF92EF9282E093E09F938F931F928AE11B
:104E40008F938E010F5F1F4F1F930F930E94E63CBD
:104E500020E134E841E0B401645C7F4F8CE090E0F5
:104E60000E9446220FB6F894DEBF0FBECDBF33209E
:104E700009F47AC0BB2009F456C010E000E02AE033
:104E800030E044E950E0B401655C7F4F80E491E09C
:104E90000E94B51F80911E0508EF12E0882311F0D3
:104EA0000EE115E0B401645C7F4F20E134E841E09D
:104EB00084ED91E00E9478233FC0AB2C7401F2E0B6
:104EC000EF0EF11C10E000E020E230E04CE850E092
:104ED000B70188E491E00E94B51FF30180819181C0
:104EE000883EF3E09F0710F087EE93E09F938F9347
:104EF00085E992E09F938F931F928AE18F938E01B1
:104F00000F5F1F4F1F930F930E94E63C960144E0F2
:104F1000B70184ED91E00E9478230FB6F894DEBFCC
:104F20000FBECDBF3CCF64E075E08EE195E00E94FE
:104F3000C73C892B09F0A1CFAE960FB6F894DEBF1F
:104F40000FBECDBFDF91CF911F910F91FF90EF90DA
:104F5000DF90CF90BF90AF909F908F907F906F9099
:104F60005F904F903F900895BB20C9F1B401655CFC
:104F70007F4F10E000E02AE030E044E950E080E4B8
:104F800091E00E94B51FF301668177817E01FBE10C
:104F9000EF0EF11CC7010E944426FF92EF928BE0B6
:104FA00093E09F938F931F928AE18F938E010F5FFF
:104FB0001F4F1F930F930E94E63CB401645C7F4F28
:104FC00020E134E841E084ED91E00E9478230FB6BF
:104FD000F894DEBF0FBECDBFAFCF3110A4CFF30129
:104FE00026813781F201868197812817390709F0D8
:104FF000BDCFA2CF2F923F924F925F926F927F923E
:105000008F929F92AF92BF92CF92DF92EF92FF92D8
:105010000F931F93CF93DF93CDB7DEB7A4970FB64F
:10502000F894DEBF0FBECDBF50900902511049C3A6
:105030008091F1048111CEC0552453940E948B2499
:10504000E4C08091F305811145C00CE213E020E13A
:1050500034E842E06CE270E08CE090E00E9446228E
:1050600003E313E020E134E842E066E770E08CE01F
:1050700090E00E9446220CE313E020E134E842E095
:1050800060EC70E08CE090E00E94462247E453E040
:105090006CE670E08CE090E00E94712241E553E004
:1050A0006CE670E08EE790E00E9471224BE553E0E1
:1050B0006CE670E080EF90E00E94712245E653E0DC
:1050C00062E770E082E691E00E9471220E94BC22B9
:1050D0005F2CB4CF813009F05DC001E713E020E11F
:1050E00034E842E068E270E08CE090E00E94462202
:1050F00060911406709115068E01095E1F4FC8015C
:105100000E9459211F930F938AE793E09F938F93F7
:105110001F9284E18F93065111091F930F930E94F0
:10512000E63C20E134E841E06EE270E084ED91E09D
:105130000E94782324E231E248EC51E06CE370E015
:105140008CE090E00E94052008E813E020E134E8BC
:1051500042E06AEB70E08CE090E00E94462203E9B6
:1051600013E020E134E841E060EC70E084ED91E090
:105170000E94782324E231E248EC51E06EEC70E0CA
:105180008CE090E00E9405200FB6F894DEBF0FBEC1
:10519000CDBF9CCF0AEA13E020E134E842E068E2A8
:1051A00070E08CE090E00E94462224E231E248EC7C
:1051B00051E06CE370E08CE090E00E94052024E276
:1051C00031E248EC51E06AEF70E08CE090E00E9440
:1051D00005207CCF909126068091560598132ECFFE
:1051E0009091280680915805981328CF9091D10668
:1051F0008091F004981322CF6EED75E08EEA96E070
:105200000E94C73C892B09F019CF8091CB068823D7
:1052100009F46EC08091F30581110DC1152D511057
:1052200008C011E090912D0680915D05981301C092
:1052300010E000E0212F4AE355E06AE076E084E2E6
:1052400090E00E94812601E0212F42E455E062E1D6
:1052500076E08EE690E00E948126212F4AE455E018
:105260006AE176E088EB90E00E94812649E150E017
:105270006EE175E084E095E00E94D73C10921D0538
:10528000609122067091230651104FC08091520503
:10529000909153056817790709F047C020912406BB
:1052A00030912506809154059091550528173907AE
:1052B00009F053C020912A0630912B0680915A059F
:1052C00090915B052817390709F065C09091270672
:1052D00080915705981391C089EBEAE0F6E0AAE3C4
:1052E000B5E001900D928A95E1F781E08093F10499
:1052F0001092090210920402A4960FB6F894DEBF31
:105300000FBECDBFDF91CF911F910F91FF90EF9016
:10531000DF90CF90BF90AF909F908F907F906F90D5
:105320005F904F903F902F900895CE0101960E947C
:10533000592166EB73E0CE0101960E94B13C2FEF3C
:1053400035E0AE014F5F5F4F6CE670E08CE090E0BF
:105350000E949322552009F4A1CF609124067091F8
:105360002506CE0101960E94442680912406909144
:1053700025062FEF3FEF4E9710F426EA39EFAE01E6
:105380004F5F5F4F6CE670E08EE790E00E949322E3
:10539000552009F48FCF80912A0690912B06883EE4
:1053A00033E0930710F087EE93E09F938F9385E9A6
:1053B00092E09F938F931F9280E18F938E010F5FF6
:1053C0001F4F1F930F930E94E63C80912A069091F5
:1053D0002B060FB6F894DEBF0FBECDBF8D379105FB
:1053E00010F126EA39EFA8016CE670E080EF90E05A
:1053F0000E949322552009F469CFE091270628EEF8
:105400003FE2E33010F420E23DEFF0E0EE0FFF1F4B
:10541000E35EFD4F4081518162E770E082E691E0FA
:105420000E94932259CF20E23DEF89369105D8F6AC
:1054300028EE3FE2D8CF813049F58091F104009108
:105440005E05811101C000E0C52C14E0E12E20E6CC
:1054500035E040912E0660E376E082E490E00E9421
:1054600093238091F10400915F05811101C000E058
:10547000C52CB3E0EB2E28EA35E040912F0668E713
:1054800076E084ED90E00E94932326CFE4EB2E2E6D
:10549000E6E03E2E22EC36E0F101EE24E394F12C1E
:1054A00081919191E816F90608F47C012E173F07C7
:1054B000B9F7A4EBB6E0D12CC12C8D919D91C80E0B
:1054C000D91EEA17FB07C9F7511003C0C114D10454
:1054D00081F110E000E02CE030E04AE850E068E2C2
:1054E00070E08AE491E00E94B51F8E01095E1F4FB3
:1054F000B601C8010E9459211F930F9389EB93E0D5
:105500009F938F931F9286E18F93065111091F93EA
:105510000F930E94E63C20E134E841E06AE270E04B
:1055200084ED91E00E9478230FB6F894DEBF0FBEA1
:10553000CDBF76E2C72ED12CB12CA12CC701B0E093
:10554000A0E089A39AA3ABA3BCA34E0197E1890E67
:10555000911CD1010D911C91511011C0F501EE0F5C
:10556000FF1FEC51FA4F808191818017910739F428
:105570009091C2068091F205981709F492C0360105
:10558000B4E16B1A71089801A8EAB0E00E94963C59
:1055900029A13AA14BA15CA10E944C3C7901012BAD
:1055A00031F0223031051CF452E0E52EF12C10E0F0
:1055B00000E028EB30E045E350E062E470E0C30136
:1055C0000E94B51F4A2CF6E00FEF15E0AF1611F060
:1055D00008EE1FE2970145E350E06AEF70E06E19B4
:1055E0007F09C3010E94B51FD1016D917C91C40157
:1055F0000E945921F101808191812FEF3FEF892B8A
:1056000011F424E231E2F40101900020E9F731972E
:10561000AF01481959096EEE70E06E197F091AEF53
:105620001403F001159FF00D1124CF01C59697FDCD
:10563000019695958795840141E0860D971D0E94FE
:1056400046221A8219828091C20690E0079626E0CF
:1056500030E02A193B09821B930B67E070E00E943F
:10566000383CFC01E95DFD4F8081898310E000E05A
:1056700020E130E045E350E060E071E0C3010E94CA
:10568000B51FF6E020E134E84F1202C02FEF35E0FD
:105690008E010F5F1F4F42E060E071E0C6010E9483
:1056A00046222FEFA21AB20A32E0230E311C81E407
:1056B000C80ED11C9DEEC91691E0D90609F049CF5C
:1056C0000BCE0E948B2410E000E020E231E040EE9F
:1056D00051E060E270E090E080E00E94B51FF09041
:1056E000CB06F110AECC08E113E020E134E842E053
:1056F00066E970E088E790E00E9446229FCC8F9296
:105700009F92AF92BF92CF92DF92EF92FF920F9350
:105710001F93CF93DF936B01EA01822E188262EC14
:1057200073E00E94C63B7C0182E1982EE114F104F3
:1057300009F44FC08881881508F04BC06CE270E016
:10574000C7010E94BC3C8C010097D9F15C012FEF8E
:10575000A21AB20A6CE270E0C5010E94BC3C00973C
:1057600081F1F8011082FC0111928F0188814EE0D5
:1057700050E0B7019601899D200D311D1124C9010A
:105780000E94D73C8881F601899DE00DF11D11240E
:105790001686C5010E94813B9881F601999DE00D16
:1057A000F11D11248787C8010E949F3B2881F601C3
:1057B000299DE00DF11D1124718B608B88818F5F15
:1057C000888362EC73E090E080E00E94C63B7C013D
:1057D000ADCFDF91CF911F910F91FF90EF90DF90B0
:1057E000CF90BF90AF909F908F9008956F927F92CF
:1057F0008F929F92AF92BF92CF92DF92EF92FF92E1
:105800000F931F93CF93DF93CDB7DEB7C055D10968
:105810000FB6F894DEBF0FBECDBFFF24F3949AE01D
:10582000E92E2CE3D22E07E010E08091F60690914D
:10583000F7062091F8063091F906821B930B9170C0
:10584000892B09F419C28DED96E00E945B0DE09161
:10585000EF048A3019F08D3009F000C2EE2309F40C
:105860008BC18091EE04811187C1F0E0E25BFB4FB8
:10587000108280914E04882309F47EC190914F04D8
:105880009C3709F079C1C090CB06873409F013C169
:1058900062EC73E080E594E00E94C63B9E012F5FBE
:1058A0003F4F4901B12C009799F034E1B31699F0BC
:1058B000B3940E949F3BF401619371938193919300
:1058C0004F0162EC73E090E080E00E94C63BEBCFBA
:1058D000F4E1BF12C8C089819A8190930B0680932E
:1058E0000A068D819E8190930D0680930C06898512
:1058F0009A8590930F0680930E068D859E859093D2
:1059000011068093100689899A89909313068093D3
:1059100012068D899E899093150680931406898DB1
:105920009A8D90931706809316068D8D9E8D909379
:1059300019068093180629A13AA130931B062093DB
:105940001A062DA13EA130931D0620931C0629A501
:105950003AA530931F0620931E069093210680934C
:1059600020068DA59EA5909323068093220689A9E3
:105970009AA990932506809324068DA99EA9AFA984
:10598000B8AD85309105A105B1051CF080E090E02F
:10599000DC018093260689AD9AADABADBCAD8530F8
:1059A0009105A105B1051CF080E090E0DC01809339
:1059B00027062091280621968CAD9DADAEADBFADDA
:1059C0002197B7FD74C084369105A105B1050CF08F
:1059D00070C080932806281791F084EE90E00E9412
:1059E000F60D6091280670E090E080E04AE00E94A9
:1059F000B5216CE772E08DED96E00E94A62122961B
:105A00008FAD229780932D0629968CAD9DADAEADBE
:105A1000BFAD2997B7FF03C080E090E0DC01909311
:105A20002B0680932A0681E02D964CAD5DAD6EADC0
:105A30007FAD2D97452B462B472B09F480E08093B3
:105A40002C0661968CAD9DADAEADBFAD6197833038
:105A50009105A105B1051CF080E090E0DC01809388
:105A60002906F092CB060E94F80C6093CD06709345
:105A7000CE068093CF069093D006F09204028091D8
:105A8000CC06882321F01092CC06F0920902809176
:105A9000D106882339F0C1106FC08091CB068823CE
:105AA00009F46AC0F092D106F092090265C080E064
:105AB00090CF83E68ECF24E04EE256E060E376E0BE
:105AC0008D3439F0803551F423E04FE256E068E739
:105AD00076E080E594E00E947F2BC5CF843451F5B9
